{
	"EtherVault.sol": {
		"EtherVault": {
			"abi": [
				{
					"inputs": [],
					"stateMutability": "nonpayable",
					"type": "constructor"
				},
				{
					"anonymous": false,
					"inputs": [
						{
							"indexed": true,
							"internalType": "address",
							"name": "user",
							"type": "address"
						},
						{
							"indexed": false,
							"internalType": "bool",
							"name": "status",
							"type": "bool"
						}
					],
					"name": "Whitelisted",
					"type": "event"
				},
				{
					"anonymous": false,
					"inputs": [
						{
							"indexed": true,
							"internalType": "address",
							"name": "user",
							"type": "address"
						},
						{
							"indexed": false,
							"internalType": "uint256",
							"name": "amount",
							"type": "uint256"
						}
					],
					"name": "Withdrawn",
					"type": "event"
				},
				{
					"inputs": [],
					"name": "BIG_SPENDER_THRESHOLD",
					"outputs": [
						{
							"internalType": "uint256",
							"name": "",
							"type": "uint256"
						}
					],
					"stateMutability": "view",
					"type": "function"
				},
				{
					"inputs": [],
					"name": "BIG_SPENDER_WITHDRAWAL",
					"outputs": [
						{
							"internalType": "uint256",
							"name": "",
							"type": "uint256"
						}
					],
					"stateMutability": "view",
					"type": "function"
				},
				{
					"inputs": [],
					"name": "LOCK_PERIOD",
					"outputs": [
						{
							"internalType": "uint256",
							"name": "",
							"type": "uint256"
						}
					],
					"stateMutability": "view",
					"type": "function"
				},
				{
					"inputs": [],
					"name": "MAGIC_WORD_HASH",
					"outputs": [
						{
							"internalType": "bytes32",
							"name": "",
							"type": "bytes32"
						}
					],
					"stateMutability": "view",
					"type": "function"
				},
				{
					"inputs": [],
					"name": "MAGIC_WORD_WITHDRAWAL",
					"outputs": [
						{
							"internalType": "uint256",
							"name": "",
							"type": "uint256"
						}
					],
					"stateMutability": "view",
					"type": "function"
				},
				{
					"inputs": [],
					"name": "WHITELISTED_WITHDRAWAL",
					"outputs": [
						{
							"internalType": "uint256",
							"name": "",
							"type": "uint256"
						}
					],
					"stateMutability": "view",
					"type": "function"
				},
				{
					"inputs": [],
					"name": "WITHDRAWAL_DELAY",
					"outputs": [
						{
							"internalType": "uint256",
							"name": "",
							"type": "uint256"
						}
					],
					"stateMutability": "view",
					"type": "function"
				},
				{
					"inputs": [
						{
							"internalType": "address[]",
							"name": "_users",
							"type": "address[]"
						}
					],
					"name": "addToWhitelist",
					"outputs": [],
					"stateMutability": "nonpayable",
					"type": "function"
				},
				{
					"inputs": [
						{
							"internalType": "address",
							"name": "_user",
							"type": "address"
						}
					],
					"name": "canWithdraw",
					"outputs": [
						{
							"internalType": "bool",
							"name": "",
							"type": "bool"
						}
					],
					"stateMutability": "view",
					"type": "function"
				},
				{
					"inputs": [
						{
							"internalType": "address",
							"name": "_user",
							"type": "address"
						}
					],
					"name": "checkWhitelistStatus",
					"outputs": [
						{
							"internalType": "bool",
							"name": "",
							"type": "bool"
						}
					],
					"stateMutability": "view",
					"type": "function"
				},
				{
					"inputs": [],
					"name": "deploymentTime",
					"outputs": [
						{
							"internalType": "uint256",
							"name": "",
							"type": "uint256"
						}
					],
					"stateMutability": "view",
					"type": "function"
				},
				{
					"inputs": [],
					"name": "deposit",
					"outputs": [],
					"stateMutability": "payable",
					"type": "function"
				},
				{
					"inputs": [
						{
							"internalType": "address",
							"name": "",
							"type": "address"
						}
					],
					"name": "etherSent",
					"outputs": [
						{
							"internalType": "uint256",
							"name": "",
							"type": "uint256"
						}
					],
					"stateMutability": "view",
					"type": "function"
				},
				{
					"inputs": [
						{
							"internalType": "address",
							"name": "",
							"type": "address"
						}
					],
					"name": "etherWithdrawn",
					"outputs": [
						{
							"internalType": "uint256",
							"name": "",
							"type": "uint256"
						}
					],
					"stateMutability": "view",
					"type": "function"
				},
				{
					"inputs": [],
					"name": "getVaultBalance",
					"outputs": [
						{
							"internalType": "uint256",
							"name": "",
							"type": "uint256"
						}
					],
					"stateMutability": "view",
					"type": "function"
				},
				{
					"inputs": [
						{
							"internalType": "address",
							"name": "_user",
							"type": "address"
						}
					],
					"name": "getWithdrawalLimit",
					"outputs": [
						{
							"internalType": "uint256",
							"name": "",
							"type": "uint256"
						}
					],
					"stateMutability": "view",
					"type": "function"
				},
				{
					"inputs": [
						{
							"internalType": "string",
							"name": "_word",
							"type": "string"
						}
					],
					"name": "guessMagicWord",
					"outputs": [],
					"stateMutability": "nonpayable",
					"type": "function"
				},
				{
					"inputs": [
						{
							"internalType": "address",
							"name": "",
							"type": "address"
						}
					],
					"name": "guessedMagicWord",
					"outputs": [
						{
							"internalType": "bool",
							"name": "",
							"type": "bool"
						}
					],
					"stateMutability": "view",
					"type": "function"
				},
				{
					"inputs": [
						{
							"internalType": "address",
							"name": "",
							"type": "address"
						}
					],
					"name": "isWhitelisted",
					"outputs": [
						{
							"internalType": "bool",
							"name": "",
							"type": "bool"
						}
					],
					"stateMutability": "view",
					"type": "function"
				},
				{
					"inputs": [],
					"name": "lastWithdrawalTime",
					"outputs": [
						{
							"internalType": "uint256",
							"name": "",
							"type": "uint256"
						}
					],
					"stateMutability": "view",
					"type": "function"
				},
				{
					"inputs": [],
					"name": "lastWithdrawer",
					"outputs": [
						{
							"internalType": "address",
							"name": "",
							"type": "address"
						}
					],
					"stateMutability": "view",
					"type": "function"
				},
				{
					"inputs": [],
					"name": "owner",
					"outputs": [
						{
							"internalType": "address",
							"name": "",
							"type": "address"
						}
					],
					"stateMutability": "view",
					"type": "function"
				},
				{
					"inputs": [
						{
							"internalType": "address[]",
							"name": "_users",
							"type": "address[]"
						}
					],
					"name": "removeFromWhitelist",
					"outputs": [],
					"stateMutability": "nonpayable",
					"type": "function"
				},
				{
					"inputs": [],
					"name": "withdraw",
					"outputs": [],
					"stateMutability": "nonpayable",
					"type": "function"
				},
				{
					"stateMutability": "payable",
					"type": "receive"
				}
			],
			"devdoc": {
				"events": {
					"Withdrawn(address,uint256)": {
						"details": "Event for transparency "
					}
				},
				"kind": "dev",
				"methods": {
					"addToWhitelist(address[])": {
						"details": "Add multiple addresses to the whitelist.",
						"params": {
							"_users": "Array of addresses to whitelist."
						}
					},
					"canWithdraw(address)": {
						"details": "Check if the user can withdraw at the current time.",
						"params": {
							"_user": "The address of the user."
						},
						"returns": {
							"_0": "bool True if the user can withdraw, false otherwise."
						}
					},
					"checkWhitelistStatus(address)": {
						"details": "Check if an address is whitelisted.",
						"params": {
							"_user": "The address to check."
						},
						"returns": {
							"_0": "bool True if the address is whitelisted, false otherwise."
						}
					},
					"constructor": {
						"details": "Constructor sets the deployer as the owner "
					},
					"deposit()": {
						"details": "Deposit Ether to be recognized as a big spender. Only allows deposits of at least 0.01 ether."
					},
					"getVaultBalance()": {
						"details": "Check the contract's current balance.",
						"returns": {
							"_0": "The balance of the contract."
						}
					},
					"getWithdrawalLimit(address)": {
						"details": "Determine the user's withdrawal limit based on their role.",
						"params": {
							"_user": "The address of the user."
						},
						"returns": {
							"_0": "The withdrawal limit for the user."
						}
					},
					"guessMagicWord(string)": {
						"details": "Guess the magic word (\"Solidity\") to unlock higher withdrawals.",
						"params": {
							"_word": "The word to guess."
						}
					},
					"removeFromWhitelist(address[])": {
						"details": "Remove multiple addresses from the whitelist.",
						"params": {
							"_users": "Array of addresses to remove from the whitelist."
						}
					},
					"withdraw()": {
						"details": "Withdraw Ether based on the user's role after the lock period."
					}
				},
				"stateVariables": {
					"BIG_SPENDER_THRESHOLD": {
						"details": "Big Spender threshold (0.03 ether) "
					},
					"MAGIC_WORD_HASH": {
						"details": "Magic word hash "
					},
					"WHITELISTED_WITHDRAWAL": {
						"details": "Withdrawal limits per role "
					},
					"deploymentTime": {
						"details": "Deployment timestamp and lock period (2 days) "
					},
					"etherSent": {
						"details": "Track Ether sent and withdrawn per address "
					},
					"isWhitelisted": {
						"details": "Role tracking "
					},
					"lastWithdrawer": {
						"details": "Last withdrawal tracking "
					},
					"owner": {
						"details": "Contract owner (deployer) "
					}
				},
				"version": 1
			},
			"evm": {
				"assembly": "    /* \"EtherVault.sol\":1018:6838  contract EtherVault {... */\n  mstore(0x40, 0x80)\n    /* \"EtherVault.sol\":1204:1219  block.timestamp */\n  timestamp\n    /* \"EtherVault.sol\":1175:1219  uint public deploymentTime = block.timestamp */\n  0x01\n  sstore\n    /* \"EtherVault.sol\":2459:2508  constructor() {... */\n  callvalue\n  dup1\n  iszero\n  tag_1\n  jumpi\n  0x00\n  dup1\n  revert\ntag_1:\n  pop\n    /* \"EtherVault.sol\":2491:2501  msg.sender */\n  caller\n    /* \"EtherVault.sol\":2483:2488  owner */\n  0x00\n  dup1\n    /* \"EtherVault.sol\":2483:2501  owner = msg.sender */\n  0x0100\n  exp\n  dup2\n  sload\n  dup2\n  0xffffffffffffffffffffffffffffffffffffffff\n  mul\n  not\n  and\n  swap1\n  dup4\n  0xffffffffffffffffffffffffffffffffffffffff\n  and\n  mul\n  or\n  swap1\n  sstore\n  pop\n    /* \"EtherVault.sol\":1018:6838  contract EtherVault {... */\n  dataSize(sub_0)\n  dup1\n  dataOffset(sub_0)\n  0x00\n  codecopy\n  0x00\n  return\nstop\n\nsub_0: assembly {\n        /* \"EtherVault.sol\":1018:6838  contract EtherVault {... */\n      mstore(0x40, 0x80)\n      jumpi(tag_1, lt(calldatasize, 0x04))\n      shr(0xe0, calldataload(0x00))\n      dup1\n      0x8da5cb5b\n      gt\n      tag_27\n      jumpi\n      dup1\n      0xc0f7a1bd\n      gt\n      tag_28\n      jumpi\n      dup1\n      0xc0f7a1bd\n      eq\n      tag_21\n      jumpi\n      dup1\n      0xc74e6d80\n      eq\n      tag_22\n      jumpi\n      dup1\n      0xd0e30db0\n      eq\n      tag_23\n      jumpi\n      dup1\n      0xecda10f5\n      eq\n      tag_24\n      jumpi\n      dup1\n      0xed12e8ef\n      eq\n      tag_25\n      jumpi\n      dup1\n      0xfa179d1d\n      eq\n      tag_26\n      jumpi\n      jump(tag_2)\n    tag_28:\n      dup1\n      0x8da5cb5b\n      eq\n      tag_15\n      jumpi\n      dup1\n      0x91f2577b\n      eq\n      tag_16\n      jumpi\n      dup1\n      0x9315de85\n      eq\n      tag_17\n      jumpi\n      dup1\n      0xad4f5ffc\n      eq\n      tag_18\n      jumpi\n      dup1\n      0xaf594ba8\n      eq\n      tag_19\n      jumpi\n      dup1\n      0xb1e66603\n      eq\n      tag_20\n      jumpi\n      jump(tag_2)\n    tag_27:\n      dup1\n      0x39761385\n      gt\n      tag_29\n      jumpi\n      dup1\n      0x39761385\n      eq\n      tag_9\n      jumpi\n      dup1\n      0x3af32abf\n      eq\n      tag_10\n      jumpi\n      dup1\n      0x3ccfd60b\n      eq\n      tag_11\n      jumpi\n      dup1\n      0x548db174\n      eq\n      tag_12\n      jumpi\n      dup1\n      0x54fe5dcb\n      eq\n      tag_13\n      jumpi\n      dup1\n      0x7f649783\n      eq\n      tag_14\n      jumpi\n      jump(tag_2)\n    tag_29:\n      dup1\n      0x0ebb172a\n      eq\n      tag_3\n      jumpi\n      dup1\n      0x178d4de5\n      eq\n      tag_4\n      jumpi\n      dup1\n      0x1820cabb\n      eq\n      tag_5\n      jumpi\n      dup1\n      0x19262d30\n      eq\n      tag_6\n      jumpi\n      dup1\n      0x1e921730\n      eq\n      tag_7\n      jumpi\n      dup1\n      0x34a014dc\n      eq\n      tag_8\n      jumpi\n      jump(tag_2)\n    tag_1:\n      jumpi(tag_2, calldatasize)\n      stop\n    tag_2:\n      0x00\n      dup1\n      revert\n        /* \"EtherVault.sol\":2173:2220  uint public constant WITHDRAWAL_DELAY = 1 hours */\n    tag_3:\n      callvalue\n      dup1\n      iszero\n      tag_32\n      jumpi\n      0x00\n      dup1\n      revert\n    tag_32:\n      pop\n      tag_33\n      tag_34\n      jump\t// in\n    tag_33:\n      mload(0x40)\n      tag_35\n      swap2\n      swap1\n      tag_36\n      jump\t// in\n    tag_35:\n      mload(0x40)\n      dup1\n      swap2\n      sub\n      swap1\n      return\n        /* \"EtherVault.sol\":3628:3746  function checkWhitelistStatus(address _user) external view returns (bool) {... */\n    tag_4:\n      callvalue\n      dup1\n      iszero\n      tag_37\n      jumpi\n      0x00\n      dup1\n      revert\n    tag_37:\n      pop\n      tag_38\n      0x04\n      dup1\n      calldatasize\n      sub\n      dup2\n      add\n      swap1\n      tag_39\n      swap2\n      swap1\n      tag_40\n      jump\t// in\n    tag_39:\n      tag_41\n      jump\t// in\n    tag_38:\n      mload(0x40)\n      tag_42\n      swap2\n      swap1\n      tag_43\n      jump\t// in\n    tag_42:\n      mload(0x40)\n      dup1\n      swap2\n      sub\n      swap1\n      return\n        /* \"EtherVault.sol\":1225:1266  uint public constant LOCK_PERIOD = 2 days */\n    tag_5:\n      callvalue\n      dup1\n      iszero\n      tag_44\n      jumpi\n      0x00\n      dup1\n      revert\n    tag_44:\n      pop\n      tag_45\n      tag_46\n      jump\t// in\n    tag_45:\n      mload(0x40)\n      tag_47\n      swap2\n      swap1\n      tag_36\n      jump\t// in\n    tag_47:\n      mload(0x40)\n      dup1\n      swap2\n      sub\n      swap1\n      return\n        /* \"EtherVault.sol\":5206:5685  function canWithdraw(address _user) external view returns (bool) {... */\n    tag_6:\n      callvalue\n      dup1\n      iszero\n      tag_48\n      jumpi\n      0x00\n      dup1\n      revert\n    tag_48:\n      pop\n      tag_49\n      0x04\n      dup1\n      calldatasize\n      sub\n      dup2\n      add\n      swap1\n      tag_50\n      swap2\n      swap1\n      tag_40\n      jump\t// in\n    tag_50:\n      tag_51\n      jump\t// in\n    tag_49:\n      mload(0x40)\n      tag_52\n      swap2\n      swap1\n      tag_43\n      jump\t// in\n    tag_52:\n      mload(0x40)\n      dup1\n      swap2\n      sub\n      swap1\n      return\n        /* \"EtherVault.sol\":1825:1866  mapping(address => uint) public etherSent */\n    tag_7:\n      callvalue\n      dup1\n      iszero\n      tag_53\n      jumpi\n      0x00\n      dup1\n      revert\n    tag_53:\n      pop\n      tag_54\n      0x04\n      dup1\n      calldatasize\n      sub\n      dup2\n      add\n      swap1\n      tag_55\n      swap2\n      swap1\n      tag_40\n      jump\t// in\n    tag_55:\n      tag_56\n      jump\t// in\n    tag_54:\n      mload(0x40)\n      tag_57\n      swap2\n      swap1\n      tag_36\n      jump\t// in\n    tag_57:\n      mload(0x40)\n      dup1\n      swap2\n      sub\n      swap1\n      return\n        /* \"EtherVault.sol\":2137:2167  uint public lastWithdrawalTime */\n    tag_8:\n      callvalue\n      dup1\n      iszero\n      tag_58\n      jumpi\n      0x00\n      dup1\n      revert\n    tag_58:\n      pop\n      tag_59\n      tag_60\n      jump\t// in\n    tag_59:\n      mload(0x40)\n      tag_61\n      swap2\n      swap1\n      tag_36\n      jump\t// in\n    tag_61:\n      mload(0x40)\n      dup1\n      swap2\n      sub\n      swap1\n      return\n        /* \"EtherVault.sol\":2102:2131  address public lastWithdrawer */\n    tag_9:\n      callvalue\n      dup1\n      iszero\n      tag_62\n      jumpi\n      0x00\n      dup1\n      revert\n    tag_62:\n      pop\n      tag_63\n      tag_64\n      jump\t// in\n    tag_63:\n      mload(0x40)\n      tag_65\n      swap2\n      swap1\n      tag_66\n      jump\t// in\n    tag_65:\n      mload(0x40)\n      dup1\n      swap2\n      sub\n      swap1\n      return\n        /* \"EtherVault.sol\":1955:2000  mapping(address => bool) public isWhitelisted */\n    tag_10:\n      callvalue\n      dup1\n      iszero\n      tag_67\n      jumpi\n      0x00\n      dup1\n      revert\n    tag_67:\n      pop\n      tag_68\n      0x04\n      dup1\n      calldatasize\n      sub\n      dup2\n      add\n      swap1\n      tag_69\n      swap2\n      swap1\n      tag_40\n      jump\t// in\n    tag_69:\n      tag_70\n      jump\t// in\n    tag_68:\n      mload(0x40)\n      tag_71\n      swap2\n      swap1\n      tag_43\n      jump\t// in\n    tag_71:\n      mload(0x40)\n      dup1\n      swap2\n      sub\n      swap1\n      return\n        /* \"EtherVault.sol\":5782:6503  function withdraw() external {... */\n    tag_11:\n      callvalue\n      dup1\n      iszero\n      tag_72\n      jumpi\n      0x00\n      dup1\n      revert\n    tag_72:\n      pop\n      tag_73\n      tag_74\n      jump\t// in\n    tag_73:\n      stop\n        /* \"EtherVault.sol\":3206:3443  function removeFromWhitelist(address[] calldata _users) external onlyOwner {... */\n    tag_12:\n      callvalue\n      dup1\n      iszero\n      tag_75\n      jumpi\n      0x00\n      dup1\n      revert\n    tag_75:\n      pop\n      tag_76\n      0x04\n      dup1\n      calldatasize\n      sub\n      dup2\n      add\n      swap1\n      tag_77\n      swap2\n      swap1\n      tag_78\n      jump\t// in\n    tag_77:\n      tag_79\n      jump\t// in\n    tag_76:\n      stop\n        /* \"EtherVault.sol\":1872:1918  mapping(address => uint) public etherWithdrawn */\n    tag_13:\n      callvalue\n      dup1\n      iszero\n      tag_80\n      jumpi\n      0x00\n      dup1\n      revert\n    tag_80:\n      pop\n      tag_81\n      0x04\n      dup1\n      calldatasize\n      sub\n      dup2\n      add\n      swap1\n      tag_82\n      swap2\n      swap1\n      tag_40\n      jump\t// in\n    tag_82:\n      tag_83\n      jump\t// in\n    tag_81:\n      mload(0x40)\n      tag_84\n      swap2\n      swap1\n      tag_36\n      jump\t// in\n    tag_84:\n      mload(0x40)\n      dup1\n      swap2\n      sub\n      swap1\n      return\n        /* \"EtherVault.sol\":2826:3056  function addToWhitelist(address[] calldata _users) external onlyOwner {... */\n    tag_14:\n      callvalue\n      dup1\n      iszero\n      tag_85\n      jumpi\n      0x00\n      dup1\n      revert\n    tag_85:\n      pop\n      tag_86\n      0x04\n      dup1\n      calldatasize\n      sub\n      dup2\n      add\n      swap1\n      tag_87\n      swap2\n      swap1\n      tag_78\n      jump\t// in\n    tag_87:\n      tag_88\n      jump\t// in\n    tag_86:\n      stop\n        /* \"EtherVault.sol\":1086:1106  address public owner */\n    tag_15:\n      callvalue\n      dup1\n      iszero\n      tag_89\n      jumpi\n      0x00\n      dup1\n      revert\n    tag_89:\n      pop\n      tag_90\n      tag_91\n      jump\t// in\n    tag_90:\n      mload(0x40)\n      tag_92\n      swap2\n      swap1\n      tag_66\n      jump\t// in\n    tag_92:\n      mload(0x40)\n      dup1\n      swap2\n      sub\n      swap1\n      return\n        /* \"EtherVault.sol\":1557:1612  uint public constant BIG_SPENDER_THRESHOLD = 0.03 ether */\n    tag_16:\n      callvalue\n      dup1\n      iszero\n      tag_93\n      jumpi\n      0x00\n      dup1\n      revert\n    tag_93:\n      pop\n      tag_94\n      tag_95\n      jump\t// in\n    tag_94:\n      mload(0x40)\n      tag_96\n      swap2\n      swap1\n      tag_36\n      jump\t// in\n    tag_96:\n      mload(0x40)\n      dup1\n      swap2\n      sub\n      swap1\n      return\n        /* \"EtherVault.sol\":1651:1759  bytes32 public constant MAGIC_WORD_HASH = 0xe12a28df6f8731c94ade6605c8f457c16b3f591ecc3be3d092af1f56215a3da2 */\n    tag_17:\n      callvalue\n      dup1\n      iszero\n      tag_97\n      jumpi\n      0x00\n      dup1\n      revert\n    tag_97:\n      pop\n      tag_98\n      tag_99\n      jump\t// in\n    tag_98:\n      mload(0x40)\n      tag_100\n      swap2\n      swap1\n      tag_101\n      jump\t// in\n    tag_100:\n      mload(0x40)\n      dup1\n      swap2\n      sub\n      swap1\n      return\n        /* \"EtherVault.sol\":2006:2054  mapping(address => bool) public guessedMagicWord */\n    tag_18:\n      callvalue\n      dup1\n      iszero\n      tag_102\n      jumpi\n      0x00\n      dup1\n      revert\n    tag_102:\n      pop\n      tag_103\n      0x04\n      dup1\n      calldatasize\n      sub\n      dup2\n      add\n      swap1\n      tag_104\n      swap2\n      swap1\n      tag_40\n      jump\t// in\n    tag_104:\n      tag_105\n      jump\t// in\n    tag_103:\n      mload(0x40)\n      tag_106\n      swap2\n      swap1\n      tag_43\n      jump\t// in\n    tag_106:\n      mload(0x40)\n      dup1\n      swap2\n      sub\n      swap1\n      return\n        /* \"EtherVault.sol\":1442:1499  uint public constant BIG_SPENDER_WITHDRAWAL = 0.003 ether */\n    tag_19:\n      callvalue\n      dup1\n      iszero\n      tag_107\n      jumpi\n      0x00\n      dup1\n      revert\n    tag_107:\n      pop\n      tag_108\n      tag_109\n      jump\t// in\n    tag_108:\n      mload(0x40)\n      tag_110\n      swap2\n      swap1\n      tag_36\n      jump\t// in\n    tag_110:\n      mload(0x40)\n      dup1\n      swap2\n      sub\n      swap1\n      return\n        /* \"EtherVault.sol\":4197:4390  function guessMagicWord(string memory _word) external {... */\n    tag_20:\n      callvalue\n      dup1\n      iszero\n      tag_111\n      jumpi\n      0x00\n      dup1\n      revert\n    tag_111:\n      pop\n      tag_112\n      0x04\n      dup1\n      calldatasize\n      sub\n      dup2\n      add\n      swap1\n      tag_113\n      swap2\n      swap1\n      tag_114\n      jump\t// in\n    tag_113:\n      tag_115\n      jump\t// in\n    tag_112:\n      stop\n        /* \"EtherVault.sol\":1316:1374  uint public constant WHITELISTED_WITHDRAWAL = 0.0005 ether */\n    tag_21:\n      callvalue\n      dup1\n      iszero\n      tag_116\n      jumpi\n      0x00\n      dup1\n      revert\n    tag_116:\n      pop\n      tag_117\n      tag_118\n      jump\t// in\n    tag_117:\n      mload(0x40)\n      tag_119\n      swap2\n      swap1\n      tag_36\n      jump\t// in\n    tag_119:\n      mload(0x40)\n      dup1\n      swap2\n      sub\n      swap1\n      return\n        /* \"EtherVault.sol\":4578:5007  function getWithdrawalLimit(address _user) public view returns (uint) {... */\n    tag_22:\n      callvalue\n      dup1\n      iszero\n      tag_120\n      jumpi\n      0x00\n      dup1\n      revert\n    tag_120:\n      pop\n      tag_121\n      0x04\n      dup1\n      calldatasize\n      sub\n      dup2\n      add\n      swap1\n      tag_122\n      swap2\n      swap1\n      tag_40\n      jump\t// in\n    tag_122:\n      tag_123\n      jump\t// in\n    tag_121:\n      mload(0x40)\n      tag_124\n      swap2\n      swap1\n      tag_36\n      jump\t// in\n    tag_124:\n      mload(0x40)\n      dup1\n      swap2\n      sub\n      swap1\n      return\n        /* \"EtherVault.sol\":3881:4060  function deposit() external payable {... */\n    tag_23:\n      tag_125\n      tag_126\n      jump\t// in\n    tag_125:\n      stop\n        /* \"EtherVault.sol\":1175:1219  uint public deploymentTime = block.timestamp */\n    tag_24:\n      callvalue\n      dup1\n      iszero\n      tag_127\n      jumpi\n      0x00\n      dup1\n      revert\n    tag_127:\n      pop\n      tag_128\n      tag_129\n      jump\t// in\n    tag_128:\n      mload(0x40)\n      tag_130\n      swap2\n      swap1\n      tag_36\n      jump\t// in\n    tag_130:\n      mload(0x40)\n      dup1\n      swap2\n      sub\n      swap1\n      return\n        /* \"EtherVault.sol\":6619:6720  function getVaultBalance() external view returns (uint) {... */\n    tag_25:\n      callvalue\n      dup1\n      iszero\n      tag_131\n      jumpi\n      0x00\n      dup1\n      revert\n    tag_131:\n      pop\n      tag_132\n      tag_133\n      jump\t// in\n    tag_132:\n      mload(0x40)\n      tag_134\n      swap2\n      swap1\n      tag_36\n      jump\t// in\n    tag_134:\n      mload(0x40)\n      dup1\n      swap2\n      sub\n      swap1\n      return\n        /* \"EtherVault.sol\":1380:1436  uint public constant MAGIC_WORD_WITHDRAWAL = 0.001 ether */\n    tag_26:\n      callvalue\n      dup1\n      iszero\n      tag_135\n      jumpi\n      0x00\n      dup1\n      revert\n    tag_135:\n      pop\n      tag_136\n      tag_137\n      jump\t// in\n    tag_136:\n      mload(0x40)\n      tag_138\n      swap2\n      swap1\n      tag_36\n      jump\t// in\n    tag_138:\n      mload(0x40)\n      dup1\n      swap2\n      sub\n      swap1\n      return\n        /* \"EtherVault.sol\":2173:2220  uint public constant WITHDRAWAL_DELAY = 1 hours */\n    tag_34:\n        /* \"EtherVault.sol\":2213:2220  1 hours */\n      0x0e10\n        /* \"EtherVault.sol\":2173:2220  uint public constant WITHDRAWAL_DELAY = 1 hours */\n      dup2\n      jump\t// out\n        /* \"EtherVault.sol\":3628:3746  function checkWhitelistStatus(address _user) external view returns (bool) {... */\n    tag_41:\n        /* \"EtherVault.sol\":3696:3700  bool */\n      0x00\n        /* \"EtherVault.sol\":3719:3732  isWhitelisted */\n      0x04\n        /* \"EtherVault.sol\":3719:3739  isWhitelisted[_user] */\n      0x00\n        /* \"EtherVault.sol\":3733:3738  _user */\n      dup4\n        /* \"EtherVault.sol\":3719:3739  isWhitelisted[_user] */\n      0xffffffffffffffffffffffffffffffffffffffff\n      and\n      0xffffffffffffffffffffffffffffffffffffffff\n      and\n      dup2\n      mstore\n      0x20\n      add\n      swap1\n      dup2\n      mstore\n      0x20\n      add\n      0x00\n      keccak256\n      0x00\n      swap1\n      sload\n      swap1\n      0x0100\n      exp\n      swap1\n      div\n      0xff\n      and\n        /* \"EtherVault.sol\":3712:3739  return isWhitelisted[_user] */\n      swap1\n      pop\n        /* \"EtherVault.sol\":3628:3746  function checkWhitelistStatus(address _user) external view returns (bool) {... */\n      swap2\n      swap1\n      pop\n      jump\t// out\n        /* \"EtherVault.sol\":1225:1266  uint public constant LOCK_PERIOD = 2 days */\n    tag_46:\n        /* \"EtherVault.sol\":1260:1266  2 days */\n      0x02a300\n        /* \"EtherVault.sol\":1225:1266  uint public constant LOCK_PERIOD = 2 days */\n      dup2\n      jump\t// out\n        /* \"EtherVault.sol\":5206:5685  function canWithdraw(address _user) external view returns (bool) {... */\n    tag_51:\n        /* \"EtherVault.sol\":5265:5269  bool */\n      0x00\n        /* \"EtherVault.sol\":1260:1266  2 days */\n      0x02a300\n        /* \"EtherVault.sol\":5303:5317  deploymentTime */\n      sload(0x01)\n        /* \"EtherVault.sol\":5303:5331  deploymentTime + LOCK_PERIOD */\n      tag_141\n      swap2\n      swap1\n      tag_142\n      jump\t// in\n    tag_141:\n        /* \"EtherVault.sol\":5285:5300  block.timestamp */\n      timestamp\n        /* \"EtherVault.sol\":5285:5331  block.timestamp < deploymentTime + LOCK_PERIOD */\n      lt\n        /* \"EtherVault.sol\":5281:5370  if (block.timestamp < deploymentTime + LOCK_PERIOD) {... */\n      iszero\n      tag_143\n      jumpi\n        /* \"EtherVault.sol\":5354:5359  false */\n      0x00\n        /* \"EtherVault.sol\":5347:5359  return false */\n      swap1\n      pop\n      jump(tag_140)\n        /* \"EtherVault.sol\":5281:5370  if (block.timestamp < deploymentTime + LOCK_PERIOD) {... */\n    tag_143:\n        /* \"EtherVault.sol\":5392:5406  lastWithdrawer */\n      0x06\n      0x00\n      swap1\n      sload\n      swap1\n      0x0100\n      exp\n      swap1\n      div\n      0xffffffffffffffffffffffffffffffffffffffff\n      and\n        /* \"EtherVault.sol\":5383:5406  _user == lastWithdrawer */\n      0xffffffffffffffffffffffffffffffffffffffff\n      and\n        /* \"EtherVault.sol\":5383:5388  _user */\n      dup3\n        /* \"EtherVault.sol\":5383:5406  _user == lastWithdrawer */\n      0xffffffffffffffffffffffffffffffffffffffff\n      and\n      eq\n        /* \"EtherVault.sol\":5383:5465  _user == lastWithdrawer && block.timestamp < lastWithdrawalTime + WITHDRAWAL_DELAY */\n      dup1\n      iszero\n      tag_144\n      jumpi\n      pop\n        /* \"EtherVault.sol\":2213:2220  1 hours */\n      0x0e10\n        /* \"EtherVault.sol\":5428:5446  lastWithdrawalTime */\n      sload(0x07)\n        /* \"EtherVault.sol\":5428:5465  lastWithdrawalTime + WITHDRAWAL_DELAY */\n      tag_145\n      swap2\n      swap1\n      tag_142\n      jump\t// in\n    tag_145:\n        /* \"EtherVault.sol\":5410:5425  block.timestamp */\n      timestamp\n        /* \"EtherVault.sol\":5410:5465  block.timestamp < lastWithdrawalTime + WITHDRAWAL_DELAY */\n      lt\n        /* \"EtherVault.sol\":5383:5465  _user == lastWithdrawer && block.timestamp < lastWithdrawalTime + WITHDRAWAL_DELAY */\n    tag_144:\n        /* \"EtherVault.sol\":5379:5504  if (_user == lastWithdrawer && block.timestamp < lastWithdrawalTime + WITHDRAWAL_DELAY) {... */\n      iszero\n      tag_146\n      jumpi\n        /* \"EtherVault.sol\":5488:5493  false */\n      0x00\n        /* \"EtherVault.sol\":5481:5493  return false */\n      swap1\n      pop\n      jump(tag_140)\n        /* \"EtherVault.sol\":5379:5504  if (_user == lastWithdrawer && block.timestamp < lastWithdrawalTime + WITHDRAWAL_DELAY) {... */\n    tag_146:\n        /* \"EtherVault.sol\":5518:5531  isWhitelisted */\n      0x04\n        /* \"EtherVault.sol\":5518:5538  isWhitelisted[_user] */\n      0x00\n        /* \"EtherVault.sol\":5532:5537  _user */\n      dup4\n        /* \"EtherVault.sol\":5518:5538  isWhitelisted[_user] */\n      0xffffffffffffffffffffffffffffffffffffffff\n      and\n      0xffffffffffffffffffffffffffffffffffffffff\n      and\n      dup2\n      mstore\n      0x20\n      add\n      swap1\n      dup2\n      mstore\n      0x20\n      add\n      0x00\n      keccak256\n      0x00\n      swap1\n      sload\n      swap1\n      0x0100\n      exp\n      swap1\n      div\n      0xff\n      and\n        /* \"EtherVault.sol\":5517:5538  !isWhitelisted[_user] */\n      iszero\n        /* \"EtherVault.sol\":5517:5566  !isWhitelisted[_user] && !guessedMagicWord[_user] */\n      dup1\n      iszero\n      tag_147\n      jumpi\n      pop\n        /* \"EtherVault.sol\":5543:5559  guessedMagicWord */\n      0x05\n        /* \"EtherVault.sol\":5543:5566  guessedMagicWord[_user] */\n      0x00\n        /* \"EtherVault.sol\":5560:5565  _user */\n      dup4\n        /* \"EtherVault.sol\":5543:5566  guessedMagicWord[_user] */\n      0xffffffffffffffffffffffffffffffffffffffff\n      and\n      0xffffffffffffffffffffffffffffffffffffffff\n      and\n      dup2\n      mstore\n      0x20\n      add\n      swap1\n      dup2\n      mstore\n      0x20\n      add\n      0x00\n      keccak256\n      0x00\n      swap1\n      sload\n      swap1\n      0x0100\n      exp\n      swap1\n      div\n      0xff\n      and\n        /* \"EtherVault.sol\":5542:5566  !guessedMagicWord[_user] */\n      iszero\n        /* \"EtherVault.sol\":5517:5566  !isWhitelisted[_user] && !guessedMagicWord[_user] */\n    tag_147:\n        /* \"EtherVault.sol\":5517:5610  !isWhitelisted[_user] && !guessedMagicWord[_user] && etherSent[_user] < BIG_SPENDER_THRESHOLD */\n      dup1\n      iszero\n      tag_148\n      jumpi\n      pop\n        /* \"EtherVault.sol\":1602:1612  0.03 ether */\n      0x6a94d74f430000\n        /* \"EtherVault.sol\":5570:5579  etherSent */\n      0x02\n        /* \"EtherVault.sol\":5570:5586  etherSent[_user] */\n      0x00\n        /* \"EtherVault.sol\":5580:5585  _user */\n      dup5\n        /* \"EtherVault.sol\":5570:5586  etherSent[_user] */\n      0xffffffffffffffffffffffffffffffffffffffff\n      and\n      0xffffffffffffffffffffffffffffffffffffffff\n      and\n      dup2\n      mstore\n      0x20\n      add\n      swap1\n      dup2\n      mstore\n      0x20\n      add\n      0x00\n      keccak256\n      sload\n        /* \"EtherVault.sol\":5570:5610  etherSent[_user] < BIG_SPENDER_THRESHOLD */\n      lt\n        /* \"EtherVault.sol\":5517:5610  !isWhitelisted[_user] && !guessedMagicWord[_user] && etherSent[_user] < BIG_SPENDER_THRESHOLD */\n    tag_148:\n        /* \"EtherVault.sol\":5513:5649  if (!isWhitelisted[_user] && !guessedMagicWord[_user] && etherSent[_user] < BIG_SPENDER_THRESHOLD) {... */\n      iszero\n      tag_149\n      jumpi\n        /* \"EtherVault.sol\":5633:5638  false */\n      0x00\n        /* \"EtherVault.sol\":5626:5638  return false */\n      swap1\n      pop\n      jump(tag_140)\n        /* \"EtherVault.sol\":5513:5649  if (!isWhitelisted[_user] && !guessedMagicWord[_user] && etherSent[_user] < BIG_SPENDER_THRESHOLD) {... */\n    tag_149:\n        /* \"EtherVault.sol\":5674:5678  true */\n      0x01\n        /* \"EtherVault.sol\":5667:5678  return true */\n      swap1\n      pop\n        /* \"EtherVault.sol\":5206:5685  function canWithdraw(address _user) external view returns (bool) {... */\n    tag_140:\n      swap2\n      swap1\n      pop\n      jump\t// out\n        /* \"EtherVault.sol\":1825:1866  mapping(address => uint) public etherSent */\n    tag_56:\n      mstore(0x20, 0x02)\n      dup1\n      0x00\n      mstore\n      keccak256(0x00, 0x40)\n      0x00\n      swap2\n      pop\n      swap1\n      pop\n      sload\n      dup2\n      jump\t// out\n        /* \"EtherVault.sol\":2137:2167  uint public lastWithdrawalTime */\n    tag_60:\n      sload(0x07)\n      dup2\n      jump\t// out\n        /* \"EtherVault.sol\":2102:2131  address public lastWithdrawer */\n    tag_64:\n      0x06\n      0x00\n      swap1\n      sload\n      swap1\n      0x0100\n      exp\n      swap1\n      div\n      0xffffffffffffffffffffffffffffffffffffffff\n      and\n      dup2\n      jump\t// out\n        /* \"EtherVault.sol\":1955:2000  mapping(address => bool) public isWhitelisted */\n    tag_70:\n      mstore(0x20, 0x04)\n      dup1\n      0x00\n      mstore\n      keccak256(0x00, 0x40)\n      0x00\n      swap2\n      pop\n      sload\n      swap1\n      0x0100\n      exp\n      swap1\n      div\n      0xff\n      and\n      dup2\n      jump\t// out\n        /* \"EtherVault.sol\":5782:6503  function withdraw() external {... */\n    tag_74:\n        /* \"EtherVault.sol\":1260:1266  2 days */\n      0x02a300\n        /* \"EtherVault.sol\":5848:5862  deploymentTime */\n      sload(0x01)\n        /* \"EtherVault.sol\":5848:5876  deploymentTime + LOCK_PERIOD */\n      tag_151\n      swap2\n      swap1\n      tag_142\n      jump\t// in\n    tag_151:\n        /* \"EtherVault.sol\":5829:5844  block.timestamp */\n      timestamp\n        /* \"EtherVault.sol\":5829:5876  block.timestamp >= deploymentTime + LOCK_PERIOD */\n      lt\n      iszero\n        /* \"EtherVault.sol\":5821:5903  require(block.timestamp >= deploymentTime + LOCK_PERIOD, \"Withdrawals are locked\") */\n      tag_152\n      jumpi\n      mload(0x40)\n      0x08c379a000000000000000000000000000000000000000000000000000000000\n      dup2\n      mstore\n      0x04\n      add\n      tag_153\n      swap1\n      tag_154\n      jump\t// in\n    tag_153:\n      mload(0x40)\n      dup1\n      swap2\n      sub\n      swap1\n      revert\n    tag_152:\n        /* \"EtherVault.sol\":5948:5962  lastWithdrawer */\n      0x06\n      0x00\n      swap1\n      sload\n      swap1\n      0x0100\n      exp\n      swap1\n      div\n      0xffffffffffffffffffffffffffffffffffffffff\n      and\n        /* \"EtherVault.sol\":5934:5962  msg.sender != lastWithdrawer */\n      0xffffffffffffffffffffffffffffffffffffffff\n      and\n        /* \"EtherVault.sol\":5934:5944  msg.sender */\n      caller\n        /* \"EtherVault.sol\":5934:5962  msg.sender != lastWithdrawer */\n      0xffffffffffffffffffffffffffffffffffffffff\n      and\n      eq\n      iszero\n        /* \"EtherVault.sol\":5934:6022  msg.sender != lastWithdrawer || block.timestamp >= lastWithdrawalTime + WITHDRAWAL_DELAY */\n      dup1\n      tag_155\n      jumpi\n      pop\n        /* \"EtherVault.sol\":2213:2220  1 hours */\n      0x0e10\n        /* \"EtherVault.sol\":5985:6003  lastWithdrawalTime */\n      sload(0x07)\n        /* \"EtherVault.sol\":5985:6022  lastWithdrawalTime + WITHDRAWAL_DELAY */\n      tag_156\n      swap2\n      swap1\n      tag_142\n      jump\t// in\n    tag_156:\n        /* \"EtherVault.sol\":5966:5981  block.timestamp */\n      timestamp\n        /* \"EtherVault.sol\":5966:6022  block.timestamp >= lastWithdrawalTime + WITHDRAWAL_DELAY */\n      lt\n      iszero\n        /* \"EtherVault.sol\":5934:6022  msg.sender != lastWithdrawer || block.timestamp >= lastWithdrawalTime + WITHDRAWAL_DELAY */\n    tag_155:\n        /* \"EtherVault.sol\":5913:6080  require(... */\n      tag_157\n      jumpi\n      mload(0x40)\n      0x08c379a000000000000000000000000000000000000000000000000000000000\n      dup2\n      mstore\n      0x04\n      add\n      tag_158\n      swap1\n      tag_159\n      jump\t// in\n    tag_158:\n      mload(0x40)\n      dup1\n      swap2\n      sub\n      swap1\n      revert\n    tag_157:\n        /* \"EtherVault.sol\":6091:6101  uint limit */\n      0x00\n        /* \"EtherVault.sol\":6104:6134  getWithdrawalLimit(msg.sender) */\n      tag_160\n        /* \"EtherVault.sol\":6123:6133  msg.sender */\n      caller\n        /* \"EtherVault.sol\":6104:6122  getWithdrawalLimit */\n      tag_123\n        /* \"EtherVault.sol\":6104:6134  getWithdrawalLimit(msg.sender) */\n      jump\t// in\n    tag_160:\n        /* \"EtherVault.sol\":6091:6134  uint limit = getWithdrawalLimit(msg.sender) */\n      swap1\n      pop\n        /* \"EtherVault.sol\":6177:6182  limit */\n      dup1\n        /* \"EtherVault.sol\":6152:6173  address(this).balance */\n      selfbalance\n        /* \"EtherVault.sol\":6152:6182  address(this).balance >= limit */\n      lt\n      iszero\n        /* \"EtherVault.sol\":6144:6216  require(address(this).balance >= limit, \"Insufficient balance in vault\") */\n      tag_161\n      jumpi\n      mload(0x40)\n      0x08c379a000000000000000000000000000000000000000000000000000000000\n      dup2\n      mstore\n      0x04\n      add\n      tag_162\n      swap1\n      tag_163\n      jump\t// in\n    tag_162:\n      mload(0x40)\n      dup1\n      swap2\n      sub\n      swap1\n      revert\n    tag_161:\n        /* \"EtherVault.sol\":6244:6254  msg.sender */\n      caller\n        /* \"EtherVault.sol\":6227:6241  lastWithdrawer */\n      0x06\n      0x00\n        /* \"EtherVault.sol\":6227:6254  lastWithdrawer = msg.sender */\n      0x0100\n      exp\n      dup2\n      sload\n      dup2\n      0xffffffffffffffffffffffffffffffffffffffff\n      mul\n      not\n      and\n      swap1\n      dup4\n      0xffffffffffffffffffffffffffffffffffffffff\n      and\n      mul\n      or\n      swap1\n      sstore\n      pop\n        /* \"EtherVault.sol\":6285:6300  block.timestamp */\n      timestamp\n        /* \"EtherVault.sol\":6264:6282  lastWithdrawalTime */\n      0x07\n        /* \"EtherVault.sol\":6264:6300  lastWithdrawalTime = block.timestamp */\n      dup2\n      swap1\n      sstore\n      pop\n        /* \"EtherVault.sol\":6341:6346  limit */\n      dup1\n        /* \"EtherVault.sol\":6311:6325  etherWithdrawn */\n      0x03\n        /* \"EtherVault.sol\":6311:6337  etherWithdrawn[msg.sender] */\n      0x00\n        /* \"EtherVault.sol\":6326:6336  msg.sender */\n      caller\n        /* \"EtherVault.sol\":6311:6337  etherWithdrawn[msg.sender] */\n      0xffffffffffffffffffffffffffffffffffffffff\n      and\n      0xffffffffffffffffffffffffffffffffffffffff\n      and\n      dup2\n      mstore\n      0x20\n      add\n      swap1\n      dup2\n      mstore\n      0x20\n      add\n      0x00\n      keccak256\n      0x00\n        /* \"EtherVault.sol\":6311:6346  etherWithdrawn[msg.sender] += limit */\n      dup3\n      dup3\n      sload\n      tag_164\n      swap2\n      swap1\n      tag_142\n      jump\t// in\n    tag_164:\n      swap3\n      pop\n      pop\n      dup2\n      swap1\n      sstore\n      pop\n        /* \"EtherVault.sol\":6357:6366  bool sent */\n      0x00\n        /* \"EtherVault.sol\":6372:6382  msg.sender */\n      caller\n        /* \"EtherVault.sol\":6372:6387  msg.sender.call */\n      0xffffffffffffffffffffffffffffffffffffffff\n      and\n        /* \"EtherVault.sol\":6395:6400  limit */\n      dup3\n        /* \"EtherVault.sol\":6372:6405  msg.sender.call{value: limit}(\"\") */\n      mload(0x40)\n      tag_165\n      swap1\n      tag_166\n      jump\t// in\n    tag_165:\n      0x00\n      mload(0x40)\n      dup1\n      dup4\n      sub\n      dup2\n      dup6\n      dup8\n      gas\n      call\n      swap3\n      pop\n      pop\n      pop\n      returndatasize\n      dup1\n      0x00\n      dup2\n      eq\n      tag_169\n      jumpi\n      mload(0x40)\n      swap2\n      pop\n      and(add(returndatasize, 0x3f), not(0x1f))\n      dup3\n      add\n      0x40\n      mstore\n      returndatasize\n      dup3\n      mstore\n      returndatasize\n      0x00\n      0x20\n      dup5\n      add\n      returndatacopy\n      jump(tag_168)\n    tag_169:\n      0x60\n      swap2\n      pop\n    tag_168:\n      pop\n        /* \"EtherVault.sol\":6356:6405  (bool sent, ) = msg.sender.call{value: limit}(\"\") */\n      pop\n      swap1\n      pop\n        /* \"EtherVault.sol\":6423:6427  sent */\n      dup1\n        /* \"EtherVault.sol\":6415:6452  require(sent, \"Failed to send Ether\") */\n      tag_170\n      jumpi\n      mload(0x40)\n      0x08c379a000000000000000000000000000000000000000000000000000000000\n      dup2\n      mstore\n      0x04\n      add\n      tag_171\n      swap1\n      tag_172\n      jump\t// in\n    tag_171:\n      mload(0x40)\n      dup1\n      swap2\n      sub\n      swap1\n      revert\n    tag_170:\n        /* \"EtherVault.sol\":6478:6488  msg.sender */\n      caller\n        /* \"EtherVault.sol\":6468:6496  Withdrawn(msg.sender, limit) */\n      0xffffffffffffffffffffffffffffffffffffffff\n      and\n      0x7084f5476618d8e60b11ef0d7d3f06914655adb8793e28ff7f018d4c76d505d5\n        /* \"EtherVault.sol\":6490:6495  limit */\n      dup4\n        /* \"EtherVault.sol\":6468:6496  Withdrawn(msg.sender, limit) */\n      mload(0x40)\n      tag_173\n      swap2\n      swap1\n      tag_36\n      jump\t// in\n    tag_173:\n      mload(0x40)\n      dup1\n      swap2\n      sub\n      swap1\n      log2\n        /* \"EtherVault.sol\":5811:6503  {... */\n      pop\n      pop\n        /* \"EtherVault.sol\":5782:6503  function withdraw() external {... */\n      jump\t// out\n        /* \"EtherVault.sol\":3206:3443  function removeFromWhitelist(address[] calldata _users) external onlyOwner {... */\n    tag_79:\n        /* \"EtherVault.sol\":2636:2641  owner */\n      0x00\n      dup1\n      sload\n      swap1\n      0x0100\n      exp\n      swap1\n      div\n      0xffffffffffffffffffffffffffffffffffffffff\n      and\n        /* \"EtherVault.sol\":2622:2641  msg.sender == owner */\n      0xffffffffffffffffffffffffffffffffffffffff\n      and\n        /* \"EtherVault.sol\":2622:2632  msg.sender */\n      caller\n        /* \"EtherVault.sol\":2622:2641  msg.sender == owner */\n      0xffffffffffffffffffffffffffffffffffffffff\n      and\n      eq\n        /* \"EtherVault.sol\":2614:2679  require(msg.sender == owner, \"Only owner can call this function\") */\n      tag_175\n      jumpi\n      mload(0x40)\n      0x08c379a000000000000000000000000000000000000000000000000000000000\n      dup2\n      mstore\n      0x04\n      add\n      tag_176\n      swap1\n      tag_177\n      jump\t// in\n    tag_176:\n      mload(0x40)\n      dup1\n      swap2\n      sub\n      swap1\n      revert\n    tag_175:\n        /* \"EtherVault.sol\":3296:3302  uint i */\n      0x00\n        /* \"EtherVault.sol\":3291:3437  for (uint i = 0; i < _users.length; i++) {... */\n    tag_179:\n        /* \"EtherVault.sol\":3312:3318  _users */\n      dup3\n      dup3\n        /* \"EtherVault.sol\":3312:3325  _users.length */\n      swap1\n      pop\n        /* \"EtherVault.sol\":3308:3309  i */\n      dup2\n        /* \"EtherVault.sol\":3308:3325  i < _users.length */\n      lt\n        /* \"EtherVault.sol\":3291:3437  for (uint i = 0; i < _users.length; i++) {... */\n      iszero\n      tag_180\n      jumpi\n        /* \"EtherVault.sol\":3373:3378  false */\n      0x00\n        /* \"EtherVault.sol\":3346:3359  isWhitelisted */\n      0x04\n        /* \"EtherVault.sol\":3346:3370  isWhitelisted[_users[i]] */\n      0x00\n        /* \"EtherVault.sol\":3360:3366  _users */\n      dup6\n      dup6\n        /* \"EtherVault.sol\":3367:3368  i */\n      dup6\n        /* \"EtherVault.sol\":3360:3369  _users[i] */\n      dup2\n      dup2\n      lt\n      tag_182\n      jumpi\n      tag_183\n      tag_184\n      jump\t// in\n    tag_183:\n    tag_182:\n      swap1\n      pop\n      0x20\n      mul\n      add\n      0x20\n      dup2\n      add\n      swap1\n      tag_185\n      swap2\n      swap1\n      tag_40\n      jump\t// in\n    tag_185:\n        /* \"EtherVault.sol\":3346:3370  isWhitelisted[_users[i]] */\n      0xffffffffffffffffffffffffffffffffffffffff\n      and\n      0xffffffffffffffffffffffffffffffffffffffff\n      and\n      dup2\n      mstore\n      0x20\n      add\n      swap1\n      dup2\n      mstore\n      0x20\n      add\n      0x00\n      keccak256\n      0x00\n        /* \"EtherVault.sol\":3346:3378  isWhitelisted[_users[i]] = false */\n      0x0100\n      exp\n      dup2\n      sload\n      dup2\n      0xff\n      mul\n      not\n      and\n      swap1\n      dup4\n      iszero\n      iszero\n      mul\n      or\n      swap1\n      sstore\n      pop\n        /* \"EtherVault.sol\":3409:3415  _users */\n      dup3\n      dup3\n        /* \"EtherVault.sol\":3416:3417  i */\n      dup3\n        /* \"EtherVault.sol\":3409:3418  _users[i] */\n      dup2\n      dup2\n      lt\n      tag_186\n      jumpi\n      tag_187\n      tag_184\n      jump\t// in\n    tag_187:\n    tag_186:\n      swap1\n      pop\n      0x20\n      mul\n      add\n      0x20\n      dup2\n      add\n      swap1\n      tag_188\n      swap2\n      swap1\n      tag_40\n      jump\t// in\n    tag_188:\n        /* \"EtherVault.sol\":3397:3426  Whitelisted(_users[i], false) */\n      0xffffffffffffffffffffffffffffffffffffffff\n      and\n      0xa54714518c5d275fdcd3d2a461e4858e4e8cb04fb93cd0bca9d6d34115f26440\n        /* \"EtherVault.sol\":3420:3425  false */\n      0x00\n        /* \"EtherVault.sol\":3397:3426  Whitelisted(_users[i], false) */\n      mload(0x40)\n      tag_189\n      swap2\n      swap1\n      tag_43\n      jump\t// in\n    tag_189:\n      mload(0x40)\n      dup1\n      swap2\n      sub\n      swap1\n      log2\n        /* \"EtherVault.sol\":3327:3330  i++ */\n      dup1\n      dup1\n      0x01\n      add\n      swap2\n      pop\n      pop\n        /* \"EtherVault.sol\":3291:3437  for (uint i = 0; i < _users.length; i++) {... */\n      jump(tag_179)\n    tag_180:\n      pop\n        /* \"EtherVault.sol\":3206:3443  function removeFromWhitelist(address[] calldata _users) external onlyOwner {... */\n      pop\n      pop\n      jump\t// out\n        /* \"EtherVault.sol\":1872:1918  mapping(address => uint) public etherWithdrawn */\n    tag_83:\n      mstore(0x20, 0x03)\n      dup1\n      0x00\n      mstore\n      keccak256(0x00, 0x40)\n      0x00\n      swap2\n      pop\n      swap1\n      pop\n      sload\n      dup2\n      jump\t// out\n        /* \"EtherVault.sol\":2826:3056  function addToWhitelist(address[] calldata _users) external onlyOwner {... */\n    tag_88:\n        /* \"EtherVault.sol\":2636:2641  owner */\n      0x00\n      dup1\n      sload\n      swap1\n      0x0100\n      exp\n      swap1\n      div\n      0xffffffffffffffffffffffffffffffffffffffff\n      and\n        /* \"EtherVault.sol\":2622:2641  msg.sender == owner */\n      0xffffffffffffffffffffffffffffffffffffffff\n      and\n        /* \"EtherVault.sol\":2622:2632  msg.sender */\n      caller\n        /* \"EtherVault.sol\":2622:2641  msg.sender == owner */\n      0xffffffffffffffffffffffffffffffffffffffff\n      and\n      eq\n        /* \"EtherVault.sol\":2614:2679  require(msg.sender == owner, \"Only owner can call this function\") */\n      tag_191\n      jumpi\n      mload(0x40)\n      0x08c379a000000000000000000000000000000000000000000000000000000000\n      dup2\n      mstore\n      0x04\n      add\n      tag_192\n      swap1\n      tag_177\n      jump\t// in\n    tag_192:\n      mload(0x40)\n      dup1\n      swap2\n      sub\n      swap1\n      revert\n    tag_191:\n        /* \"EtherVault.sol\":2911:2917  uint i */\n      0x00\n        /* \"EtherVault.sol\":2906:3050  for (uint i = 0; i < _users.length; i++) {... */\n    tag_194:\n        /* \"EtherVault.sol\":2927:2933  _users */\n      dup3\n      dup3\n        /* \"EtherVault.sol\":2927:2940  _users.length */\n      swap1\n      pop\n        /* \"EtherVault.sol\":2923:2924  i */\n      dup2\n        /* \"EtherVault.sol\":2923:2940  i < _users.length */\n      lt\n        /* \"EtherVault.sol\":2906:3050  for (uint i = 0; i < _users.length; i++) {... */\n      iszero\n      tag_195\n      jumpi\n        /* \"EtherVault.sol\":2988:2992  true */\n      0x01\n        /* \"EtherVault.sol\":2961:2974  isWhitelisted */\n      0x04\n        /* \"EtherVault.sol\":2961:2985  isWhitelisted[_users[i]] */\n      0x00\n        /* \"EtherVault.sol\":2975:2981  _users */\n      dup6\n      dup6\n        /* \"EtherVault.sol\":2982:2983  i */\n      dup6\n        /* \"EtherVault.sol\":2975:2984  _users[i] */\n      dup2\n      dup2\n      lt\n      tag_197\n      jumpi\n      tag_198\n      tag_184\n      jump\t// in\n    tag_198:\n    tag_197:\n      swap1\n      pop\n      0x20\n      mul\n      add\n      0x20\n      dup2\n      add\n      swap1\n      tag_199\n      swap2\n      swap1\n      tag_40\n      jump\t// in\n    tag_199:\n        /* \"EtherVault.sol\":2961:2985  isWhitelisted[_users[i]] */\n      0xffffffffffffffffffffffffffffffffffffffff\n      and\n      0xffffffffffffffffffffffffffffffffffffffff\n      and\n      dup2\n      mstore\n      0x20\n      add\n      swap1\n      dup2\n      mstore\n      0x20\n      add\n      0x00\n      keccak256\n      0x00\n        /* \"EtherVault.sol\":2961:2992  isWhitelisted[_users[i]] = true */\n      0x0100\n      exp\n      dup2\n      sload\n      dup2\n      0xff\n      mul\n      not\n      and\n      swap1\n      dup4\n      iszero\n      iszero\n      mul\n      or\n      swap1\n      sstore\n      pop\n        /* \"EtherVault.sol\":3023:3029  _users */\n      dup3\n      dup3\n        /* \"EtherVault.sol\":3030:3031  i */\n      dup3\n        /* \"EtherVault.sol\":3023:3032  _users[i] */\n      dup2\n      dup2\n      lt\n      tag_200\n      jumpi\n      tag_201\n      tag_184\n      jump\t// in\n    tag_201:\n    tag_200:\n      swap1\n      pop\n      0x20\n      mul\n      add\n      0x20\n      dup2\n      add\n      swap1\n      tag_202\n      swap2\n      swap1\n      tag_40\n      jump\t// in\n    tag_202:\n        /* \"EtherVault.sol\":3011:3039  Whitelisted(_users[i], true) */\n      0xffffffffffffffffffffffffffffffffffffffff\n      and\n      0xa54714518c5d275fdcd3d2a461e4858e4e8cb04fb93cd0bca9d6d34115f26440\n        /* \"EtherVault.sol\":3034:3038  true */\n      0x01\n        /* \"EtherVault.sol\":3011:3039  Whitelisted(_users[i], true) */\n      mload(0x40)\n      tag_203\n      swap2\n      swap1\n      tag_43\n      jump\t// in\n    tag_203:\n      mload(0x40)\n      dup1\n      swap2\n      sub\n      swap1\n      log2\n        /* \"EtherVault.sol\":2942:2945  i++ */\n      dup1\n      dup1\n      0x01\n      add\n      swap2\n      pop\n      pop\n        /* \"EtherVault.sol\":2906:3050  for (uint i = 0; i < _users.length; i++) {... */\n      jump(tag_194)\n    tag_195:\n      pop\n        /* \"EtherVault.sol\":2826:3056  function addToWhitelist(address[] calldata _users) external onlyOwner {... */\n      pop\n      pop\n      jump\t// out\n        /* \"EtherVault.sol\":1086:1106  address public owner */\n    tag_91:\n      0x00\n      dup1\n      sload\n      swap1\n      0x0100\n      exp\n      swap1\n      div\n      0xffffffffffffffffffffffffffffffffffffffff\n      and\n      dup2\n      jump\t// out\n        /* \"EtherVault.sol\":1557:1612  uint public constant BIG_SPENDER_THRESHOLD = 0.03 ether */\n    tag_95:\n        /* \"EtherVault.sol\":1602:1612  0.03 ether */\n      0x6a94d74f430000\n        /* \"EtherVault.sol\":1557:1612  uint public constant BIG_SPENDER_THRESHOLD = 0.03 ether */\n      dup2\n      jump\t// out\n        /* \"EtherVault.sol\":1651:1759  bytes32 public constant MAGIC_WORD_HASH = 0xe12a28df6f8731c94ade6605c8f457c16b3f591ecc3be3d092af1f56215a3da2 */\n    tag_99:\n        /* \"EtherVault.sol\":1693:1759  0xe12a28df6f8731c94ade6605c8f457c16b3f591ecc3be3d092af1f56215a3da2 */\n      0xe12a28df6f8731c94ade6605c8f457c16b3f591ecc3be3d092af1f56215a3da2\n        /* \"EtherVault.sol\":1651:1759  bytes32 public constant MAGIC_WORD_HASH = 0xe12a28df6f8731c94ade6605c8f457c16b3f591ecc3be3d092af1f56215a3da2 */\n      0x00\n      shl\n      dup2\n      jump\t// out\n        /* \"EtherVault.sol\":2006:2054  mapping(address => bool) public guessedMagicWord */\n    tag_105:\n      mstore(0x20, 0x05)\n      dup1\n      0x00\n      mstore\n      keccak256(0x00, 0x40)\n      0x00\n      swap2\n      pop\n      sload\n      swap1\n      0x0100\n      exp\n      swap1\n      div\n      0xff\n      and\n      dup2\n      jump\t// out\n        /* \"EtherVault.sol\":1442:1499  uint public constant BIG_SPENDER_WITHDRAWAL = 0.003 ether */\n    tag_109:\n        /* \"EtherVault.sol\":1488:1499  0.003 ether */\n      0x0aa87bee538000\n        /* \"EtherVault.sol\":1442:1499  uint public constant BIG_SPENDER_WITHDRAWAL = 0.003 ether */\n      dup2\n      jump\t// out\n        /* \"EtherVault.sol\":4197:4390  function guessMagicWord(string memory _word) external {... */\n    tag_115:\n        /* \"EtherVault.sol\":1693:1759  0xe12a28df6f8731c94ade6605c8f457c16b3f591ecc3be3d092af1f56215a3da2 */\n      0xe12a28df6f8731c94ade6605c8f457c16b3f591ecc3be3d092af1f56215a3da2\n        /* \"EtherVault.sol\":4307:4322  MAGIC_WORD_HASH */\n      0x00\n      shl\n        /* \"EtherVault.sol\":4296:4301  _word */\n      dup2\n        /* \"EtherVault.sol\":4279:4302  abi.encodePacked(_word) */\n      add(0x20, mload(0x40))\n      tag_205\n      swap2\n      swap1\n      tag_206\n      jump\t// in\n    tag_205:\n      mload(0x40)\n      0x20\n      dup2\n      dup4\n      sub\n      sub\n      dup2\n      mstore\n      swap1\n      0x40\n      mstore\n        /* \"EtherVault.sol\":4269:4303  keccak256(abi.encodePacked(_word)) */\n      dup1\n      mload\n      swap1\n      0x20\n      add\n      keccak256\n        /* \"EtherVault.sol\":4269:4322  keccak256(abi.encodePacked(_word)) == MAGIC_WORD_HASH */\n      eq\n        /* \"EtherVault.sol\":4261:4338  require(keccak256(abi.encodePacked(_word)) == MAGIC_WORD_HASH, \"Wrong guess\") */\n      tag_207\n      jumpi\n      mload(0x40)\n      0x08c379a000000000000000000000000000000000000000000000000000000000\n      dup2\n      mstore\n      0x04\n      add\n      tag_208\n      swap1\n      tag_209\n      jump\t// in\n    tag_208:\n      mload(0x40)\n      dup1\n      swap2\n      sub\n      swap1\n      revert\n    tag_207:\n        /* \"EtherVault.sol\":4379:4383  true */\n      0x01\n        /* \"EtherVault.sol\":4348:4364  guessedMagicWord */\n      0x05\n        /* \"EtherVault.sol\":4348:4376  guessedMagicWord[msg.sender] */\n      0x00\n        /* \"EtherVault.sol\":4365:4375  msg.sender */\n      caller\n        /* \"EtherVault.sol\":4348:4376  guessedMagicWord[msg.sender] */\n      0xffffffffffffffffffffffffffffffffffffffff\n      and\n      0xffffffffffffffffffffffffffffffffffffffff\n      and\n      dup2\n      mstore\n      0x20\n      add\n      swap1\n      dup2\n      mstore\n      0x20\n      add\n      0x00\n      keccak256\n      0x00\n        /* \"EtherVault.sol\":4348:4383  guessedMagicWord[msg.sender] = true */\n      0x0100\n      exp\n      dup2\n      sload\n      dup2\n      0xff\n      mul\n      not\n      and\n      swap1\n      dup4\n      iszero\n      iszero\n      mul\n      or\n      swap1\n      sstore\n      pop\n        /* \"EtherVault.sol\":4197:4390  function guessMagicWord(string memory _word) external {... */\n      pop\n      jump\t// out\n        /* \"EtherVault.sol\":1316:1374  uint public constant WHITELISTED_WITHDRAWAL = 0.0005 ether */\n    tag_118:\n        /* \"EtherVault.sol\":1362:1374  0.0005 ether */\n      0x01c6bf52634000\n        /* \"EtherVault.sol\":1316:1374  uint public constant WHITELISTED_WITHDRAWAL = 0.0005 ether */\n      dup2\n      jump\t// out\n        /* \"EtherVault.sol\":4578:5007  function getWithdrawalLimit(address _user) public view returns (uint) {... */\n    tag_123:\n        /* \"EtherVault.sol\":4642:4646  uint */\n      0x00\n        /* \"EtherVault.sol\":1602:1612  0.03 ether */\n      0x6a94d74f430000\n        /* \"EtherVault.sol\":4662:4671  etherSent */\n      0x02\n        /* \"EtherVault.sol\":4662:4678  etherSent[_user] */\n      0x00\n        /* \"EtherVault.sol\":4672:4677  _user */\n      dup5\n        /* \"EtherVault.sol\":4662:4678  etherSent[_user] */\n      0xffffffffffffffffffffffffffffffffffffffff\n      and\n      0xffffffffffffffffffffffffffffffffffffffff\n      and\n      dup2\n      mstore\n      0x20\n      add\n      swap1\n      dup2\n      mstore\n      0x20\n      add\n      0x00\n      keccak256\n      sload\n        /* \"EtherVault.sol\":4662:4703  etherSent[_user] >= BIG_SPENDER_THRESHOLD */\n      lt\n        /* \"EtherVault.sol\":4658:5001  if (etherSent[_user] >= BIG_SPENDER_THRESHOLD) {... */\n      tag_211\n      jumpi\n        /* \"EtherVault.sol\":1488:1499  0.003 ether */\n      0x0aa87bee538000\n        /* \"EtherVault.sol\":4719:4748  return BIG_SPENDER_WITHDRAWAL */\n      swap1\n      pop\n      jump(tag_210)\n        /* \"EtherVault.sol\":4658:5001  if (etherSent[_user] >= BIG_SPENDER_THRESHOLD) {... */\n    tag_211:\n        /* \"EtherVault.sol\":4769:4785  guessedMagicWord */\n      0x05\n        /* \"EtherVault.sol\":4769:4792  guessedMagicWord[_user] */\n      0x00\n        /* \"EtherVault.sol\":4786:4791  _user */\n      dup4\n        /* \"EtherVault.sol\":4769:4792  guessedMagicWord[_user] */\n      0xffffffffffffffffffffffffffffffffffffffff\n      and\n      0xffffffffffffffffffffffffffffffffffffffff\n      and\n      dup2\n      mstore\n      0x20\n      add\n      swap1\n      dup2\n      mstore\n      0x20\n      add\n      0x00\n      keccak256\n      0x00\n      swap1\n      sload\n      swap1\n      0x0100\n      exp\n      swap1\n      div\n      0xff\n      and\n        /* \"EtherVault.sol\":4765:5001  if (guessedMagicWord[_user]) {... */\n      iszero\n      tag_213\n      jumpi\n        /* \"EtherVault.sol\":1425:1436  0.001 ether */\n      0x038d7ea4c68000\n        /* \"EtherVault.sol\":4808:4836  return MAGIC_WORD_WITHDRAWAL */\n      swap1\n      pop\n      jump(tag_210)\n        /* \"EtherVault.sol\":4765:5001  if (guessedMagicWord[_user]) {... */\n    tag_213:\n        /* \"EtherVault.sol\":4857:4870  isWhitelisted */\n      0x04\n        /* \"EtherVault.sol\":4857:4877  isWhitelisted[_user] */\n      0x00\n        /* \"EtherVault.sol\":4871:4876  _user */\n      dup4\n        /* \"EtherVault.sol\":4857:4877  isWhitelisted[_user] */\n      0xffffffffffffffffffffffffffffffffffffffff\n      and\n      0xffffffffffffffffffffffffffffffffffffffff\n      and\n      dup2\n      mstore\n      0x20\n      add\n      swap1\n      dup2\n      mstore\n      0x20\n      add\n      0x00\n      keccak256\n      0x00\n      swap1\n      sload\n      swap1\n      0x0100\n      exp\n      swap1\n      div\n      0xff\n      and\n        /* \"EtherVault.sol\":4853:5001  if (isWhitelisted[_user]) {... */\n      iszero\n      tag_215\n      jumpi\n        /* \"EtherVault.sol\":1362:1374  0.0005 ether */\n      0x01c6bf52634000\n        /* \"EtherVault.sol\":4893:4922  return WHITELISTED_WITHDRAWAL */\n      swap1\n      pop\n      jump(tag_210)\n        /* \"EtherVault.sol\":4853:5001  if (isWhitelisted[_user]) {... */\n    tag_215:\n        /* \"EtherVault.sol\":4953:4990  revert(\"Not eligible for withdrawal\") */\n      mload(0x40)\n      0x08c379a000000000000000000000000000000000000000000000000000000000\n      dup2\n      mstore\n      0x04\n      add\n      tag_217\n      swap1\n      tag_218\n      jump\t// in\n    tag_217:\n      mload(0x40)\n      dup1\n      swap2\n      sub\n      swap1\n      revert\n        /* \"EtherVault.sol\":4578:5007  function getWithdrawalLimit(address _user) public view returns (uint) {... */\n    tag_210:\n      swap2\n      swap1\n      pop\n      jump\t// out\n        /* \"EtherVault.sol\":3881:4060  function deposit() external payable {... */\n    tag_126:\n        /* \"EtherVault.sol\":1602:1612  0.03 ether */\n      0x6a94d74f430000\n        /* \"EtherVault.sol\":3935:3944  msg.value */\n      callvalue\n        /* \"EtherVault.sol\":3935:3969  msg.value >= BIG_SPENDER_THRESHOLD */\n      lt\n      iszero\n        /* \"EtherVault.sol\":3927:4009  require(msg.value >= BIG_SPENDER_THRESHOLD, \"Deposit must be at least 0.03 ether\") */\n      tag_220\n      jumpi\n      mload(0x40)\n      0x08c379a000000000000000000000000000000000000000000000000000000000\n      dup2\n      mstore\n      0x04\n      add\n      tag_221\n      swap1\n      tag_222\n      jump\t// in\n    tag_221:\n      mload(0x40)\n      dup1\n      swap2\n      sub\n      swap1\n      revert\n    tag_220:\n        /* \"EtherVault.sol\":4044:4053  msg.value */\n      callvalue\n        /* \"EtherVault.sol\":4019:4028  etherSent */\n      0x02\n        /* \"EtherVault.sol\":4019:4040  etherSent[msg.sender] */\n      0x00\n        /* \"EtherVault.sol\":4029:4039  msg.sender */\n      caller\n        /* \"EtherVault.sol\":4019:4040  etherSent[msg.sender] */\n      0xffffffffffffffffffffffffffffffffffffffff\n      and\n      0xffffffffffffffffffffffffffffffffffffffff\n      and\n      dup2\n      mstore\n      0x20\n      add\n      swap1\n      dup2\n      mstore\n      0x20\n      add\n      0x00\n      keccak256\n      0x00\n        /* \"EtherVault.sol\":4019:4053  etherSent[msg.sender] += msg.value */\n      dup3\n      dup3\n      sload\n      tag_223\n      swap2\n      swap1\n      tag_142\n      jump\t// in\n    tag_223:\n      swap3\n      pop\n      pop\n      dup2\n      swap1\n      sstore\n      pop\n        /* \"EtherVault.sol\":3881:4060  function deposit() external payable {... */\n      jump\t// out\n        /* \"EtherVault.sol\":1175:1219  uint public deploymentTime = block.timestamp */\n    tag_129:\n      sload(0x01)\n      dup2\n      jump\t// out\n        /* \"EtherVault.sol\":6619:6720  function getVaultBalance() external view returns (uint) {... */\n    tag_133:\n        /* \"EtherVault.sol\":6669:6673  uint */\n      0x00\n        /* \"EtherVault.sol\":6692:6713  address(this).balance */\n      selfbalance\n        /* \"EtherVault.sol\":6685:6713  return address(this).balance */\n      swap1\n      pop\n        /* \"EtherVault.sol\":6619:6720  function getVaultBalance() external view returns (uint) {... */\n      swap1\n      jump\t// out\n        /* \"EtherVault.sol\":1380:1436  uint public constant MAGIC_WORD_WITHDRAWAL = 0.001 ether */\n    tag_137:\n        /* \"EtherVault.sol\":1425:1436  0.001 ether */\n      0x038d7ea4c68000\n        /* \"EtherVault.sol\":1380:1436  uint public constant MAGIC_WORD_WITHDRAWAL = 0.001 ether */\n      dup2\n      jump\t// out\n        /* \"#utility.yul\":7:84   */\n    tag_225:\n        /* \"#utility.yul\":44:51   */\n      0x00\n        /* \"#utility.yul\":73:78   */\n      dup2\n        /* \"#utility.yul\":62:78   */\n      swap1\n      pop\n        /* \"#utility.yul\":7:84   */\n      swap2\n      swap1\n      pop\n      jump\t// out\n        /* \"#utility.yul\":90:208   */\n    tag_226:\n        /* \"#utility.yul\":177:201   */\n      tag_280\n        /* \"#utility.yul\":195:200   */\n      dup2\n        /* \"#utility.yul\":177:201   */\n      tag_225\n      jump\t// in\n    tag_280:\n        /* \"#utility.yul\":172:175   */\n      dup3\n        /* \"#utility.yul\":165:202   */\n      mstore\n        /* \"#utility.yul\":90:208   */\n      pop\n      pop\n      jump\t// out\n        /* \"#utility.yul\":214:436   */\n    tag_36:\n        /* \"#utility.yul\":307:311   */\n      0x00\n        /* \"#utility.yul\":345:347   */\n      0x20\n        /* \"#utility.yul\":334:343   */\n      dup3\n        /* \"#utility.yul\":330:348   */\n      add\n        /* \"#utility.yul\":322:348   */\n      swap1\n      pop\n        /* \"#utility.yul\":358:429   */\n      tag_282\n        /* \"#utility.yul\":426:427   */\n      0x00\n        /* \"#utility.yul\":415:424   */\n      dup4\n        /* \"#utility.yul\":411:428   */\n      add\n        /* \"#utility.yul\":402:408   */\n      dup5\n        /* \"#utility.yul\":358:429   */\n      tag_226\n      jump\t// in\n    tag_282:\n        /* \"#utility.yul\":214:436   */\n      swap3\n      swap2\n      pop\n      pop\n      jump\t// out\n        /* \"#utility.yul\":442:517   */\n    tag_227:\n        /* \"#utility.yul\":475:481   */\n      0x00\n        /* \"#utility.yul\":508:510   */\n      0x40\n        /* \"#utility.yul\":502:511   */\n      mload\n        /* \"#utility.yul\":492:511   */\n      swap1\n      pop\n        /* \"#utility.yul\":442:517   */\n      swap1\n      jump\t// out\n        /* \"#utility.yul\":523:640   */\n    tag_228:\n        /* \"#utility.yul\":632:633   */\n      0x00\n        /* \"#utility.yul\":629:630   */\n      dup1\n        /* \"#utility.yul\":622:634   */\n      revert\n        /* \"#utility.yul\":646:763   */\n    tag_229:\n        /* \"#utility.yul\":755:756   */\n      0x00\n        /* \"#utility.yul\":752:753   */\n      dup1\n        /* \"#utility.yul\":745:757   */\n      revert\n        /* \"#utility.yul\":769:895   */\n    tag_230:\n        /* \"#utility.yul\":806:813   */\n      0x00\n        /* \"#utility.yul\":846:888   */\n      0xffffffffffffffffffffffffffffffffffffffff\n        /* \"#utility.yul\":839:844   */\n      dup3\n        /* \"#utility.yul\":835:889   */\n      and\n        /* \"#utility.yul\":824:889   */\n      swap1\n      pop\n        /* \"#utility.yul\":769:895   */\n      swap2\n      swap1\n      pop\n      jump\t// out\n        /* \"#utility.yul\":901:997   */\n    tag_231:\n        /* \"#utility.yul\":938:945   */\n      0x00\n        /* \"#utility.yul\":967:991   */\n      tag_288\n        /* \"#utility.yul\":985:990   */\n      dup3\n        /* \"#utility.yul\":967:991   */\n      tag_230\n      jump\t// in\n    tag_288:\n        /* \"#utility.yul\":956:991   */\n      swap1\n      pop\n        /* \"#utility.yul\":901:997   */\n      swap2\n      swap1\n      pop\n      jump\t// out\n        /* \"#utility.yul\":1003:1125   */\n    tag_232:\n        /* \"#utility.yul\":1076:1100   */\n      tag_290\n        /* \"#utility.yul\":1094:1099   */\n      dup2\n        /* \"#utility.yul\":1076:1100   */\n      tag_231\n      jump\t// in\n    tag_290:\n        /* \"#utility.yul\":1069:1074   */\n      dup2\n        /* \"#utility.yul\":1066:1101   */\n      eq\n        /* \"#utility.yul\":1056:1119   */\n      tag_291\n      jumpi\n        /* \"#utility.yul\":1115:1116   */\n      0x00\n        /* \"#utility.yul\":1112:1113   */\n      dup1\n        /* \"#utility.yul\":1105:1117   */\n      revert\n        /* \"#utility.yul\":1056:1119   */\n    tag_291:\n        /* \"#utility.yul\":1003:1125   */\n      pop\n      jump\t// out\n        /* \"#utility.yul\":1131:1270   */\n    tag_233:\n        /* \"#utility.yul\":1177:1182   */\n      0x00\n        /* \"#utility.yul\":1215:1221   */\n      dup2\n        /* \"#utility.yul\":1202:1222   */\n      calldataload\n        /* \"#utility.yul\":1193:1222   */\n      swap1\n      pop\n        /* \"#utility.yul\":1231:1264   */\n      tag_293\n        /* \"#utility.yul\":1258:1263   */\n      dup2\n        /* \"#utility.yul\":1231:1264   */\n      tag_232\n      jump\t// in\n    tag_293:\n        /* \"#utility.yul\":1131:1270   */\n      swap3\n      swap2\n      pop\n      pop\n      jump\t// out\n        /* \"#utility.yul\":1276:1605   */\n    tag_40:\n        /* \"#utility.yul\":1335:1341   */\n      0x00\n        /* \"#utility.yul\":1384:1386   */\n      0x20\n        /* \"#utility.yul\":1372:1381   */\n      dup3\n        /* \"#utility.yul\":1363:1370   */\n      dup5\n        /* \"#utility.yul\":1359:1382   */\n      sub\n        /* \"#utility.yul\":1355:1387   */\n      slt\n        /* \"#utility.yul\":1352:1471   */\n      iszero\n      tag_295\n      jumpi\n        /* \"#utility.yul\":1390:1469   */\n      tag_296\n      tag_228\n      jump\t// in\n    tag_296:\n        /* \"#utility.yul\":1352:1471   */\n    tag_295:\n        /* \"#utility.yul\":1510:1511   */\n      0x00\n        /* \"#utility.yul\":1535:1588   */\n      tag_297\n        /* \"#utility.yul\":1580:1587   */\n      dup5\n        /* \"#utility.yul\":1571:1577   */\n      dup3\n        /* \"#utility.yul\":1560:1569   */\n      dup6\n        /* \"#utility.yul\":1556:1578   */\n      add\n        /* \"#utility.yul\":1535:1588   */\n      tag_233\n      jump\t// in\n    tag_297:\n        /* \"#utility.yul\":1525:1588   */\n      swap2\n      pop\n        /* \"#utility.yul\":1481:1598   */\n      pop\n        /* \"#utility.yul\":1276:1605   */\n      swap3\n      swap2\n      pop\n      pop\n      jump\t// out\n        /* \"#utility.yul\":1611:1701   */\n    tag_234:\n        /* \"#utility.yul\":1645:1652   */\n      0x00\n        /* \"#utility.yul\":1688:1693   */\n      dup2\n        /* \"#utility.yul\":1681:1694   */\n      iszero\n        /* \"#utility.yul\":1674:1695   */\n      iszero\n        /* \"#utility.yul\":1663:1695   */\n      swap1\n      pop\n        /* \"#utility.yul\":1611:1701   */\n      swap2\n      swap1\n      pop\n      jump\t// out\n        /* \"#utility.yul\":1707:1816   */\n    tag_235:\n        /* \"#utility.yul\":1788:1809   */\n      tag_300\n        /* \"#utility.yul\":1803:1808   */\n      dup2\n        /* \"#utility.yul\":1788:1809   */\n      tag_234\n      jump\t// in\n    tag_300:\n        /* \"#utility.yul\":1783:1786   */\n      dup3\n        /* \"#utility.yul\":1776:1810   */\n      mstore\n        /* \"#utility.yul\":1707:1816   */\n      pop\n      pop\n      jump\t// out\n        /* \"#utility.yul\":1822:2032   */\n    tag_43:\n        /* \"#utility.yul\":1909:1913   */\n      0x00\n        /* \"#utility.yul\":1947:1949   */\n      0x20\n        /* \"#utility.yul\":1936:1945   */\n      dup3\n        /* \"#utility.yul\":1932:1950   */\n      add\n        /* \"#utility.yul\":1924:1950   */\n      swap1\n      pop\n        /* \"#utility.yul\":1960:2025   */\n      tag_302\n        /* \"#utility.yul\":2022:2023   */\n      0x00\n        /* \"#utility.yul\":2011:2020   */\n      dup4\n        /* \"#utility.yul\":2007:2024   */\n      add\n        /* \"#utility.yul\":1998:2004   */\n      dup5\n        /* \"#utility.yul\":1960:2025   */\n      tag_235\n      jump\t// in\n    tag_302:\n        /* \"#utility.yul\":1822:2032   */\n      swap3\n      swap2\n      pop\n      pop\n      jump\t// out\n        /* \"#utility.yul\":2038:2156   */\n    tag_236:\n        /* \"#utility.yul\":2125:2149   */\n      tag_304\n        /* \"#utility.yul\":2143:2148   */\n      dup2\n        /* \"#utility.yul\":2125:2149   */\n      tag_231\n      jump\t// in\n    tag_304:\n        /* \"#utility.yul\":2120:2123   */\n      dup3\n        /* \"#utility.yul\":2113:2150   */\n      mstore\n        /* \"#utility.yul\":2038:2156   */\n      pop\n      pop\n      jump\t// out\n        /* \"#utility.yul\":2162:2384   */\n    tag_66:\n        /* \"#utility.yul\":2255:2259   */\n      0x00\n        /* \"#utility.yul\":2293:2295   */\n      0x20\n        /* \"#utility.yul\":2282:2291   */\n      dup3\n        /* \"#utility.yul\":2278:2296   */\n      add\n        /* \"#utility.yul\":2270:2296   */\n      swap1\n      pop\n        /* \"#utility.yul\":2306:2377   */\n      tag_306\n        /* \"#utility.yul\":2374:2375   */\n      0x00\n        /* \"#utility.yul\":2363:2372   */\n      dup4\n        /* \"#utility.yul\":2359:2376   */\n      add\n        /* \"#utility.yul\":2350:2356   */\n      dup5\n        /* \"#utility.yul\":2306:2377   */\n      tag_236\n      jump\t// in\n    tag_306:\n        /* \"#utility.yul\":2162:2384   */\n      swap3\n      swap2\n      pop\n      pop\n      jump\t// out\n        /* \"#utility.yul\":2390:2507   */\n    tag_237:\n        /* \"#utility.yul\":2499:2500   */\n      0x00\n        /* \"#utility.yul\":2496:2497   */\n      dup1\n        /* \"#utility.yul\":2489:2501   */\n      revert\n        /* \"#utility.yul\":2513:2630   */\n    tag_238:\n        /* \"#utility.yul\":2622:2623   */\n      0x00\n        /* \"#utility.yul\":2619:2620   */\n      dup1\n        /* \"#utility.yul\":2612:2624   */\n      revert\n        /* \"#utility.yul\":2636:2753   */\n    tag_239:\n        /* \"#utility.yul\":2745:2746   */\n      0x00\n        /* \"#utility.yul\":2742:2743   */\n      dup1\n        /* \"#utility.yul\":2735:2747   */\n      revert\n        /* \"#utility.yul\":2776:3344   */\n    tag_240:\n        /* \"#utility.yul\":2849:2857   */\n      0x00\n        /* \"#utility.yul\":2859:2865   */\n      dup1\n        /* \"#utility.yul\":2909:2912   */\n      dup4\n        /* \"#utility.yul\":2902:2906   */\n      0x1f\n        /* \"#utility.yul\":2894:2900   */\n      dup5\n        /* \"#utility.yul\":2890:2907   */\n      add\n        /* \"#utility.yul\":2886:2913   */\n      slt\n        /* \"#utility.yul\":2876:2998   */\n      tag_311\n      jumpi\n        /* \"#utility.yul\":2917:2996   */\n      tag_312\n      tag_237\n      jump\t// in\n    tag_312:\n        /* \"#utility.yul\":2876:2998   */\n    tag_311:\n        /* \"#utility.yul\":3030:3036   */\n      dup3\n        /* \"#utility.yul\":3017:3037   */\n      calldataload\n        /* \"#utility.yul\":3007:3037   */\n      swap1\n      pop\n        /* \"#utility.yul\":3060:3078   */\n      0xffffffffffffffff\n        /* \"#utility.yul\":3052:3058   */\n      dup2\n        /* \"#utility.yul\":3049:3079   */\n      gt\n        /* \"#utility.yul\":3046:3163   */\n      iszero\n      tag_313\n      jumpi\n        /* \"#utility.yul\":3082:3161   */\n      tag_314\n      tag_238\n      jump\t// in\n    tag_314:\n        /* \"#utility.yul\":3046:3163   */\n    tag_313:\n        /* \"#utility.yul\":3196:3200   */\n      0x20\n        /* \"#utility.yul\":3188:3194   */\n      dup4\n        /* \"#utility.yul\":3184:3201   */\n      add\n        /* \"#utility.yul\":3172:3201   */\n      swap2\n      pop\n        /* \"#utility.yul\":3250:3253   */\n      dup4\n        /* \"#utility.yul\":3242:3246   */\n      0x20\n        /* \"#utility.yul\":3234:3240   */\n      dup3\n        /* \"#utility.yul\":3230:3247   */\n      mul\n        /* \"#utility.yul\":3220:3228   */\n      dup4\n        /* \"#utility.yul\":3216:3248   */\n      add\n        /* \"#utility.yul\":3213:3254   */\n      gt\n        /* \"#utility.yul\":3210:3338   */\n      iszero\n      tag_315\n      jumpi\n        /* \"#utility.yul\":3257:3336   */\n      tag_316\n      tag_239\n      jump\t// in\n    tag_316:\n        /* \"#utility.yul\":3210:3338   */\n    tag_315:\n        /* \"#utility.yul\":2776:3344   */\n      swap3\n      pop\n      swap3\n      swap1\n      pop\n      jump\t// out\n        /* \"#utility.yul\":3350:3909   */\n    tag_78:\n        /* \"#utility.yul\":3436:3442   */\n      0x00\n        /* \"#utility.yul\":3444:3450   */\n      dup1\n        /* \"#utility.yul\":3493:3495   */\n      0x20\n        /* \"#utility.yul\":3481:3490   */\n      dup4\n        /* \"#utility.yul\":3472:3479   */\n      dup6\n        /* \"#utility.yul\":3468:3491   */\n      sub\n        /* \"#utility.yul\":3464:3496   */\n      slt\n        /* \"#utility.yul\":3461:3580   */\n      iszero\n      tag_318\n      jumpi\n        /* \"#utility.yul\":3499:3578   */\n      tag_319\n      tag_228\n      jump\t// in\n    tag_319:\n        /* \"#utility.yul\":3461:3580   */\n    tag_318:\n        /* \"#utility.yul\":3647:3648   */\n      0x00\n        /* \"#utility.yul\":3636:3645   */\n      dup4\n        /* \"#utility.yul\":3632:3649   */\n      add\n        /* \"#utility.yul\":3619:3650   */\n      calldataload\n        /* \"#utility.yul\":3677:3695   */\n      0xffffffffffffffff\n        /* \"#utility.yul\":3669:3675   */\n      dup2\n        /* \"#utility.yul\":3666:3696   */\n      gt\n        /* \"#utility.yul\":3663:3780   */\n      iszero\n      tag_320\n      jumpi\n        /* \"#utility.yul\":3699:3778   */\n      tag_321\n      tag_229\n      jump\t// in\n    tag_321:\n        /* \"#utility.yul\":3663:3780   */\n    tag_320:\n        /* \"#utility.yul\":3812:3892   */\n      tag_322\n        /* \"#utility.yul\":3884:3891   */\n      dup6\n        /* \"#utility.yul\":3875:3881   */\n      dup3\n        /* \"#utility.yul\":3864:3873   */\n      dup7\n        /* \"#utility.yul\":3860:3882   */\n      add\n        /* \"#utility.yul\":3812:3892   */\n      tag_240\n      jump\t// in\n    tag_322:\n        /* \"#utility.yul\":3794:3892   */\n      swap3\n      pop\n      swap3\n      pop\n        /* \"#utility.yul\":3590:3902   */\n      pop\n        /* \"#utility.yul\":3350:3909   */\n      swap3\n      pop\n      swap3\n      swap1\n      pop\n      jump\t// out\n        /* \"#utility.yul\":3915:3992   */\n    tag_241:\n        /* \"#utility.yul\":3952:3959   */\n      0x00\n        /* \"#utility.yul\":3981:3986   */\n      dup2\n        /* \"#utility.yul\":3970:3986   */\n      swap1\n      pop\n        /* \"#utility.yul\":3915:3992   */\n      swap2\n      swap1\n      pop\n      jump\t// out\n        /* \"#utility.yul\":3998:4116   */\n    tag_242:\n        /* \"#utility.yul\":4085:4109   */\n      tag_325\n        /* \"#utility.yul\":4103:4108   */\n      dup2\n        /* \"#utility.yul\":4085:4109   */\n      tag_241\n      jump\t// in\n    tag_325:\n        /* \"#utility.yul\":4080:4083   */\n      dup3\n        /* \"#utility.yul\":4073:4110   */\n      mstore\n        /* \"#utility.yul\":3998:4116   */\n      pop\n      pop\n      jump\t// out\n        /* \"#utility.yul\":4122:4344   */\n    tag_101:\n        /* \"#utility.yul\":4215:4219   */\n      0x00\n        /* \"#utility.yul\":4253:4255   */\n      0x20\n        /* \"#utility.yul\":4242:4251   */\n      dup3\n        /* \"#utility.yul\":4238:4256   */\n      add\n        /* \"#utility.yul\":4230:4256   */\n      swap1\n      pop\n        /* \"#utility.yul\":4266:4337   */\n      tag_327\n        /* \"#utility.yul\":4334:4335   */\n      0x00\n        /* \"#utility.yul\":4323:4332   */\n      dup4\n        /* \"#utility.yul\":4319:4336   */\n      add\n        /* \"#utility.yul\":4310:4316   */\n      dup5\n        /* \"#utility.yul\":4266:4337   */\n      tag_242\n      jump\t// in\n    tag_327:\n        /* \"#utility.yul\":4122:4344   */\n      swap3\n      swap2\n      pop\n      pop\n      jump\t// out\n        /* \"#utility.yul\":4350:4467   */\n    tag_243:\n        /* \"#utility.yul\":4459:4460   */\n      0x00\n        /* \"#utility.yul\":4456:4457   */\n      dup1\n        /* \"#utility.yul\":4449:4461   */\n      revert\n        /* \"#utility.yul\":4473:4575   */\n    tag_244:\n        /* \"#utility.yul\":4514:4520   */\n      0x00\n        /* \"#utility.yul\":4565:4567   */\n      0x1f\n        /* \"#utility.yul\":4561:4568   */\n      not\n        /* \"#utility.yul\":4556:4558   */\n      0x1f\n        /* \"#utility.yul\":4549:4554   */\n      dup4\n        /* \"#utility.yul\":4545:4559   */\n      add\n        /* \"#utility.yul\":4541:4569   */\n      and\n        /* \"#utility.yul\":4531:4569   */\n      swap1\n      pop\n        /* \"#utility.yul\":4473:4575   */\n      swap2\n      swap1\n      pop\n      jump\t// out\n        /* \"#utility.yul\":4581:4761   */\n    tag_245:\n        /* \"#utility.yul\":4629:4706   */\n      0x4e487b7100000000000000000000000000000000000000000000000000000000\n        /* \"#utility.yul\":4626:4627   */\n      0x00\n        /* \"#utility.yul\":4619:4707   */\n      mstore\n        /* \"#utility.yul\":4726:4730   */\n      0x41\n        /* \"#utility.yul\":4723:4724   */\n      0x04\n        /* \"#utility.yul\":4716:4731   */\n      mstore\n        /* \"#utility.yul\":4750:4754   */\n      0x24\n        /* \"#utility.yul\":4747:4748   */\n      0x00\n        /* \"#utility.yul\":4740:4755   */\n      revert\n        /* \"#utility.yul\":4767:5048   */\n    tag_246:\n        /* \"#utility.yul\":4850:4877   */\n      tag_332\n        /* \"#utility.yul\":4872:4876   */\n      dup3\n        /* \"#utility.yul\":4850:4877   */\n      tag_244\n      jump\t// in\n    tag_332:\n        /* \"#utility.yul\":4842:4848   */\n      dup2\n        /* \"#utility.yul\":4838:4878   */\n      add\n        /* \"#utility.yul\":4980:4986   */\n      dup2\n        /* \"#utility.yul\":4968:4978   */\n      dup2\n        /* \"#utility.yul\":4965:4987   */\n      lt\n        /* \"#utility.yul\":4944:4962   */\n      0xffffffffffffffff\n        /* \"#utility.yul\":4932:4942   */\n      dup3\n        /* \"#utility.yul\":4929:4963   */\n      gt\n        /* \"#utility.yul\":4926:4988   */\n      or\n        /* \"#utility.yul\":4923:5011   */\n      iszero\n      tag_333\n      jumpi\n        /* \"#utility.yul\":4991:5009   */\n      tag_334\n      tag_245\n      jump\t// in\n    tag_334:\n        /* \"#utility.yul\":4923:5011   */\n    tag_333:\n        /* \"#utility.yul\":5031:5041   */\n      dup1\n        /* \"#utility.yul\":5027:5029   */\n      0x40\n        /* \"#utility.yul\":5020:5042   */\n      mstore\n        /* \"#utility.yul\":4810:5048   */\n      pop\n        /* \"#utility.yul\":4767:5048   */\n      pop\n      pop\n      jump\t// out\n        /* \"#utility.yul\":5054:5183   */\n    tag_247:\n        /* \"#utility.yul\":5088:5094   */\n      0x00\n        /* \"#utility.yul\":5115:5135   */\n      tag_336\n      tag_227\n      jump\t// in\n    tag_336:\n        /* \"#utility.yul\":5105:5135   */\n      swap1\n      pop\n        /* \"#utility.yul\":5144:5177   */\n      tag_337\n        /* \"#utility.yul\":5172:5176   */\n      dup3\n        /* \"#utility.yul\":5164:5170   */\n      dup3\n        /* \"#utility.yul\":5144:5177   */\n      tag_246\n      jump\t// in\n    tag_337:\n        /* \"#utility.yul\":5054:5183   */\n      swap2\n      swap1\n      pop\n      jump\t// out\n        /* \"#utility.yul\":5189:5497   */\n    tag_248:\n        /* \"#utility.yul\":5251:5255   */\n      0x00\n        /* \"#utility.yul\":5341:5359   */\n      0xffffffffffffffff\n        /* \"#utility.yul\":5333:5339   */\n      dup3\n        /* \"#utility.yul\":5330:5360   */\n      gt\n        /* \"#utility.yul\":5327:5383   */\n      iszero\n      tag_339\n      jumpi\n        /* \"#utility.yul\":5363:5381   */\n      tag_340\n      tag_245\n      jump\t// in\n    tag_340:\n        /* \"#utility.yul\":5327:5383   */\n    tag_339:\n        /* \"#utility.yul\":5401:5430   */\n      tag_341\n        /* \"#utility.yul\":5423:5429   */\n      dup3\n        /* \"#utility.yul\":5401:5430   */\n      tag_244\n      jump\t// in\n    tag_341:\n        /* \"#utility.yul\":5393:5430   */\n      swap1\n      pop\n        /* \"#utility.yul\":5485:5489   */\n      0x20\n        /* \"#utility.yul\":5479:5483   */\n      dup2\n        /* \"#utility.yul\":5475:5490   */\n      add\n        /* \"#utility.yul\":5467:5490   */\n      swap1\n      pop\n        /* \"#utility.yul\":5189:5497   */\n      swap2\n      swap1\n      pop\n      jump\t// out\n        /* \"#utility.yul\":5503:5651   */\n    tag_249:\n        /* \"#utility.yul\":5601:5607   */\n      dup3\n        /* \"#utility.yul\":5596:5599   */\n      dup2\n        /* \"#utility.yul\":5591:5594   */\n      dup4\n        /* \"#utility.yul\":5578:5608   */\n      calldatacopy\n        /* \"#utility.yul\":5642:5643   */\n      0x00\n        /* \"#utility.yul\":5633:5639   */\n      dup4\n        /* \"#utility.yul\":5628:5631   */\n      dup4\n        /* \"#utility.yul\":5624:5640   */\n      add\n        /* \"#utility.yul\":5617:5644   */\n      mstore\n        /* \"#utility.yul\":5503:5651   */\n      pop\n      pop\n      pop\n      jump\t// out\n        /* \"#utility.yul\":5657:6082   */\n    tag_250:\n        /* \"#utility.yul\":5735:5740   */\n      0x00\n        /* \"#utility.yul\":5760:5826   */\n      tag_344\n        /* \"#utility.yul\":5776:5825   */\n      tag_345\n        /* \"#utility.yul\":5818:5824   */\n      dup5\n        /* \"#utility.yul\":5776:5825   */\n      tag_248\n      jump\t// in\n    tag_345:\n        /* \"#utility.yul\":5760:5826   */\n      tag_247\n      jump\t// in\n    tag_344:\n        /* \"#utility.yul\":5751:5826   */\n      swap1\n      pop\n        /* \"#utility.yul\":5849:5855   */\n      dup3\n        /* \"#utility.yul\":5842:5847   */\n      dup2\n        /* \"#utility.yul\":5835:5856   */\n      mstore\n        /* \"#utility.yul\":5887:5891   */\n      0x20\n        /* \"#utility.yul\":5880:5885   */\n      dup2\n        /* \"#utility.yul\":5876:5892   */\n      add\n        /* \"#utility.yul\":5925:5928   */\n      dup5\n        /* \"#utility.yul\":5916:5922   */\n      dup5\n        /* \"#utility.yul\":5911:5914   */\n      dup5\n        /* \"#utility.yul\":5907:5923   */\n      add\n        /* \"#utility.yul\":5904:5929   */\n      gt\n        /* \"#utility.yul\":5901:6013   */\n      iszero\n      tag_346\n      jumpi\n        /* \"#utility.yul\":5932:6011   */\n      tag_347\n      tag_243\n      jump\t// in\n    tag_347:\n        /* \"#utility.yul\":5901:6013   */\n    tag_346:\n        /* \"#utility.yul\":6022:6076   */\n      tag_348\n        /* \"#utility.yul\":6069:6075   */\n      dup5\n        /* \"#utility.yul\":6064:6067   */\n      dup3\n        /* \"#utility.yul\":6059:6062   */\n      dup6\n        /* \"#utility.yul\":6022:6076   */\n      tag_249\n      jump\t// in\n    tag_348:\n        /* \"#utility.yul\":5741:6082   */\n      pop\n        /* \"#utility.yul\":5657:6082   */\n      swap4\n      swap3\n      pop\n      pop\n      pop\n      jump\t// out\n        /* \"#utility.yul\":6102:6442   */\n    tag_251:\n        /* \"#utility.yul\":6158:6163   */\n      0x00\n        /* \"#utility.yul\":6207:6210   */\n      dup3\n        /* \"#utility.yul\":6200:6204   */\n      0x1f\n        /* \"#utility.yul\":6192:6198   */\n      dup4\n        /* \"#utility.yul\":6188:6205   */\n      add\n        /* \"#utility.yul\":6184:6211   */\n      slt\n        /* \"#utility.yul\":6174:6296   */\n      tag_350\n      jumpi\n        /* \"#utility.yul\":6215:6294   */\n      tag_351\n      tag_237\n      jump\t// in\n    tag_351:\n        /* \"#utility.yul\":6174:6296   */\n    tag_350:\n        /* \"#utility.yul\":6332:6338   */\n      dup2\n        /* \"#utility.yul\":6319:6339   */\n      calldataload\n        /* \"#utility.yul\":6357:6436   */\n      tag_352\n        /* \"#utility.yul\":6432:6435   */\n      dup5\n        /* \"#utility.yul\":6424:6430   */\n      dup3\n        /* \"#utility.yul\":6417:6421   */\n      0x20\n        /* \"#utility.yul\":6409:6415   */\n      dup7\n        /* \"#utility.yul\":6405:6422   */\n      add\n        /* \"#utility.yul\":6357:6436   */\n      tag_250\n      jump\t// in\n    tag_352:\n        /* \"#utility.yul\":6348:6436   */\n      swap2\n      pop\n        /* \"#utility.yul\":6164:6442   */\n      pop\n        /* \"#utility.yul\":6102:6442   */\n      swap3\n      swap2\n      pop\n      pop\n      jump\t// out\n        /* \"#utility.yul\":6448:6957   */\n    tag_114:\n        /* \"#utility.yul\":6517:6523   */\n      0x00\n        /* \"#utility.yul\":6566:6568   */\n      0x20\n        /* \"#utility.yul\":6554:6563   */\n      dup3\n        /* \"#utility.yul\":6545:6552   */\n      dup5\n        /* \"#utility.yul\":6541:6564   */\n      sub\n        /* \"#utility.yul\":6537:6569   */\n      slt\n        /* \"#utility.yul\":6534:6653   */\n      iszero\n      tag_354\n      jumpi\n        /* \"#utility.yul\":6572:6651   */\n      tag_355\n      tag_228\n      jump\t// in\n    tag_355:\n        /* \"#utility.yul\":6534:6653   */\n    tag_354:\n        /* \"#utility.yul\":6720:6721   */\n      0x00\n        /* \"#utility.yul\":6709:6718   */\n      dup3\n        /* \"#utility.yul\":6705:6722   */\n      add\n        /* \"#utility.yul\":6692:6723   */\n      calldataload\n        /* \"#utility.yul\":6750:6768   */\n      0xffffffffffffffff\n        /* \"#utility.yul\":6742:6748   */\n      dup2\n        /* \"#utility.yul\":6739:6769   */\n      gt\n        /* \"#utility.yul\":6736:6853   */\n      iszero\n      tag_356\n      jumpi\n        /* \"#utility.yul\":6772:6851   */\n      tag_357\n      tag_229\n      jump\t// in\n    tag_357:\n        /* \"#utility.yul\":6736:6853   */\n    tag_356:\n        /* \"#utility.yul\":6877:6940   */\n      tag_358\n        /* \"#utility.yul\":6932:6939   */\n      dup5\n        /* \"#utility.yul\":6923:6929   */\n      dup3\n        /* \"#utility.yul\":6912:6921   */\n      dup6\n        /* \"#utility.yul\":6908:6930   */\n      add\n        /* \"#utility.yul\":6877:6940   */\n      tag_251\n      jump\t// in\n    tag_358:\n        /* \"#utility.yul\":6867:6940   */\n      swap2\n      pop\n        /* \"#utility.yul\":6663:6950   */\n      pop\n        /* \"#utility.yul\":6448:6957   */\n      swap3\n      swap2\n      pop\n      pop\n      jump\t// out\n        /* \"#utility.yul\":6963:7143   */\n    tag_252:\n        /* \"#utility.yul\":7011:7088   */\n      0x4e487b7100000000000000000000000000000000000000000000000000000000\n        /* \"#utility.yul\":7008:7009   */\n      0x00\n        /* \"#utility.yul\":7001:7089   */\n      mstore\n        /* \"#utility.yul\":7108:7112   */\n      0x11\n        /* \"#utility.yul\":7105:7106   */\n      0x04\n        /* \"#utility.yul\":7098:7113   */\n      mstore\n        /* \"#utility.yul\":7132:7136   */\n      0x24\n        /* \"#utility.yul\":7129:7130   */\n      0x00\n        /* \"#utility.yul\":7122:7137   */\n      revert\n        /* \"#utility.yul\":7149:7340   */\n    tag_142:\n        /* \"#utility.yul\":7189:7192   */\n      0x00\n        /* \"#utility.yul\":7208:7228   */\n      tag_361\n        /* \"#utility.yul\":7226:7227   */\n      dup3\n        /* \"#utility.yul\":7208:7228   */\n      tag_225\n      jump\t// in\n    tag_361:\n        /* \"#utility.yul\":7203:7228   */\n      swap2\n      pop\n        /* \"#utility.yul\":7242:7262   */\n      tag_362\n        /* \"#utility.yul\":7260:7261   */\n      dup4\n        /* \"#utility.yul\":7242:7262   */\n      tag_225\n      jump\t// in\n    tag_362:\n        /* \"#utility.yul\":7237:7262   */\n      swap3\n      pop\n        /* \"#utility.yul\":7285:7286   */\n      dup3\n        /* \"#utility.yul\":7282:7283   */\n      dup3\n        /* \"#utility.yul\":7278:7287   */\n      add\n        /* \"#utility.yul\":7271:7287   */\n      swap1\n      pop\n        /* \"#utility.yul\":7306:7309   */\n      dup1\n        /* \"#utility.yul\":7303:7304   */\n      dup3\n        /* \"#utility.yul\":7300:7310   */\n      gt\n        /* \"#utility.yul\":7297:7333   */\n      iszero\n      tag_363\n      jumpi\n        /* \"#utility.yul\":7313:7331   */\n      tag_364\n      tag_252\n      jump\t// in\n    tag_364:\n        /* \"#utility.yul\":7297:7333   */\n    tag_363:\n        /* \"#utility.yul\":7149:7340   */\n      swap3\n      swap2\n      pop\n      pop\n      jump\t// out\n        /* \"#utility.yul\":7346:7515   */\n    tag_253:\n        /* \"#utility.yul\":7430:7441   */\n      0x00\n        /* \"#utility.yul\":7464:7470   */\n      dup3\n        /* \"#utility.yul\":7459:7462   */\n      dup3\n        /* \"#utility.yul\":7452:7471   */\n      mstore\n        /* \"#utility.yul\":7504:7508   */\n      0x20\n        /* \"#utility.yul\":7499:7502   */\n      dup3\n        /* \"#utility.yul\":7495:7509   */\n      add\n        /* \"#utility.yul\":7480:7509   */\n      swap1\n      pop\n        /* \"#utility.yul\":7346:7515   */\n      swap3\n      swap2\n      pop\n      pop\n      jump\t// out\n        /* \"#utility.yul\":7521:7693   */\n    tag_254:\n        /* \"#utility.yul\":7661:7685   */\n      0x5769746864726177616c7320617265206c6f636b656400000000000000000000\n        /* \"#utility.yul\":7657:7658   */\n      0x00\n        /* \"#utility.yul\":7649:7655   */\n      dup3\n        /* \"#utility.yul\":7645:7659   */\n      add\n        /* \"#utility.yul\":7638:7686   */\n      mstore\n        /* \"#utility.yul\":7521:7693   */\n      pop\n      jump\t// out\n        /* \"#utility.yul\":7699:8065   */\n    tag_255:\n        /* \"#utility.yul\":7841:7844   */\n      0x00\n        /* \"#utility.yul\":7862:7929   */\n      tag_368\n        /* \"#utility.yul\":7926:7928   */\n      0x16\n        /* \"#utility.yul\":7921:7924   */\n      dup4\n        /* \"#utility.yul\":7862:7929   */\n      tag_253\n      jump\t// in\n    tag_368:\n        /* \"#utility.yul\":7855:7929   */\n      swap2\n      pop\n        /* \"#utility.yul\":7938:8031   */\n      tag_369\n        /* \"#utility.yul\":8027:8030   */\n      dup3\n        /* \"#utility.yul\":7938:8031   */\n      tag_254\n      jump\t// in\n    tag_369:\n        /* \"#utility.yul\":8056:8058   */\n      0x20\n        /* \"#utility.yul\":8051:8054   */\n      dup3\n        /* \"#utility.yul\":8047:8059   */\n      add\n        /* \"#utility.yul\":8040:8059   */\n      swap1\n      pop\n        /* \"#utility.yul\":7699:8065   */\n      swap2\n      swap1\n      pop\n      jump\t// out\n        /* \"#utility.yul\":8071:8490   */\n    tag_154:\n        /* \"#utility.yul\":8237:8241   */\n      0x00\n        /* \"#utility.yul\":8275:8277   */\n      0x20\n        /* \"#utility.yul\":8264:8273   */\n      dup3\n        /* \"#utility.yul\":8260:8278   */\n      add\n        /* \"#utility.yul\":8252:8278   */\n      swap1\n      pop\n        /* \"#utility.yul\":8324:8333   */\n      dup2\n        /* \"#utility.yul\":8318:8322   */\n      dup2\n        /* \"#utility.yul\":8314:8334   */\n      sub\n        /* \"#utility.yul\":8310:8311   */\n      0x00\n        /* \"#utility.yul\":8299:8308   */\n      dup4\n        /* \"#utility.yul\":8295:8312   */\n      add\n        /* \"#utility.yul\":8288:8335   */\n      mstore\n        /* \"#utility.yul\":8352:8483   */\n      tag_371\n        /* \"#utility.yul\":8478:8482   */\n      dup2\n        /* \"#utility.yul\":8352:8483   */\n      tag_255\n      jump\t// in\n    tag_371:\n        /* \"#utility.yul\":8344:8483   */\n      swap1\n      pop\n        /* \"#utility.yul\":8071:8490   */\n      swap2\n      swap1\n      pop\n      jump\t// out\n        /* \"#utility.yul\":8496:8678   */\n    tag_256:\n        /* \"#utility.yul\":8636:8670   */\n      0x4c6173742077697468647261776572206d7573742077616974203120686f7572\n        /* \"#utility.yul\":8632:8633   */\n      0x00\n        /* \"#utility.yul\":8624:8630   */\n      dup3\n        /* \"#utility.yul\":8620:8634   */\n      add\n        /* \"#utility.yul\":8613:8671   */\n      mstore\n        /* \"#utility.yul\":8496:8678   */\n      pop\n      jump\t// out\n        /* \"#utility.yul\":8684:9050   */\n    tag_257:\n        /* \"#utility.yul\":8826:8829   */\n      0x00\n        /* \"#utility.yul\":8847:8914   */\n      tag_374\n        /* \"#utility.yul\":8911:8913   */\n      0x20\n        /* \"#utility.yul\":8906:8909   */\n      dup4\n        /* \"#utility.yul\":8847:8914   */\n      tag_253\n      jump\t// in\n    tag_374:\n        /* \"#utility.yul\":8840:8914   */\n      swap2\n      pop\n        /* \"#utility.yul\":8923:9016   */\n      tag_375\n        /* \"#utility.yul\":9012:9015   */\n      dup3\n        /* \"#utility.yul\":8923:9016   */\n      tag_256\n      jump\t// in\n    tag_375:\n        /* \"#utility.yul\":9041:9043   */\n      0x20\n        /* \"#utility.yul\":9036:9039   */\n      dup3\n        /* \"#utility.yul\":9032:9044   */\n      add\n        /* \"#utility.yul\":9025:9044   */\n      swap1\n      pop\n        /* \"#utility.yul\":8684:9050   */\n      swap2\n      swap1\n      pop\n      jump\t// out\n        /* \"#utility.yul\":9056:9475   */\n    tag_159:\n        /* \"#utility.yul\":9222:9226   */\n      0x00\n        /* \"#utility.yul\":9260:9262   */\n      0x20\n        /* \"#utility.yul\":9249:9258   */\n      dup3\n        /* \"#utility.yul\":9245:9263   */\n      add\n        /* \"#utility.yul\":9237:9263   */\n      swap1\n      pop\n        /* \"#utility.yul\":9309:9318   */\n      dup2\n        /* \"#utility.yul\":9303:9307   */\n      dup2\n        /* \"#utility.yul\":9299:9319   */\n      sub\n        /* \"#utility.yul\":9295:9296   */\n      0x00\n        /* \"#utility.yul\":9284:9293   */\n      dup4\n        /* \"#utility.yul\":9280:9297   */\n      add\n        /* \"#utility.yul\":9273:9320   */\n      mstore\n        /* \"#utility.yul\":9337:9468   */\n      tag_377\n        /* \"#utility.yul\":9463:9467   */\n      dup2\n        /* \"#utility.yul\":9337:9468   */\n      tag_257\n      jump\t// in\n    tag_377:\n        /* \"#utility.yul\":9329:9468   */\n      swap1\n      pop\n        /* \"#utility.yul\":9056:9475   */\n      swap2\n      swap1\n      pop\n      jump\t// out\n        /* \"#utility.yul\":9481:9660   */\n    tag_258:\n        /* \"#utility.yul\":9621:9652   */\n      0x496e73756666696369656e742062616c616e636520696e207661756c74000000\n        /* \"#utility.yul\":9617:9618   */\n      0x00\n        /* \"#utility.yul\":9609:9615   */\n      dup3\n        /* \"#utility.yul\":9605:9619   */\n      add\n        /* \"#utility.yul\":9598:9653   */\n      mstore\n        /* \"#utility.yul\":9481:9660   */\n      pop\n      jump\t// out\n        /* \"#utility.yul\":9666:10032   */\n    tag_259:\n        /* \"#utility.yul\":9808:9811   */\n      0x00\n        /* \"#utility.yul\":9829:9896   */\n      tag_380\n        /* \"#utility.yul\":9893:9895   */\n      0x1d\n        /* \"#utility.yul\":9888:9891   */\n      dup4\n        /* \"#utility.yul\":9829:9896   */\n      tag_253\n      jump\t// in\n    tag_380:\n        /* \"#utility.yul\":9822:9896   */\n      swap2\n      pop\n        /* \"#utility.yul\":9905:9998   */\n      tag_381\n        /* \"#utility.yul\":9994:9997   */\n      dup3\n        /* \"#utility.yul\":9905:9998   */\n      tag_258\n      jump\t// in\n    tag_381:\n        /* \"#utility.yul\":10023:10025   */\n      0x20\n        /* \"#utility.yul\":10018:10021   */\n      dup3\n        /* \"#utility.yul\":10014:10026   */\n      add\n        /* \"#utility.yul\":10007:10026   */\n      swap1\n      pop\n        /* \"#utility.yul\":9666:10032   */\n      swap2\n      swap1\n      pop\n      jump\t// out\n        /* \"#utility.yul\":10038:10457   */\n    tag_163:\n        /* \"#utility.yul\":10204:10208   */\n      0x00\n        /* \"#utility.yul\":10242:10244   */\n      0x20\n        /* \"#utility.yul\":10231:10240   */\n      dup3\n        /* \"#utility.yul\":10227:10245   */\n      add\n        /* \"#utility.yul\":10219:10245   */\n      swap1\n      pop\n        /* \"#utility.yul\":10291:10300   */\n      dup2\n        /* \"#utility.yul\":10285:10289   */\n      dup2\n        /* \"#utility.yul\":10281:10301   */\n      sub\n        /* \"#utility.yul\":10277:10278   */\n      0x00\n        /* \"#utility.yul\":10266:10275   */\n      dup4\n        /* \"#utility.yul\":10262:10279   */\n      add\n        /* \"#utility.yul\":10255:10302   */\n      mstore\n        /* \"#utility.yul\":10319:10450   */\n      tag_383\n        /* \"#utility.yul\":10445:10449   */\n      dup2\n        /* \"#utility.yul\":10319:10450   */\n      tag_259\n      jump\t// in\n    tag_383:\n        /* \"#utility.yul\":10311:10450   */\n      swap1\n      pop\n        /* \"#utility.yul\":10038:10457   */\n      swap2\n      swap1\n      pop\n      jump\t// out\n        /* \"#utility.yul\":10463:10610   */\n    tag_260:\n        /* \"#utility.yul\":10564:10575   */\n      0x00\n        /* \"#utility.yul\":10601:10604   */\n      dup2\n        /* \"#utility.yul\":10586:10604   */\n      swap1\n      pop\n        /* \"#utility.yul\":10463:10610   */\n      swap3\n      swap2\n      pop\n      pop\n      jump\t// out\n        /* \"#utility.yul\":10616:10730   */\n    tag_261:\n      pop\n      jump\t// out\n        /* \"#utility.yul\":10736:11134   */\n    tag_262:\n        /* \"#utility.yul\":10895:10898   */\n      0x00\n        /* \"#utility.yul\":10916:10999   */\n      tag_387\n        /* \"#utility.yul\":10997:10998   */\n      0x00\n        /* \"#utility.yul\":10992:10995   */\n      dup4\n        /* \"#utility.yul\":10916:10999   */\n      tag_260\n      jump\t// in\n    tag_387:\n        /* \"#utility.yul\":10909:10999   */\n      swap2\n      pop\n        /* \"#utility.yul\":11008:11101   */\n      tag_388\n        /* \"#utility.yul\":11097:11100   */\n      dup3\n        /* \"#utility.yul\":11008:11101   */\n      tag_261\n      jump\t// in\n    tag_388:\n        /* \"#utility.yul\":11126:11127   */\n      0x00\n        /* \"#utility.yul\":11121:11124   */\n      dup3\n        /* \"#utility.yul\":11117:11128   */\n      add\n        /* \"#utility.yul\":11110:11128   */\n      swap1\n      pop\n        /* \"#utility.yul\":10736:11134   */\n      swap2\n      swap1\n      pop\n      jump\t// out\n        /* \"#utility.yul\":11140:11519   */\n    tag_166:\n        /* \"#utility.yul\":11324:11327   */\n      0x00\n        /* \"#utility.yul\":11346:11493   */\n      tag_390\n        /* \"#utility.yul\":11489:11492   */\n      dup3\n        /* \"#utility.yul\":11346:11493   */\n      tag_262\n      jump\t// in\n    tag_390:\n        /* \"#utility.yul\":11339:11493   */\n      swap2\n      pop\n        /* \"#utility.yul\":11510:11513   */\n      dup2\n        /* \"#utility.yul\":11503:11513   */\n      swap1\n      pop\n        /* \"#utility.yul\":11140:11519   */\n      swap2\n      swap1\n      pop\n      jump\t// out\n        /* \"#utility.yul\":11525:11695   */\n    tag_263:\n        /* \"#utility.yul\":11665:11687   */\n      0x4661696c656420746f2073656e64204574686572000000000000000000000000\n        /* \"#utility.yul\":11661:11662   */\n      0x00\n        /* \"#utility.yul\":11653:11659   */\n      dup3\n        /* \"#utility.yul\":11649:11663   */\n      add\n        /* \"#utility.yul\":11642:11688   */\n      mstore\n        /* \"#utility.yul\":11525:11695   */\n      pop\n      jump\t// out\n        /* \"#utility.yul\":11701:12067   */\n    tag_264:\n        /* \"#utility.yul\":11843:11846   */\n      0x00\n        /* \"#utility.yul\":11864:11931   */\n      tag_393\n        /* \"#utility.yul\":11928:11930   */\n      0x14\n        /* \"#utility.yul\":11923:11926   */\n      dup4\n        /* \"#utility.yul\":11864:11931   */\n      tag_253\n      jump\t// in\n    tag_393:\n        /* \"#utility.yul\":11857:11931   */\n      swap2\n      pop\n        /* \"#utility.yul\":11940:12033   */\n      tag_394\n        /* \"#utility.yul\":12029:12032   */\n      dup3\n        /* \"#utility.yul\":11940:12033   */\n      tag_263\n      jump\t// in\n    tag_394:\n        /* \"#utility.yul\":12058:12060   */\n      0x20\n        /* \"#utility.yul\":12053:12056   */\n      dup3\n        /* \"#utility.yul\":12049:12061   */\n      add\n        /* \"#utility.yul\":12042:12061   */\n      swap1\n      pop\n        /* \"#utility.yul\":11701:12067   */\n      swap2\n      swap1\n      pop\n      jump\t// out\n        /* \"#utility.yul\":12073:12492   */\n    tag_172:\n        /* \"#utility.yul\":12239:12243   */\n      0x00\n        /* \"#utility.yul\":12277:12279   */\n      0x20\n        /* \"#utility.yul\":12266:12275   */\n      dup3\n        /* \"#utility.yul\":12262:12280   */\n      add\n        /* \"#utility.yul\":12254:12280   */\n      swap1\n      pop\n        /* \"#utility.yul\":12326:12335   */\n      dup2\n        /* \"#utility.yul\":12320:12324   */\n      dup2\n        /* \"#utility.yul\":12316:12336   */\n      sub\n        /* \"#utility.yul\":12312:12313   */\n      0x00\n        /* \"#utility.yul\":12301:12310   */\n      dup4\n        /* \"#utility.yul\":12297:12314   */\n      add\n        /* \"#utility.yul\":12290:12337   */\n      mstore\n        /* \"#utility.yul\":12354:12485   */\n      tag_396\n        /* \"#utility.yul\":12480:12484   */\n      dup2\n        /* \"#utility.yul\":12354:12485   */\n      tag_264\n      jump\t// in\n    tag_396:\n        /* \"#utility.yul\":12346:12485   */\n      swap1\n      pop\n        /* \"#utility.yul\":12073:12492   */\n      swap2\n      swap1\n      pop\n      jump\t// out\n        /* \"#utility.yul\":12498:12718   */\n    tag_265:\n        /* \"#utility.yul\":12638:12672   */\n      0x4f6e6c79206f776e65722063616e2063616c6c20746869732066756e6374696f\n        /* \"#utility.yul\":12634:12635   */\n      0x00\n        /* \"#utility.yul\":12626:12632   */\n      dup3\n        /* \"#utility.yul\":12622:12636   */\n      add\n        /* \"#utility.yul\":12615:12673   */\n      mstore\n        /* \"#utility.yul\":12707:12710   */\n      0x6e00000000000000000000000000000000000000000000000000000000000000\n        /* \"#utility.yul\":12702:12704   */\n      0x20\n        /* \"#utility.yul\":12694:12700   */\n      dup3\n        /* \"#utility.yul\":12690:12705   */\n      add\n        /* \"#utility.yul\":12683:12711   */\n      mstore\n        /* \"#utility.yul\":12498:12718   */\n      pop\n      jump\t// out\n        /* \"#utility.yul\":12724:13090   */\n    tag_266:\n        /* \"#utility.yul\":12866:12869   */\n      0x00\n        /* \"#utility.yul\":12887:12954   */\n      tag_399\n        /* \"#utility.yul\":12951:12953   */\n      0x21\n        /* \"#utility.yul\":12946:12949   */\n      dup4\n        /* \"#utility.yul\":12887:12954   */\n      tag_253\n      jump\t// in\n    tag_399:\n        /* \"#utility.yul\":12880:12954   */\n      swap2\n      pop\n        /* \"#utility.yul\":12963:13056   */\n      tag_400\n        /* \"#utility.yul\":13052:13055   */\n      dup3\n        /* \"#utility.yul\":12963:13056   */\n      tag_265\n      jump\t// in\n    tag_400:\n        /* \"#utility.yul\":13081:13083   */\n      0x40\n        /* \"#utility.yul\":13076:13079   */\n      dup3\n        /* \"#utility.yul\":13072:13084   */\n      add\n        /* \"#utility.yul\":13065:13084   */\n      swap1\n      pop\n        /* \"#utility.yul\":12724:13090   */\n      swap2\n      swap1\n      pop\n      jump\t// out\n        /* \"#utility.yul\":13096:13515   */\n    tag_177:\n        /* \"#utility.yul\":13262:13266   */\n      0x00\n        /* \"#utility.yul\":13300:13302   */\n      0x20\n        /* \"#utility.yul\":13289:13298   */\n      dup3\n        /* \"#utility.yul\":13285:13303   */\n      add\n        /* \"#utility.yul\":13277:13303   */\n      swap1\n      pop\n        /* \"#utility.yul\":13349:13358   */\n      dup2\n        /* \"#utility.yul\":13343:13347   */\n      dup2\n        /* \"#utility.yul\":13339:13359   */\n      sub\n        /* \"#utility.yul\":13335:13336   */\n      0x00\n        /* \"#utility.yul\":13324:13333   */\n      dup4\n        /* \"#utility.yul\":13320:13337   */\n      add\n        /* \"#utility.yul\":13313:13360   */\n      mstore\n        /* \"#utility.yul\":13377:13508   */\n      tag_402\n        /* \"#utility.yul\":13503:13507   */\n      dup2\n        /* \"#utility.yul\":13377:13508   */\n      tag_266\n      jump\t// in\n    tag_402:\n        /* \"#utility.yul\":13369:13508   */\n      swap1\n      pop\n        /* \"#utility.yul\":13096:13515   */\n      swap2\n      swap1\n      pop\n      jump\t// out\n        /* \"#utility.yul\":13521:13701   */\n    tag_184:\n        /* \"#utility.yul\":13569:13646   */\n      0x4e487b7100000000000000000000000000000000000000000000000000000000\n        /* \"#utility.yul\":13566:13567   */\n      0x00\n        /* \"#utility.yul\":13559:13647   */\n      mstore\n        /* \"#utility.yul\":13666:13670   */\n      0x32\n        /* \"#utility.yul\":13663:13664   */\n      0x04\n        /* \"#utility.yul\":13656:13671   */\n      mstore\n        /* \"#utility.yul\":13690:13694   */\n      0x24\n        /* \"#utility.yul\":13687:13688   */\n      0x00\n        /* \"#utility.yul\":13680:13695   */\n      revert\n        /* \"#utility.yul\":13707:13806   */\n    tag_267:\n        /* \"#utility.yul\":13759:13765   */\n      0x00\n        /* \"#utility.yul\":13793:13798   */\n      dup2\n        /* \"#utility.yul\":13787:13799   */\n      mload\n        /* \"#utility.yul\":13777:13799   */\n      swap1\n      pop\n        /* \"#utility.yul\":13707:13806   */\n      swap2\n      swap1\n      pop\n      jump\t// out\n        /* \"#utility.yul\":13812:13960   */\n    tag_268:\n        /* \"#utility.yul\":13914:13925   */\n      0x00\n        /* \"#utility.yul\":13951:13954   */\n      dup2\n        /* \"#utility.yul\":13936:13954   */\n      swap1\n      pop\n        /* \"#utility.yul\":13812:13960   */\n      swap3\n      swap2\n      pop\n      pop\n      jump\t// out\n        /* \"#utility.yul\":13966:14105   */\n    tag_269:\n        /* \"#utility.yul\":14055:14061   */\n      dup3\n        /* \"#utility.yul\":14050:14053   */\n      dup2\n        /* \"#utility.yul\":14045:14048   */\n      dup4\n        /* \"#utility.yul\":14039:14062   */\n      mcopy\n        /* \"#utility.yul\":14096:14097   */\n      0x00\n        /* \"#utility.yul\":14087:14093   */\n      dup4\n        /* \"#utility.yul\":14082:14085   */\n      dup4\n        /* \"#utility.yul\":14078:14094   */\n      add\n        /* \"#utility.yul\":14071:14098   */\n      mstore\n        /* \"#utility.yul\":13966:14105   */\n      pop\n      pop\n      pop\n      jump\t// out\n        /* \"#utility.yul\":14111:14501   */\n    tag_270:\n        /* \"#utility.yul\":14217:14220   */\n      0x00\n        /* \"#utility.yul\":14245:14284   */\n      tag_408\n        /* \"#utility.yul\":14278:14283   */\n      dup3\n        /* \"#utility.yul\":14245:14284   */\n      tag_267\n      jump\t// in\n    tag_408:\n        /* \"#utility.yul\":14300:14389   */\n      tag_409\n        /* \"#utility.yul\":14382:14388   */\n      dup2\n        /* \"#utility.yul\":14377:14380   */\n      dup6\n        /* \"#utility.yul\":14300:14389   */\n      tag_268\n      jump\t// in\n    tag_409:\n        /* \"#utility.yul\":14293:14389   */\n      swap4\n      pop\n        /* \"#utility.yul\":14398:14463   */\n      tag_410\n        /* \"#utility.yul\":14456:14462   */\n      dup2\n        /* \"#utility.yul\":14451:14454   */\n      dup6\n        /* \"#utility.yul\":14444:14448   */\n      0x20\n        /* \"#utility.yul\":14437:14442   */\n      dup7\n        /* \"#utility.yul\":14433:14449   */\n      add\n        /* \"#utility.yul\":14398:14463   */\n      tag_269\n      jump\t// in\n    tag_410:\n        /* \"#utility.yul\":14488:14494   */\n      dup1\n        /* \"#utility.yul\":14483:14486   */\n      dup5\n        /* \"#utility.yul\":14479:14495   */\n      add\n        /* \"#utility.yul\":14472:14495   */\n      swap2\n      pop\n        /* \"#utility.yul\":14221:14501   */\n      pop\n        /* \"#utility.yul\":14111:14501   */\n      swap3\n      swap2\n      pop\n      pop\n      jump\t// out\n        /* \"#utility.yul\":14507:14782   */\n    tag_206:\n        /* \"#utility.yul\":14639:14642   */\n      0x00\n        /* \"#utility.yul\":14661:14756   */\n      tag_412\n        /* \"#utility.yul\":14752:14755   */\n      dup3\n        /* \"#utility.yul\":14743:14749   */\n      dup5\n        /* \"#utility.yul\":14661:14756   */\n      tag_270\n      jump\t// in\n    tag_412:\n        /* \"#utility.yul\":14654:14756   */\n      swap2\n      pop\n        /* \"#utility.yul\":14773:14776   */\n      dup2\n        /* \"#utility.yul\":14766:14776   */\n      swap1\n      pop\n        /* \"#utility.yul\":14507:14782   */\n      swap3\n      swap2\n      pop\n      pop\n      jump\t// out\n        /* \"#utility.yul\":14788:14949   */\n    tag_271:\n        /* \"#utility.yul\":14928:14941   */\n      0x57726f6e67206775657373000000000000000000000000000000000000000000\n        /* \"#utility.yul\":14924:14925   */\n      0x00\n        /* \"#utility.yul\":14916:14922   */\n      dup3\n        /* \"#utility.yul\":14912:14926   */\n      add\n        /* \"#utility.yul\":14905:14942   */\n      mstore\n        /* \"#utility.yul\":14788:14949   */\n      pop\n      jump\t// out\n        /* \"#utility.yul\":14955:15321   */\n    tag_272:\n        /* \"#utility.yul\":15097:15100   */\n      0x00\n        /* \"#utility.yul\":15118:15185   */\n      tag_415\n        /* \"#utility.yul\":15182:15184   */\n      0x0b\n        /* \"#utility.yul\":15177:15180   */\n      dup4\n        /* \"#utility.yul\":15118:15185   */\n      tag_253\n      jump\t// in\n    tag_415:\n        /* \"#utility.yul\":15111:15185   */\n      swap2\n      pop\n        /* \"#utility.yul\":15194:15287   */\n      tag_416\n        /* \"#utility.yul\":15283:15286   */\n      dup3\n        /* \"#utility.yul\":15194:15287   */\n      tag_271\n      jump\t// in\n    tag_416:\n        /* \"#utility.yul\":15312:15314   */\n      0x20\n        /* \"#utility.yul\":15307:15310   */\n      dup3\n        /* \"#utility.yul\":15303:15315   */\n      add\n        /* \"#utility.yul\":15296:15315   */\n      swap1\n      pop\n        /* \"#utility.yul\":14955:15321   */\n      swap2\n      swap1\n      pop\n      jump\t// out\n        /* \"#utility.yul\":15327:15746   */\n    tag_209:\n        /* \"#utility.yul\":15493:15497   */\n      0x00\n        /* \"#utility.yul\":15531:15533   */\n      0x20\n        /* \"#utility.yul\":15520:15529   */\n      dup3\n        /* \"#utility.yul\":15516:15534   */\n      add\n        /* \"#utility.yul\":15508:15534   */\n      swap1\n      pop\n        /* \"#utility.yul\":15580:15589   */\n      dup2\n        /* \"#utility.yul\":15574:15578   */\n      dup2\n        /* \"#utility.yul\":15570:15590   */\n      sub\n        /* \"#utility.yul\":15566:15567   */\n      0x00\n        /* \"#utility.yul\":15555:15564   */\n      dup4\n        /* \"#utility.yul\":15551:15568   */\n      add\n        /* \"#utility.yul\":15544:15591   */\n      mstore\n        /* \"#utility.yul\":15608:15739   */\n      tag_418\n        /* \"#utility.yul\":15734:15738   */\n      dup2\n        /* \"#utility.yul\":15608:15739   */\n      tag_272\n      jump\t// in\n    tag_418:\n        /* \"#utility.yul\":15600:15739   */\n      swap1\n      pop\n        /* \"#utility.yul\":15327:15746   */\n      swap2\n      swap1\n      pop\n      jump\t// out\n        /* \"#utility.yul\":15752:15929   */\n    tag_273:\n        /* \"#utility.yul\":15892:15921   */\n      0x4e6f7420656c696769626c6520666f72207769746864726177616c0000000000\n        /* \"#utility.yul\":15888:15889   */\n      0x00\n        /* \"#utility.yul\":15880:15886   */\n      dup3\n        /* \"#utility.yul\":15876:15890   */\n      add\n        /* \"#utility.yul\":15869:15922   */\n      mstore\n        /* \"#utility.yul\":15752:15929   */\n      pop\n      jump\t// out\n        /* \"#utility.yul\":15935:16301   */\n    tag_274:\n        /* \"#utility.yul\":16077:16080   */\n      0x00\n        /* \"#utility.yul\":16098:16165   */\n      tag_421\n        /* \"#utility.yul\":16162:16164   */\n      0x1b\n        /* \"#utility.yul\":16157:16160   */\n      dup4\n        /* \"#utility.yul\":16098:16165   */\n      tag_253\n      jump\t// in\n    tag_421:\n        /* \"#utility.yul\":16091:16165   */\n      swap2\n      pop\n        /* \"#utility.yul\":16174:16267   */\n      tag_422\n        /* \"#utility.yul\":16263:16266   */\n      dup3\n        /* \"#utility.yul\":16174:16267   */\n      tag_273\n      jump\t// in\n    tag_422:\n        /* \"#utility.yul\":16292:16294   */\n      0x20\n        /* \"#utility.yul\":16287:16290   */\n      dup3\n        /* \"#utility.yul\":16283:16295   */\n      add\n        /* \"#utility.yul\":16276:16295   */\n      swap1\n      pop\n        /* \"#utility.yul\":15935:16301   */\n      swap2\n      swap1\n      pop\n      jump\t// out\n        /* \"#utility.yul\":16307:16726   */\n    tag_218:\n        /* \"#utility.yul\":16473:16477   */\n      0x00\n        /* \"#utility.yul\":16511:16513   */\n      0x20\n        /* \"#utility.yul\":16500:16509   */\n      dup3\n        /* \"#utility.yul\":16496:16514   */\n      add\n        /* \"#utility.yul\":16488:16514   */\n      swap1\n      pop\n        /* \"#utility.yul\":16560:16569   */\n      dup2\n        /* \"#utility.yul\":16554:16558   */\n      dup2\n        /* \"#utility.yul\":16550:16570   */\n      sub\n        /* \"#utility.yul\":16546:16547   */\n      0x00\n        /* \"#utility.yul\":16535:16544   */\n      dup4\n        /* \"#utility.yul\":16531:16548   */\n      add\n        /* \"#utility.yul\":16524:16571   */\n      mstore\n        /* \"#utility.yul\":16588:16719   */\n      tag_424\n        /* \"#utility.yul\":16714:16718   */\n      dup2\n        /* \"#utility.yul\":16588:16719   */\n      tag_274\n      jump\t// in\n    tag_424:\n        /* \"#utility.yul\":16580:16719   */\n      swap1\n      pop\n        /* \"#utility.yul\":16307:16726   */\n      swap2\n      swap1\n      pop\n      jump\t// out\n        /* \"#utility.yul\":16732:16954   */\n    tag_275:\n        /* \"#utility.yul\":16872:16906   */\n      0x4465706f736974206d757374206265206174206c6561737420302e3033206574\n        /* \"#utility.yul\":16868:16869   */\n      0x00\n        /* \"#utility.yul\":16860:16866   */\n      dup3\n        /* \"#utility.yul\":16856:16870   */\n      add\n        /* \"#utility.yul\":16849:16907   */\n      mstore\n        /* \"#utility.yul\":16941:16946   */\n      0x6865720000000000000000000000000000000000000000000000000000000000\n        /* \"#utility.yul\":16936:16938   */\n      0x20\n        /* \"#utility.yul\":16928:16934   */\n      dup3\n        /* \"#utility.yul\":16924:16939   */\n      add\n        /* \"#utility.yul\":16917:16947   */\n      mstore\n        /* \"#utility.yul\":16732:16954   */\n      pop\n      jump\t// out\n        /* \"#utility.yul\":16960:17326   */\n    tag_276:\n        /* \"#utility.yul\":17102:17105   */\n      0x00\n        /* \"#utility.yul\":17123:17190   */\n      tag_427\n        /* \"#utility.yul\":17187:17189   */\n      0x23\n        /* \"#utility.yul\":17182:17185   */\n      dup4\n        /* \"#utility.yul\":17123:17190   */\n      tag_253\n      jump\t// in\n    tag_427:\n        /* \"#utility.yul\":17116:17190   */\n      swap2\n      pop\n        /* \"#utility.yul\":17199:17292   */\n      tag_428\n        /* \"#utility.yul\":17288:17291   */\n      dup3\n        /* \"#utility.yul\":17199:17292   */\n      tag_275\n      jump\t// in\n    tag_428:\n        /* \"#utility.yul\":17317:17319   */\n      0x40\n        /* \"#utility.yul\":17312:17315   */\n      dup3\n        /* \"#utility.yul\":17308:17320   */\n      add\n        /* \"#utility.yul\":17301:17320   */\n      swap1\n      pop\n        /* \"#utility.yul\":16960:17326   */\n      swap2\n      swap1\n      pop\n      jump\t// out\n        /* \"#utility.yul\":17332:17751   */\n    tag_222:\n        /* \"#utility.yul\":17498:17502   */\n      0x00\n        /* \"#utility.yul\":17536:17538   */\n      0x20\n        /* \"#utility.yul\":17525:17534   */\n      dup3\n        /* \"#utility.yul\":17521:17539   */\n      add\n        /* \"#utility.yul\":17513:17539   */\n      swap1\n      pop\n        /* \"#utility.yul\":17585:17594   */\n      dup2\n        /* \"#utility.yul\":17579:17583   */\n      dup2\n        /* \"#utility.yul\":17575:17595   */\n      sub\n        /* \"#utility.yul\":17571:17572   */\n      0x00\n        /* \"#utility.yul\":17560:17569   */\n      dup4\n        /* \"#utility.yul\":17556:17573   */\n      add\n        /* \"#utility.yul\":17549:17596   */\n      mstore\n        /* \"#utility.yul\":17613:17744   */\n      tag_430\n        /* \"#utility.yul\":17739:17743   */\n      dup2\n        /* \"#utility.yul\":17613:17744   */\n      tag_276\n      jump\t// in\n    tag_430:\n        /* \"#utility.yul\":17605:17744   */\n      swap1\n      pop\n        /* \"#utility.yul\":17332:17751   */\n      swap2\n      swap1\n      pop\n      jump\t// out\n\n    auxdata: 0xa264697066735822122030c847f02680728ef372e4ac800e5bca895fea061e3d29ae1fa141a0ce21a11f64736f6c634300081a0033\n}\n",
				"bytecode": {
					"linkReferences": {},
					"object": "6080604052426001553480156012575f80fd5b50335f806101000a81548173ffffffffffffffffffffffffffffffffffffffff021916908373ffffffffffffffffffffffffffffffffffffffff160217905550611a118061005f5f395ff3fe60806040526004361061014e575f3560e01c80638da5cb5b116100b5578063c0f7a1bd1161006e578063c0f7a1bd1461049f578063c74e6d80146104c9578063d0e30db014610505578063ecda10f51461050f578063ed12e8ef14610539578063fa179d1d1461056357610155565b80638da5cb5b1461039357806391f2577b146103bd5780639315de85146103e7578063ad4f5ffc14610411578063af594ba81461044d578063b1e666031461047757610155565b80633976138511610107578063397613851461028b5780633af32abf146102b55780633ccfd60b146102f1578063548db1741461030757806354fe5dcb1461032f5780637f6497831461036b57610155565b80630ebb172a14610159578063178d4de5146101835780631820cabb146101bf57806319262d30146101e95780631e9217301461022557806334a014dc1461026157610155565b3661015557005b5f80fd5b348015610164575f80fd5b5061016d61058d565b60405161017a91906111a3565b60405180910390f35b34801561018e575f80fd5b506101a960048036038101906101a49190611227565b610593565b6040516101b6919061126c565b60405180910390f35b3480156101ca575f80fd5b506101d36105e5565b6040516101e091906111a3565b60405180910390f35b3480156101f4575f80fd5b5061020f600480360381019061020a9190611227565b6105ec565b60405161021c919061126c565b60405180910390f35b348015610230575f80fd5b5061024b60048036038101906102469190611227565b610788565b60405161025891906111a3565b60405180910390f35b34801561026c575f80fd5b5061027561079d565b60405161028291906111a3565b60405180910390f35b348015610296575f80fd5b5061029f6107a3565b6040516102ac9190611294565b60405180910390f35b3480156102c0575f80fd5b506102db60048036038101906102d69190611227565b6107c8565b6040516102e8919061126c565b60405180910390f35b3480156102fc575f80fd5b506103056107e5565b005b348015610312575f80fd5b5061032d6004803603810190610328919061130e565b610ac5565b005b34801561033a575f80fd5b5061035560048036038101906103509190611227565b610c61565b60405161036291906111a3565b60405180910390f35b348015610376575f80fd5b50610391600480360381019061038c919061130e565b610c76565b005b34801561039e575f80fd5b506103a7610e14565b6040516103b49190611294565b60405180910390f35b3480156103c8575f80fd5b506103d1610e37565b6040516103de91906111a3565b60405180910390f35b3480156103f2575f80fd5b506103fb610e42565b6040516104089190611371565b60405180910390f35b34801561041c575f80fd5b5061043760048036038101906104329190611227565b610e68565b604051610444919061126c565b60405180910390f35b348015610458575f80fd5b50610461610e85565b60405161046e91906111a3565b60405180910390f35b348015610482575f80fd5b5061049d600480360381019061049891906114c2565b610e90565b005b3480156104aa575f80fd5b506104b3610f72565b6040516104c091906111a3565b60405180910390f35b3480156104d4575f80fd5b506104ef60048036038101906104ea9190611227565b610f7d565b6040516104fc91906111a3565b60405180910390f35b61050d6110d4565b005b34801561051a575f80fd5b50610523611173565b60405161053091906111a3565b60405180910390f35b348015610544575f80fd5b5061054d611179565b60405161055a91906111a3565b60405180910390f35b34801561056e575f80fd5b50610577611180565b60405161058491906111a3565b60405180910390f35b610e1081565b5f60045f8373ffffffffffffffffffffffffffffffffffffffff1673ffffffffffffffffffffffffffffffffffffffff1681526020019081526020015f205f9054906101000a900460ff169050919050565b6202a30081565b5f6202a3006001546105fe9190611536565b42101561060d575f9050610783565b60065f9054906101000a900473ffffffffffffffffffffffffffffffffffffffff1673ffffffffffffffffffffffffffffffffffffffff168273ffffffffffffffffffffffffffffffffffffffff161480156106775750610e106007546106749190611536565b42105b15610684575f9050610783565b60045f8373ffffffffffffffffffffffffffffffffffffffff1673ffffffffffffffffffffffffffffffffffffffff1681526020019081526020015f205f9054906101000a900460ff16158015610722575060055f8373ffffffffffffffffffffffffffffffffffffffff1673ffffffffffffffffffffffffffffffffffffffff1681526020019081526020015f205f9054906101000a900460ff16155b80156107715750666a94d74f43000060025f8473ffffffffffffffffffffffffffffffffffffffff1673ffffffffffffffffffffffffffffffffffffffff1681526020019081526020015f2054105b1561077e575f9050610783565b600190505b919050565b6002602052805f5260405f205f915090505481565b60075481565b60065f9054906101000a900473ffffffffffffffffffffffffffffffffffffffff1681565b6004602052805f5260405f205f915054906101000a900460ff1681565b6202a3006001546107f69190611536565b421015610838576040517f08c379a000000000000000000000000000000000000000000000000000000000815260040161082f906115c3565b60405180910390fd5b60065f9054906101000a900473ffffffffffffffffffffffffffffffffffffffff1673ffffffffffffffffffffffffffffffffffffffff163373ffffffffffffffffffffffffffffffffffffffff161415806108a35750610e1060075461089f9190611536565b4210155b6108e2576040517f08c379a00000000000000000000000000000000000000000000000000000000081526004016108d99061162b565b60405180910390fd5b5f6108ec33610f7d565b905080471015610931576040517f08c379a000000000000000000000000000000000000000000000000000000000815260040161092890611693565b60405180910390fd5b3360065f6101000a81548173ffffffffffffffffffffffffffffffffffffffff021916908373ffffffffffffffffffffffffffffffffffffffff160217905550426007819055508060035f3373ffffffffffffffffffffffffffffffffffffffff1673ffffffffffffffffffffffffffffffffffffffff1681526020019081526020015f205f8282546109c49190611536565b925050819055505f3373ffffffffffffffffffffffffffffffffffffffff16826040516109f0906116de565b5f6040518083038185875af1925050503d805f8114610a2a576040519150601f19603f3d011682016040523d82523d5f602084013e610a2f565b606091505b5050905080610a73576040517f08c379a0000000000000000000000000000000000000000000000000000000008152600401610a6a9061173c565b60405180910390fd5b3373ffffffffffffffffffffffffffffffffffffffff167f7084f5476618d8e60b11ef0d7d3f06914655adb8793e28ff7f018d4c76d505d583604051610ab991906111a3565b60405180910390a25050565b5f8054906101000a900473ffffffffffffffffffffffffffffffffffffffff1673ffffffffffffffffffffffffffffffffffffffff163373ffffffffffffffffffffffffffffffffffffffff1614610b52576040517f08c379a0000000000000000000000000000000000000000000000000000000008152600401610b49906117ca565b60405180910390fd5b5f5b82829050811015610c5c575f60045f858585818110610b7657610b756117e8565b5b9050602002016020810190610b8b9190611227565b73ffffffffffffffffffffffffffffffffffffffff1673ffffffffffffffffffffffffffffffffffffffff1681526020019081526020015f205f6101000a81548160ff021916908315150217905550828282818110610bed57610bec6117e8565b5b9050602002016020810190610c029190611227565b73ffffffffffffffffffffffffffffffffffffffff167fa54714518c5d275fdcd3d2a461e4858e4e8cb04fb93cd0bca9d6d34115f264405f604051610c47919061126c565b60405180910390a28080600101915050610b54565b505050565b6003602052805f5260405f205f915090505481565b5f8054906101000a900473ffffffffffffffffffffffffffffffffffffffff1673ffffffffffffffffffffffffffffffffffffffff163373ffffffffffffffffffffffffffffffffffffffff1614610d03576040517f08c379a0000000000000000000000000000000000000000000000000000000008152600401610cfa906117ca565b60405180910390fd5b5f5b82829050811015610e0f57600160045f858585818110610d2857610d276117e8565b5b9050602002016020810190610d3d9190611227565b73ffffffffffffffffffffffffffffffffffffffff1673ffffffffffffffffffffffffffffffffffffffff1681526020019081526020015f205f6101000a81548160ff021916908315150217905550828282818110610d9f57610d9e6117e8565b5b9050602002016020810190610db49190611227565b73ffffffffffffffffffffffffffffffffffffffff167fa54714518c5d275fdcd3d2a461e4858e4e8cb04fb93cd0bca9d6d34115f264406001604051610dfa919061126c565b60405180910390a28080600101915050610d05565b505050565b5f8054906101000a900473ffffffffffffffffffffffffffffffffffffffff1681565b666a94d74f43000081565b7fe12a28df6f8731c94ade6605c8f457c16b3f591ecc3be3d092af1f56215a3da25f1b81565b6005602052805f5260405f205f915054906101000a900460ff1681565b660aa87bee53800081565b7fe12a28df6f8731c94ade6605c8f457c16b3f591ecc3be3d092af1f56215a3da25f1b81604051602001610ec49190611867565b6040516020818303038152906040528051906020012014610f1a576040517f08c379a0000000000000000000000000000000000000000000000000000000008152600401610f11906118c7565b60405180910390fd5b600160055f3373ffffffffffffffffffffffffffffffffffffffff1673ffffffffffffffffffffffffffffffffffffffff1681526020019081526020015f205f6101000a81548160ff02191690831515021790555050565b6601c6bf5263400081565b5f666a94d74f43000060025f8473ffffffffffffffffffffffffffffffffffffffff1673ffffffffffffffffffffffffffffffffffffffff1681526020019081526020015f205410610fd857660aa87bee53800090506110cf565b60055f8373ffffffffffffffffffffffffffffffffffffffff1673ffffffffffffffffffffffffffffffffffffffff1681526020019081526020015f205f9054906101000a900460ff16156110365766038d7ea4c6800090506110cf565b60045f8373ffffffffffffffffffffffffffffffffffffffff1673ffffffffffffffffffffffffffffffffffffffff1681526020019081526020015f205f9054906101000a900460ff1615611094576601c6bf5263400090506110cf565b6040517f08c379a00000000000000000000000000000000000000000000000000000000081526004016110c69061192f565b60405180910390fd5b919050565b666a94d74f43000034101561111e576040517f08c379a0000000000000000000000000000000000000000000000000000000008152600401611115906119bd565b60405180910390fd5b3460025f3373ffffffffffffffffffffffffffffffffffffffff1673ffffffffffffffffffffffffffffffffffffffff1681526020019081526020015f205f82825461116a9190611536565b92505081905550565b60015481565b5f47905090565b66038d7ea4c6800081565b5f819050919050565b61119d8161118b565b82525050565b5f6020820190506111b65f830184611194565b92915050565b5f604051905090565b5f80fd5b5f80fd5b5f73ffffffffffffffffffffffffffffffffffffffff82169050919050565b5f6111f6826111cd565b9050919050565b611206816111ec565b8114611210575f80fd5b50565b5f81359050611221816111fd565b92915050565b5f6020828403121561123c5761123b6111c5565b5b5f61124984828501611213565b91505092915050565b5f8115159050919050565b61126681611252565b82525050565b5f60208201905061127f5f83018461125d565b92915050565b61128e816111ec565b82525050565b5f6020820190506112a75f830184611285565b92915050565b5f80fd5b5f80fd5b5f80fd5b5f8083601f8401126112ce576112cd6112ad565b5b8235905067ffffffffffffffff8111156112eb576112ea6112b1565b5b602083019150836020820283011115611307576113066112b5565b5b9250929050565b5f8060208385031215611324576113236111c5565b5b5f83013567ffffffffffffffff811115611341576113406111c9565b5b61134d858286016112b9565b92509250509250929050565b5f819050919050565b61136b81611359565b82525050565b5f6020820190506113845f830184611362565b92915050565b5f80fd5b5f601f19601f8301169050919050565b7f4e487b71000000000000000000000000000000000000000000000000000000005f52604160045260245ffd5b6113d48261138e565b810181811067ffffffffffffffff821117156113f3576113f261139e565b5b80604052505050565b5f6114056111bc565b905061141182826113cb565b919050565b5f67ffffffffffffffff8211156114305761142f61139e565b5b6114398261138e565b9050602081019050919050565b828183375f83830152505050565b5f61146661146184611416565b6113fc565b9050828152602081018484840111156114825761148161138a565b5b61148d848285611446565b509392505050565b5f82601f8301126114a9576114a86112ad565b5b81356114b9848260208601611454565b91505092915050565b5f602082840312156114d7576114d66111c5565b5b5f82013567ffffffffffffffff8111156114f4576114f36111c9565b5b61150084828501611495565b91505092915050565b7f4e487b71000000000000000000000000000000000000000000000000000000005f52601160045260245ffd5b5f6115408261118b565b915061154b8361118b565b925082820190508082111561156357611562611509565b5b92915050565b5f82825260208201905092915050565b7f5769746864726177616c7320617265206c6f636b6564000000000000000000005f82015250565b5f6115ad601683611569565b91506115b882611579565b602082019050919050565b5f6020820190508181035f8301526115da816115a1565b9050919050565b7f4c6173742077697468647261776572206d7573742077616974203120686f75725f82015250565b5f611615602083611569565b9150611620826115e1565b602082019050919050565b5f6020820190508181035f83015261164281611609565b9050919050565b7f496e73756666696369656e742062616c616e636520696e207661756c740000005f82015250565b5f61167d601d83611569565b915061168882611649565b602082019050919050565b5f6020820190508181035f8301526116aa81611671565b9050919050565b5f81905092915050565b50565b5f6116c95f836116b1565b91506116d4826116bb565b5f82019050919050565b5f6116e8826116be565b9150819050919050565b7f4661696c656420746f2073656e642045746865720000000000000000000000005f82015250565b5f611726601483611569565b9150611731826116f2565b602082019050919050565b5f6020820190508181035f8301526117538161171a565b9050919050565b7f4f6e6c79206f776e65722063616e2063616c6c20746869732066756e6374696f5f8201527f6e00000000000000000000000000000000000000000000000000000000000000602082015250565b5f6117b4602183611569565b91506117bf8261175a565b604082019050919050565b5f6020820190508181035f8301526117e1816117a8565b9050919050565b7f4e487b71000000000000000000000000000000000000000000000000000000005f52603260045260245ffd5b5f81519050919050565b5f81905092915050565b8281835e5f83830152505050565b5f61184182611815565b61184b818561181f565b935061185b818560208601611829565b80840191505092915050565b5f6118728284611837565b915081905092915050565b7f57726f6e672067756573730000000000000000000000000000000000000000005f82015250565b5f6118b1600b83611569565b91506118bc8261187d565b602082019050919050565b5f6020820190508181035f8301526118de816118a5565b9050919050565b7f4e6f7420656c696769626c6520666f72207769746864726177616c00000000005f82015250565b5f611919601b83611569565b9150611924826118e5565b602082019050919050565b5f6020820190508181035f8301526119468161190d565b9050919050565b7f4465706f736974206d757374206265206174206c6561737420302e30332065745f8201527f6865720000000000000000000000000000000000000000000000000000000000602082015250565b5f6119a7602383611569565b91506119b28261194d565b604082019050919050565b5f6020820190508181035f8301526119d48161199b565b905091905056fea264697066735822122030c847f02680728ef372e4ac800e5bca895fea061e3d29ae1fa141a0ce21a11f64736f6c634300081a0033",
					"opcodes": "PUSH1 0x80 PUSH1 0x40 MSTORE TIMESTAMP PUSH1 0x1 SSTORE CALLVALUE DUP1 ISZERO PUSH1 0x12 JUMPI PUSH0 DUP1 REVERT JUMPDEST POP CALLER PUSH0 DUP1 PUSH2 0x100 EXP DUP2 SLOAD DUP2 PUSH20 0xFFFFFFFFFFFFFFFFFFFFFFFFFFFFFFFFFFFFFFFF MUL NOT AND SWAP1 DUP4 PUSH20 0xFFFFFFFFFFFFFFFFFFFFFFFFFFFFFFFFFFFFFFFF AND MUL OR SWAP1 SSTORE POP PUSH2 0x1A11 DUP1 PUSH2 0x5F PUSH0 CODECOPY PUSH0 RETURN INVALID PUSH1 0x80 PUSH1 0x40 MSTORE PUSH1 0x4 CALLDATASIZE LT PUSH2 0x14E JUMPI PUSH0 CALLDATALOAD PUSH1 0xE0 SHR DUP1 PUSH4 0x8DA5CB5B GT PUSH2 0xB5 JUMPI DUP1 PUSH4 0xC0F7A1BD GT PUSH2 0x6E JUMPI DUP1 PUSH4 0xC0F7A1BD EQ PUSH2 0x49F JUMPI DUP1 PUSH4 0xC74E6D80 EQ PUSH2 0x4C9 JUMPI DUP1 PUSH4 0xD0E30DB0 EQ PUSH2 0x505 JUMPI DUP1 PUSH4 0xECDA10F5 EQ PUSH2 0x50F JUMPI DUP1 PUSH4 0xED12E8EF EQ PUSH2 0x539 JUMPI DUP1 PUSH4 0xFA179D1D EQ PUSH2 0x563 JUMPI PUSH2 0x155 JUMP JUMPDEST DUP1 PUSH4 0x8DA5CB5B EQ PUSH2 0x393 JUMPI DUP1 PUSH4 0x91F2577B EQ PUSH2 0x3BD JUMPI DUP1 PUSH4 0x9315DE85 EQ PUSH2 0x3E7 JUMPI DUP1 PUSH4 0xAD4F5FFC EQ PUSH2 0x411 JUMPI DUP1 PUSH4 0xAF594BA8 EQ PUSH2 0x44D JUMPI DUP1 PUSH4 0xB1E66603 EQ PUSH2 0x477 JUMPI PUSH2 0x155 JUMP JUMPDEST DUP1 PUSH4 0x39761385 GT PUSH2 0x107 JUMPI DUP1 PUSH4 0x39761385 EQ PUSH2 0x28B JUMPI DUP1 PUSH4 0x3AF32ABF EQ PUSH2 0x2B5 JUMPI DUP1 PUSH4 0x3CCFD60B EQ PUSH2 0x2F1 JUMPI DUP1 PUSH4 0x548DB174 EQ PUSH2 0x307 JUMPI DUP1 PUSH4 0x54FE5DCB EQ PUSH2 0x32F JUMPI DUP1 PUSH4 0x7F649783 EQ PUSH2 0x36B JUMPI PUSH2 0x155 JUMP JUMPDEST DUP1 PUSH4 0xEBB172A EQ PUSH2 0x159 JUMPI DUP1 PUSH4 0x178D4DE5 EQ PUSH2 0x183 JUMPI DUP1 PUSH4 0x1820CABB EQ PUSH2 0x1BF JUMPI DUP1 PUSH4 0x19262D30 EQ PUSH2 0x1E9 JUMPI DUP1 PUSH4 0x1E921730 EQ PUSH2 0x225 JUMPI DUP1 PUSH4 0x34A014DC EQ PUSH2 0x261 JUMPI PUSH2 0x155 JUMP JUMPDEST CALLDATASIZE PUSH2 0x155 JUMPI STOP JUMPDEST PUSH0 DUP1 REVERT JUMPDEST CALLVALUE DUP1 ISZERO PUSH2 0x164 JUMPI PUSH0 DUP1 REVERT JUMPDEST POP PUSH2 0x16D PUSH2 0x58D JUMP JUMPDEST PUSH1 0x40 MLOAD PUSH2 0x17A SWAP2 SWAP1 PUSH2 0x11A3 JUMP JUMPDEST PUSH1 0x40 MLOAD DUP1 SWAP2 SUB SWAP1 RETURN JUMPDEST CALLVALUE DUP1 ISZERO PUSH2 0x18E JUMPI PUSH0 DUP1 REVERT JUMPDEST POP PUSH2 0x1A9 PUSH1 0x4 DUP1 CALLDATASIZE SUB DUP2 ADD SWAP1 PUSH2 0x1A4 SWAP2 SWAP1 PUSH2 0x1227 JUMP JUMPDEST PUSH2 0x593 JUMP JUMPDEST PUSH1 0x40 MLOAD PUSH2 0x1B6 SWAP2 SWAP1 PUSH2 0x126C JUMP JUMPDEST PUSH1 0x40 MLOAD DUP1 SWAP2 SUB SWAP1 RETURN JUMPDEST CALLVALUE DUP1 ISZERO PUSH2 0x1CA JUMPI PUSH0 DUP1 REVERT JUMPDEST POP PUSH2 0x1D3 PUSH2 0x5E5 JUMP JUMPDEST PUSH1 0x40 MLOAD PUSH2 0x1E0 SWAP2 SWAP1 PUSH2 0x11A3 JUMP JUMPDEST PUSH1 0x40 MLOAD DUP1 SWAP2 SUB SWAP1 RETURN JUMPDEST CALLVALUE DUP1 ISZERO PUSH2 0x1F4 JUMPI PUSH0 DUP1 REVERT JUMPDEST POP PUSH2 0x20F PUSH1 0x4 DUP1 CALLDATASIZE SUB DUP2 ADD SWAP1 PUSH2 0x20A SWAP2 SWAP1 PUSH2 0x1227 JUMP JUMPDEST PUSH2 0x5EC JUMP JUMPDEST PUSH1 0x40 MLOAD PUSH2 0x21C SWAP2 SWAP1 PUSH2 0x126C JUMP JUMPDEST PUSH1 0x40 MLOAD DUP1 SWAP2 SUB SWAP1 RETURN JUMPDEST CALLVALUE DUP1 ISZERO PUSH2 0x230 JUMPI PUSH0 DUP1 REVERT JUMPDEST POP PUSH2 0x24B PUSH1 0x4 DUP1 CALLDATASIZE SUB DUP2 ADD SWAP1 PUSH2 0x246 SWAP2 SWAP1 PUSH2 0x1227 JUMP JUMPDEST PUSH2 0x788 JUMP JUMPDEST PUSH1 0x40 MLOAD PUSH2 0x258 SWAP2 SWAP1 PUSH2 0x11A3 JUMP JUMPDEST PUSH1 0x40 MLOAD DUP1 SWAP2 SUB SWAP1 RETURN JUMPDEST CALLVALUE DUP1 ISZERO PUSH2 0x26C JUMPI PUSH0 DUP1 REVERT JUMPDEST POP PUSH2 0x275 PUSH2 0x79D JUMP JUMPDEST PUSH1 0x40 MLOAD PUSH2 0x282 SWAP2 SWAP1 PUSH2 0x11A3 JUMP JUMPDEST PUSH1 0x40 MLOAD DUP1 SWAP2 SUB SWAP1 RETURN JUMPDEST CALLVALUE DUP1 ISZERO PUSH2 0x296 JUMPI PUSH0 DUP1 REVERT JUMPDEST POP PUSH2 0x29F PUSH2 0x7A3 JUMP JUMPDEST PUSH1 0x40 MLOAD PUSH2 0x2AC SWAP2 SWAP1 PUSH2 0x1294 JUMP JUMPDEST PUSH1 0x40 MLOAD DUP1 SWAP2 SUB SWAP1 RETURN JUMPDEST CALLVALUE DUP1 ISZERO PUSH2 0x2C0 JUMPI PUSH0 DUP1 REVERT JUMPDEST POP PUSH2 0x2DB PUSH1 0x4 DUP1 CALLDATASIZE SUB DUP2 ADD SWAP1 PUSH2 0x2D6 SWAP2 SWAP1 PUSH2 0x1227 JUMP JUMPDEST PUSH2 0x7C8 JUMP JUMPDEST PUSH1 0x40 MLOAD PUSH2 0x2E8 SWAP2 SWAP1 PUSH2 0x126C JUMP JUMPDEST PUSH1 0x40 MLOAD DUP1 SWAP2 SUB SWAP1 RETURN JUMPDEST CALLVALUE DUP1 ISZERO PUSH2 0x2FC JUMPI PUSH0 DUP1 REVERT JUMPDEST POP PUSH2 0x305 PUSH2 0x7E5 JUMP JUMPDEST STOP JUMPDEST CALLVALUE DUP1 ISZERO PUSH2 0x312 JUMPI PUSH0 DUP1 REVERT JUMPDEST POP PUSH2 0x32D PUSH1 0x4 DUP1 CALLDATASIZE SUB DUP2 ADD SWAP1 PUSH2 0x328 SWAP2 SWAP1 PUSH2 0x130E JUMP JUMPDEST PUSH2 0xAC5 JUMP JUMPDEST STOP JUMPDEST CALLVALUE DUP1 ISZERO PUSH2 0x33A JUMPI PUSH0 DUP1 REVERT JUMPDEST POP PUSH2 0x355 PUSH1 0x4 DUP1 CALLDATASIZE SUB DUP2 ADD SWAP1 PUSH2 0x350 SWAP2 SWAP1 PUSH2 0x1227 JUMP JUMPDEST PUSH2 0xC61 JUMP JUMPDEST PUSH1 0x40 MLOAD PUSH2 0x362 SWAP2 SWAP1 PUSH2 0x11A3 JUMP JUMPDEST PUSH1 0x40 MLOAD DUP1 SWAP2 SUB SWAP1 RETURN JUMPDEST CALLVALUE DUP1 ISZERO PUSH2 0x376 JUMPI PUSH0 DUP1 REVERT JUMPDEST POP PUSH2 0x391 PUSH1 0x4 DUP1 CALLDATASIZE SUB DUP2 ADD SWAP1 PUSH2 0x38C SWAP2 SWAP1 PUSH2 0x130E JUMP JUMPDEST PUSH2 0xC76 JUMP JUMPDEST STOP JUMPDEST CALLVALUE DUP1 ISZERO PUSH2 0x39E JUMPI PUSH0 DUP1 REVERT JUMPDEST POP PUSH2 0x3A7 PUSH2 0xE14 JUMP JUMPDEST PUSH1 0x40 MLOAD PUSH2 0x3B4 SWAP2 SWAP1 PUSH2 0x1294 JUMP JUMPDEST PUSH1 0x40 MLOAD DUP1 SWAP2 SUB SWAP1 RETURN JUMPDEST CALLVALUE DUP1 ISZERO PUSH2 0x3C8 JUMPI PUSH0 DUP1 REVERT JUMPDEST POP PUSH2 0x3D1 PUSH2 0xE37 JUMP JUMPDEST PUSH1 0x40 MLOAD PUSH2 0x3DE SWAP2 SWAP1 PUSH2 0x11A3 JUMP JUMPDEST PUSH1 0x40 MLOAD DUP1 SWAP2 SUB SWAP1 RETURN JUMPDEST CALLVALUE DUP1 ISZERO PUSH2 0x3F2 JUMPI PUSH0 DUP1 REVERT JUMPDEST POP PUSH2 0x3FB PUSH2 0xE42 JUMP JUMPDEST PUSH1 0x40 MLOAD PUSH2 0x408 SWAP2 SWAP1 PUSH2 0x1371 JUMP JUMPDEST PUSH1 0x40 MLOAD DUP1 SWAP2 SUB SWAP1 RETURN JUMPDEST CALLVALUE DUP1 ISZERO PUSH2 0x41C JUMPI PUSH0 DUP1 REVERT JUMPDEST POP PUSH2 0x437 PUSH1 0x4 DUP1 CALLDATASIZE SUB DUP2 ADD SWAP1 PUSH2 0x432 SWAP2 SWAP1 PUSH2 0x1227 JUMP JUMPDEST PUSH2 0xE68 JUMP JUMPDEST PUSH1 0x40 MLOAD PUSH2 0x444 SWAP2 SWAP1 PUSH2 0x126C JUMP JUMPDEST PUSH1 0x40 MLOAD DUP1 SWAP2 SUB SWAP1 RETURN JUMPDEST CALLVALUE DUP1 ISZERO PUSH2 0x458 JUMPI PUSH0 DUP1 REVERT JUMPDEST POP PUSH2 0x461 PUSH2 0xE85 JUMP JUMPDEST PUSH1 0x40 MLOAD PUSH2 0x46E SWAP2 SWAP1 PUSH2 0x11A3 JUMP JUMPDEST PUSH1 0x40 MLOAD DUP1 SWAP2 SUB SWAP1 RETURN JUMPDEST CALLVALUE DUP1 ISZERO PUSH2 0x482 JUMPI PUSH0 DUP1 REVERT JUMPDEST POP PUSH2 0x49D PUSH1 0x4 DUP1 CALLDATASIZE SUB DUP2 ADD SWAP1 PUSH2 0x498 SWAP2 SWAP1 PUSH2 0x14C2 JUMP JUMPDEST PUSH2 0xE90 JUMP JUMPDEST STOP JUMPDEST CALLVALUE DUP1 ISZERO PUSH2 0x4AA JUMPI PUSH0 DUP1 REVERT JUMPDEST POP PUSH2 0x4B3 PUSH2 0xF72 JUMP JUMPDEST PUSH1 0x40 MLOAD PUSH2 0x4C0 SWAP2 SWAP1 PUSH2 0x11A3 JUMP JUMPDEST PUSH1 0x40 MLOAD DUP1 SWAP2 SUB SWAP1 RETURN JUMPDEST CALLVALUE DUP1 ISZERO PUSH2 0x4D4 JUMPI PUSH0 DUP1 REVERT JUMPDEST POP PUSH2 0x4EF PUSH1 0x4 DUP1 CALLDATASIZE SUB DUP2 ADD SWAP1 PUSH2 0x4EA SWAP2 SWAP1 PUSH2 0x1227 JUMP JUMPDEST PUSH2 0xF7D JUMP JUMPDEST PUSH1 0x40 MLOAD PUSH2 0x4FC SWAP2 SWAP1 PUSH2 0x11A3 JUMP JUMPDEST PUSH1 0x40 MLOAD DUP1 SWAP2 SUB SWAP1 RETURN JUMPDEST PUSH2 0x50D PUSH2 0x10D4 JUMP JUMPDEST STOP JUMPDEST CALLVALUE DUP1 ISZERO PUSH2 0x51A JUMPI PUSH0 DUP1 REVERT JUMPDEST POP PUSH2 0x523 PUSH2 0x1173 JUMP JUMPDEST PUSH1 0x40 MLOAD PUSH2 0x530 SWAP2 SWAP1 PUSH2 0x11A3 JUMP JUMPDEST PUSH1 0x40 MLOAD DUP1 SWAP2 SUB SWAP1 RETURN JUMPDEST CALLVALUE DUP1 ISZERO PUSH2 0x544 JUMPI PUSH0 DUP1 REVERT JUMPDEST POP PUSH2 0x54D PUSH2 0x1179 JUMP JUMPDEST PUSH1 0x40 MLOAD PUSH2 0x55A SWAP2 SWAP1 PUSH2 0x11A3 JUMP JUMPDEST PUSH1 0x40 MLOAD DUP1 SWAP2 SUB SWAP1 RETURN JUMPDEST CALLVALUE DUP1 ISZERO PUSH2 0x56E JUMPI PUSH0 DUP1 REVERT JUMPDEST POP PUSH2 0x577 PUSH2 0x1180 JUMP JUMPDEST PUSH1 0x40 MLOAD PUSH2 0x584 SWAP2 SWAP1 PUSH2 0x11A3 JUMP JUMPDEST PUSH1 0x40 MLOAD DUP1 SWAP2 SUB SWAP1 RETURN JUMPDEST PUSH2 0xE10 DUP2 JUMP JUMPDEST PUSH0 PUSH1 0x4 PUSH0 DUP4 PUSH20 0xFFFFFFFFFFFFFFFFFFFFFFFFFFFFFFFFFFFFFFFF AND PUSH20 0xFFFFFFFFFFFFFFFFFFFFFFFFFFFFFFFFFFFFFFFF AND DUP2 MSTORE PUSH1 0x20 ADD SWAP1 DUP2 MSTORE PUSH1 0x20 ADD PUSH0 KECCAK256 PUSH0 SWAP1 SLOAD SWAP1 PUSH2 0x100 EXP SWAP1 DIV PUSH1 0xFF AND SWAP1 POP SWAP2 SWAP1 POP JUMP JUMPDEST PUSH3 0x2A300 DUP2 JUMP JUMPDEST PUSH0 PUSH3 0x2A300 PUSH1 0x1 SLOAD PUSH2 0x5FE SWAP2 SWAP1 PUSH2 0x1536 JUMP JUMPDEST TIMESTAMP LT ISZERO PUSH2 0x60D JUMPI PUSH0 SWAP1 POP PUSH2 0x783 JUMP JUMPDEST PUSH1 0x6 PUSH0 SWAP1 SLOAD SWAP1 PUSH2 0x100 EXP SWAP1 DIV PUSH20 0xFFFFFFFFFFFFFFFFFFFFFFFFFFFFFFFFFFFFFFFF AND PUSH20 0xFFFFFFFFFFFFFFFFFFFFFFFFFFFFFFFFFFFFFFFF AND DUP3 PUSH20 0xFFFFFFFFFFFFFFFFFFFFFFFFFFFFFFFFFFFFFFFF AND EQ DUP1 ISZERO PUSH2 0x677 JUMPI POP PUSH2 0xE10 PUSH1 0x7 SLOAD PUSH2 0x674 SWAP2 SWAP1 PUSH2 0x1536 JUMP JUMPDEST TIMESTAMP LT JUMPDEST ISZERO PUSH2 0x684 JUMPI PUSH0 SWAP1 POP PUSH2 0x783 JUMP JUMPDEST PUSH1 0x4 PUSH0 DUP4 PUSH20 0xFFFFFFFFFFFFFFFFFFFFFFFFFFFFFFFFFFFFFFFF AND PUSH20 0xFFFFFFFFFFFFFFFFFFFFFFFFFFFFFFFFFFFFFFFF AND DUP2 MSTORE PUSH1 0x20 ADD SWAP1 DUP2 MSTORE PUSH1 0x20 ADD PUSH0 KECCAK256 PUSH0 SWAP1 SLOAD SWAP1 PUSH2 0x100 EXP SWAP1 DIV PUSH1 0xFF AND ISZERO DUP1 ISZERO PUSH2 0x722 JUMPI POP PUSH1 0x5 PUSH0 DUP4 PUSH20 0xFFFFFFFFFFFFFFFFFFFFFFFFFFFFFFFFFFFFFFFF AND PUSH20 0xFFFFFFFFFFFFFFFFFFFFFFFFFFFFFFFFFFFFFFFF AND DUP2 MSTORE PUSH1 0x20 ADD SWAP1 DUP2 MSTORE PUSH1 0x20 ADD PUSH0 KECCAK256 PUSH0 SWAP1 SLOAD SWAP1 PUSH2 0x100 EXP SWAP1 DIV PUSH1 0xFF AND ISZERO JUMPDEST DUP1 ISZERO PUSH2 0x771 JUMPI POP PUSH7 0x6A94D74F430000 PUSH1 0x2 PUSH0 DUP5 PUSH20 0xFFFFFFFFFFFFFFFFFFFFFFFFFFFFFFFFFFFFFFFF AND PUSH20 0xFFFFFFFFFFFFFFFFFFFFFFFFFFFFFFFFFFFFFFFF AND DUP2 MSTORE PUSH1 0x20 ADD SWAP1 DUP2 MSTORE PUSH1 0x20 ADD PUSH0 KECCAK256 SLOAD LT JUMPDEST ISZERO PUSH2 0x77E JUMPI PUSH0 SWAP1 POP PUSH2 0x783 JUMP JUMPDEST PUSH1 0x1 SWAP1 POP JUMPDEST SWAP2 SWAP1 POP JUMP JUMPDEST PUSH1 0x2 PUSH1 0x20 MSTORE DUP1 PUSH0 MSTORE PUSH1 0x40 PUSH0 KECCAK256 PUSH0 SWAP2 POP SWAP1 POP SLOAD DUP2 JUMP JUMPDEST PUSH1 0x7 SLOAD DUP2 JUMP JUMPDEST PUSH1 0x6 PUSH0 SWAP1 SLOAD SWAP1 PUSH2 0x100 EXP SWAP1 DIV PUSH20 0xFFFFFFFFFFFFFFFFFFFFFFFFFFFFFFFFFFFFFFFF AND DUP2 JUMP JUMPDEST PUSH1 0x4 PUSH1 0x20 MSTORE DUP1 PUSH0 MSTORE PUSH1 0x40 PUSH0 KECCAK256 PUSH0 SWAP2 POP SLOAD SWAP1 PUSH2 0x100 EXP SWAP1 DIV PUSH1 0xFF AND DUP2 JUMP JUMPDEST PUSH3 0x2A300 PUSH1 0x1 SLOAD PUSH2 0x7F6 SWAP2 SWAP1 PUSH2 0x1536 JUMP JUMPDEST TIMESTAMP LT ISZERO PUSH2 0x838 JUMPI PUSH1 0x40 MLOAD PUSH32 0x8C379A000000000000000000000000000000000000000000000000000000000 DUP2 MSTORE PUSH1 0x4 ADD PUSH2 0x82F SWAP1 PUSH2 0x15C3 JUMP JUMPDEST PUSH1 0x40 MLOAD DUP1 SWAP2 SUB SWAP1 REVERT JUMPDEST PUSH1 0x6 PUSH0 SWAP1 SLOAD SWAP1 PUSH2 0x100 EXP SWAP1 DIV PUSH20 0xFFFFFFFFFFFFFFFFFFFFFFFFFFFFFFFFFFFFFFFF AND PUSH20 0xFFFFFFFFFFFFFFFFFFFFFFFFFFFFFFFFFFFFFFFF AND CALLER PUSH20 0xFFFFFFFFFFFFFFFFFFFFFFFFFFFFFFFFFFFFFFFF AND EQ ISZERO DUP1 PUSH2 0x8A3 JUMPI POP PUSH2 0xE10 PUSH1 0x7 SLOAD PUSH2 0x89F SWAP2 SWAP1 PUSH2 0x1536 JUMP JUMPDEST TIMESTAMP LT ISZERO JUMPDEST PUSH2 0x8E2 JUMPI PUSH1 0x40 MLOAD PUSH32 0x8C379A000000000000000000000000000000000000000000000000000000000 DUP2 MSTORE PUSH1 0x4 ADD PUSH2 0x8D9 SWAP1 PUSH2 0x162B JUMP JUMPDEST PUSH1 0x40 MLOAD DUP1 SWAP2 SUB SWAP1 REVERT JUMPDEST PUSH0 PUSH2 0x8EC CALLER PUSH2 0xF7D JUMP JUMPDEST SWAP1 POP DUP1 SELFBALANCE LT ISZERO PUSH2 0x931 JUMPI PUSH1 0x40 MLOAD PUSH32 0x8C379A000000000000000000000000000000000000000000000000000000000 DUP2 MSTORE PUSH1 0x4 ADD PUSH2 0x928 SWAP1 PUSH2 0x1693 JUMP JUMPDEST PUSH1 0x40 MLOAD DUP1 SWAP2 SUB SWAP1 REVERT JUMPDEST CALLER PUSH1 0x6 PUSH0 PUSH2 0x100 EXP DUP2 SLOAD DUP2 PUSH20 0xFFFFFFFFFFFFFFFFFFFFFFFFFFFFFFFFFFFFFFFF MUL NOT AND SWAP1 DUP4 PUSH20 0xFFFFFFFFFFFFFFFFFFFFFFFFFFFFFFFFFFFFFFFF AND MUL OR SWAP1 SSTORE POP TIMESTAMP PUSH1 0x7 DUP2 SWAP1 SSTORE POP DUP1 PUSH1 0x3 PUSH0 CALLER PUSH20 0xFFFFFFFFFFFFFFFFFFFFFFFFFFFFFFFFFFFFFFFF AND PUSH20 0xFFFFFFFFFFFFFFFFFFFFFFFFFFFFFFFFFFFFFFFF AND DUP2 MSTORE PUSH1 0x20 ADD SWAP1 DUP2 MSTORE PUSH1 0x20 ADD PUSH0 KECCAK256 PUSH0 DUP3 DUP3 SLOAD PUSH2 0x9C4 SWAP2 SWAP1 PUSH2 0x1536 JUMP JUMPDEST SWAP3 POP POP DUP2 SWAP1 SSTORE POP PUSH0 CALLER PUSH20 0xFFFFFFFFFFFFFFFFFFFFFFFFFFFFFFFFFFFFFFFF AND DUP3 PUSH1 0x40 MLOAD PUSH2 0x9F0 SWAP1 PUSH2 0x16DE JUMP JUMPDEST PUSH0 PUSH1 0x40 MLOAD DUP1 DUP4 SUB DUP2 DUP6 DUP8 GAS CALL SWAP3 POP POP POP RETURNDATASIZE DUP1 PUSH0 DUP2 EQ PUSH2 0xA2A JUMPI PUSH1 0x40 MLOAD SWAP2 POP PUSH1 0x1F NOT PUSH1 0x3F RETURNDATASIZE ADD AND DUP3 ADD PUSH1 0x40 MSTORE RETURNDATASIZE DUP3 MSTORE RETURNDATASIZE PUSH0 PUSH1 0x20 DUP5 ADD RETURNDATACOPY PUSH2 0xA2F JUMP JUMPDEST PUSH1 0x60 SWAP2 POP JUMPDEST POP POP SWAP1 POP DUP1 PUSH2 0xA73 JUMPI PUSH1 0x40 MLOAD PUSH32 0x8C379A000000000000000000000000000000000000000000000000000000000 DUP2 MSTORE PUSH1 0x4 ADD PUSH2 0xA6A SWAP1 PUSH2 0x173C JUMP JUMPDEST PUSH1 0x40 MLOAD DUP1 SWAP2 SUB SWAP1 REVERT JUMPDEST CALLER PUSH20 0xFFFFFFFFFFFFFFFFFFFFFFFFFFFFFFFFFFFFFFFF AND PUSH32 0x7084F5476618D8E60B11EF0D7D3F06914655ADB8793E28FF7F018D4C76D505D5 DUP4 PUSH1 0x40 MLOAD PUSH2 0xAB9 SWAP2 SWAP1 PUSH2 0x11A3 JUMP JUMPDEST PUSH1 0x40 MLOAD DUP1 SWAP2 SUB SWAP1 LOG2 POP POP JUMP JUMPDEST PUSH0 DUP1 SLOAD SWAP1 PUSH2 0x100 EXP SWAP1 DIV PUSH20 0xFFFFFFFFFFFFFFFFFFFFFFFFFFFFFFFFFFFFFFFF AND PUSH20 0xFFFFFFFFFFFFFFFFFFFFFFFFFFFFFFFFFFFFFFFF AND CALLER PUSH20 0xFFFFFFFFFFFFFFFFFFFFFFFFFFFFFFFFFFFFFFFF AND EQ PUSH2 0xB52 JUMPI PUSH1 0x40 MLOAD PUSH32 0x8C379A000000000000000000000000000000000000000000000000000000000 DUP2 MSTORE PUSH1 0x4 ADD PUSH2 0xB49 SWAP1 PUSH2 0x17CA JUMP JUMPDEST PUSH1 0x40 MLOAD DUP1 SWAP2 SUB SWAP1 REVERT JUMPDEST PUSH0 JUMPDEST DUP3 DUP3 SWAP1 POP DUP2 LT ISZERO PUSH2 0xC5C JUMPI PUSH0 PUSH1 0x4 PUSH0 DUP6 DUP6 DUP6 DUP2 DUP2 LT PUSH2 0xB76 JUMPI PUSH2 0xB75 PUSH2 0x17E8 JUMP JUMPDEST JUMPDEST SWAP1 POP PUSH1 0x20 MUL ADD PUSH1 0x20 DUP2 ADD SWAP1 PUSH2 0xB8B SWAP2 SWAP1 PUSH2 0x1227 JUMP JUMPDEST PUSH20 0xFFFFFFFFFFFFFFFFFFFFFFFFFFFFFFFFFFFFFFFF AND PUSH20 0xFFFFFFFFFFFFFFFFFFFFFFFFFFFFFFFFFFFFFFFF AND DUP2 MSTORE PUSH1 0x20 ADD SWAP1 DUP2 MSTORE PUSH1 0x20 ADD PUSH0 KECCAK256 PUSH0 PUSH2 0x100 EXP DUP2 SLOAD DUP2 PUSH1 0xFF MUL NOT AND SWAP1 DUP4 ISZERO ISZERO MUL OR SWAP1 SSTORE POP DUP3 DUP3 DUP3 DUP2 DUP2 LT PUSH2 0xBED JUMPI PUSH2 0xBEC PUSH2 0x17E8 JUMP JUMPDEST JUMPDEST SWAP1 POP PUSH1 0x20 MUL ADD PUSH1 0x20 DUP2 ADD SWAP1 PUSH2 0xC02 SWAP2 SWAP1 PUSH2 0x1227 JUMP JUMPDEST PUSH20 0xFFFFFFFFFFFFFFFFFFFFFFFFFFFFFFFFFFFFFFFF AND PUSH32 0xA54714518C5D275FDCD3D2A461E4858E4E8CB04FB93CD0BCA9D6D34115F26440 PUSH0 PUSH1 0x40 MLOAD PUSH2 0xC47 SWAP2 SWAP1 PUSH2 0x126C JUMP JUMPDEST PUSH1 0x40 MLOAD DUP1 SWAP2 SUB SWAP1 LOG2 DUP1 DUP1 PUSH1 0x1 ADD SWAP2 POP POP PUSH2 0xB54 JUMP JUMPDEST POP POP POP JUMP JUMPDEST PUSH1 0x3 PUSH1 0x20 MSTORE DUP1 PUSH0 MSTORE PUSH1 0x40 PUSH0 KECCAK256 PUSH0 SWAP2 POP SWAP1 POP SLOAD DUP2 JUMP JUMPDEST PUSH0 DUP1 SLOAD SWAP1 PUSH2 0x100 EXP SWAP1 DIV PUSH20 0xFFFFFFFFFFFFFFFFFFFFFFFFFFFFFFFFFFFFFFFF AND PUSH20 0xFFFFFFFFFFFFFFFFFFFFFFFFFFFFFFFFFFFFFFFF AND CALLER PUSH20 0xFFFFFFFFFFFFFFFFFFFFFFFFFFFFFFFFFFFFFFFF AND EQ PUSH2 0xD03 JUMPI PUSH1 0x40 MLOAD PUSH32 0x8C379A000000000000000000000000000000000000000000000000000000000 DUP2 MSTORE PUSH1 0x4 ADD PUSH2 0xCFA SWAP1 PUSH2 0x17CA JUMP JUMPDEST PUSH1 0x40 MLOAD DUP1 SWAP2 SUB SWAP1 REVERT JUMPDEST PUSH0 JUMPDEST DUP3 DUP3 SWAP1 POP DUP2 LT ISZERO PUSH2 0xE0F JUMPI PUSH1 0x1 PUSH1 0x4 PUSH0 DUP6 DUP6 DUP6 DUP2 DUP2 LT PUSH2 0xD28 JUMPI PUSH2 0xD27 PUSH2 0x17E8 JUMP JUMPDEST JUMPDEST SWAP1 POP PUSH1 0x20 MUL ADD PUSH1 0x20 DUP2 ADD SWAP1 PUSH2 0xD3D SWAP2 SWAP1 PUSH2 0x1227 JUMP JUMPDEST PUSH20 0xFFFFFFFFFFFFFFFFFFFFFFFFFFFFFFFFFFFFFFFF AND PUSH20 0xFFFFFFFFFFFFFFFFFFFFFFFFFFFFFFFFFFFFFFFF AND DUP2 MSTORE PUSH1 0x20 ADD SWAP1 DUP2 MSTORE PUSH1 0x20 ADD PUSH0 KECCAK256 PUSH0 PUSH2 0x100 EXP DUP2 SLOAD DUP2 PUSH1 0xFF MUL NOT AND SWAP1 DUP4 ISZERO ISZERO MUL OR SWAP1 SSTORE POP DUP3 DUP3 DUP3 DUP2 DUP2 LT PUSH2 0xD9F JUMPI PUSH2 0xD9E PUSH2 0x17E8 JUMP JUMPDEST JUMPDEST SWAP1 POP PUSH1 0x20 MUL ADD PUSH1 0x20 DUP2 ADD SWAP1 PUSH2 0xDB4 SWAP2 SWAP1 PUSH2 0x1227 JUMP JUMPDEST PUSH20 0xFFFFFFFFFFFFFFFFFFFFFFFFFFFFFFFFFFFFFFFF AND PUSH32 0xA54714518C5D275FDCD3D2A461E4858E4E8CB04FB93CD0BCA9D6D34115F26440 PUSH1 0x1 PUSH1 0x40 MLOAD PUSH2 0xDFA SWAP2 SWAP1 PUSH2 0x126C JUMP JUMPDEST PUSH1 0x40 MLOAD DUP1 SWAP2 SUB SWAP1 LOG2 DUP1 DUP1 PUSH1 0x1 ADD SWAP2 POP POP PUSH2 0xD05 JUMP JUMPDEST POP POP POP JUMP JUMPDEST PUSH0 DUP1 SLOAD SWAP1 PUSH2 0x100 EXP SWAP1 DIV PUSH20 0xFFFFFFFFFFFFFFFFFFFFFFFFFFFFFFFFFFFFFFFF AND DUP2 JUMP JUMPDEST PUSH7 0x6A94D74F430000 DUP2 JUMP JUMPDEST PUSH32 0xE12A28DF6F8731C94ADE6605C8F457C16B3F591ECC3BE3D092AF1F56215A3DA2 PUSH0 SHL DUP2 JUMP JUMPDEST PUSH1 0x5 PUSH1 0x20 MSTORE DUP1 PUSH0 MSTORE PUSH1 0x40 PUSH0 KECCAK256 PUSH0 SWAP2 POP SLOAD SWAP1 PUSH2 0x100 EXP SWAP1 DIV PUSH1 0xFF AND DUP2 JUMP JUMPDEST PUSH7 0xAA87BEE538000 DUP2 JUMP JUMPDEST PUSH32 0xE12A28DF6F8731C94ADE6605C8F457C16B3F591ECC3BE3D092AF1F56215A3DA2 PUSH0 SHL DUP2 PUSH1 0x40 MLOAD PUSH1 0x20 ADD PUSH2 0xEC4 SWAP2 SWAP1 PUSH2 0x1867 JUMP JUMPDEST PUSH1 0x40 MLOAD PUSH1 0x20 DUP2 DUP4 SUB SUB DUP2 MSTORE SWAP1 PUSH1 0x40 MSTORE DUP1 MLOAD SWAP1 PUSH1 0x20 ADD KECCAK256 EQ PUSH2 0xF1A JUMPI PUSH1 0x40 MLOAD PUSH32 0x8C379A000000000000000000000000000000000000000000000000000000000 DUP2 MSTORE PUSH1 0x4 ADD PUSH2 0xF11 SWAP1 PUSH2 0x18C7 JUMP JUMPDEST PUSH1 0x40 MLOAD DUP1 SWAP2 SUB SWAP1 REVERT JUMPDEST PUSH1 0x1 PUSH1 0x5 PUSH0 CALLER PUSH20 0xFFFFFFFFFFFFFFFFFFFFFFFFFFFFFFFFFFFFFFFF AND PUSH20 0xFFFFFFFFFFFFFFFFFFFFFFFFFFFFFFFFFFFFFFFF AND DUP2 MSTORE PUSH1 0x20 ADD SWAP1 DUP2 MSTORE PUSH1 0x20 ADD PUSH0 KECCAK256 PUSH0 PUSH2 0x100 EXP DUP2 SLOAD DUP2 PUSH1 0xFF MUL NOT AND SWAP1 DUP4 ISZERO ISZERO MUL OR SWAP1 SSTORE POP POP JUMP JUMPDEST PUSH7 0x1C6BF52634000 DUP2 JUMP JUMPDEST PUSH0 PUSH7 0x6A94D74F430000 PUSH1 0x2 PUSH0 DUP5 PUSH20 0xFFFFFFFFFFFFFFFFFFFFFFFFFFFFFFFFFFFFFFFF AND PUSH20 0xFFFFFFFFFFFFFFFFFFFFFFFFFFFFFFFFFFFFFFFF AND DUP2 MSTORE PUSH1 0x20 ADD SWAP1 DUP2 MSTORE PUSH1 0x20 ADD PUSH0 KECCAK256 SLOAD LT PUSH2 0xFD8 JUMPI PUSH7 0xAA87BEE538000 SWAP1 POP PUSH2 0x10CF JUMP JUMPDEST PUSH1 0x5 PUSH0 DUP4 PUSH20 0xFFFFFFFFFFFFFFFFFFFFFFFFFFFFFFFFFFFFFFFF AND PUSH20 0xFFFFFFFFFFFFFFFFFFFFFFFFFFFFFFFFFFFFFFFF AND DUP2 MSTORE PUSH1 0x20 ADD SWAP1 DUP2 MSTORE PUSH1 0x20 ADD PUSH0 KECCAK256 PUSH0 SWAP1 SLOAD SWAP1 PUSH2 0x100 EXP SWAP1 DIV PUSH1 0xFF AND ISZERO PUSH2 0x1036 JUMPI PUSH7 0x38D7EA4C68000 SWAP1 POP PUSH2 0x10CF JUMP JUMPDEST PUSH1 0x4 PUSH0 DUP4 PUSH20 0xFFFFFFFFFFFFFFFFFFFFFFFFFFFFFFFFFFFFFFFF AND PUSH20 0xFFFFFFFFFFFFFFFFFFFFFFFFFFFFFFFFFFFFFFFF AND DUP2 MSTORE PUSH1 0x20 ADD SWAP1 DUP2 MSTORE PUSH1 0x20 ADD PUSH0 KECCAK256 PUSH0 SWAP1 SLOAD SWAP1 PUSH2 0x100 EXP SWAP1 DIV PUSH1 0xFF AND ISZERO PUSH2 0x1094 JUMPI PUSH7 0x1C6BF52634000 SWAP1 POP PUSH2 0x10CF JUMP JUMPDEST PUSH1 0x40 MLOAD PUSH32 0x8C379A000000000000000000000000000000000000000000000000000000000 DUP2 MSTORE PUSH1 0x4 ADD PUSH2 0x10C6 SWAP1 PUSH2 0x192F JUMP JUMPDEST PUSH1 0x40 MLOAD DUP1 SWAP2 SUB SWAP1 REVERT JUMPDEST SWAP2 SWAP1 POP JUMP JUMPDEST PUSH7 0x6A94D74F430000 CALLVALUE LT ISZERO PUSH2 0x111E JUMPI PUSH1 0x40 MLOAD PUSH32 0x8C379A000000000000000000000000000000000000000000000000000000000 DUP2 MSTORE PUSH1 0x4 ADD PUSH2 0x1115 SWAP1 PUSH2 0x19BD JUMP JUMPDEST PUSH1 0x40 MLOAD DUP1 SWAP2 SUB SWAP1 REVERT JUMPDEST CALLVALUE PUSH1 0x2 PUSH0 CALLER PUSH20 0xFFFFFFFFFFFFFFFFFFFFFFFFFFFFFFFFFFFFFFFF AND PUSH20 0xFFFFFFFFFFFFFFFFFFFFFFFFFFFFFFFFFFFFFFFF AND DUP2 MSTORE PUSH1 0x20 ADD SWAP1 DUP2 MSTORE PUSH1 0x20 ADD PUSH0 KECCAK256 PUSH0 DUP3 DUP3 SLOAD PUSH2 0x116A SWAP2 SWAP1 PUSH2 0x1536 JUMP JUMPDEST SWAP3 POP POP DUP2 SWAP1 SSTORE POP JUMP JUMPDEST PUSH1 0x1 SLOAD DUP2 JUMP JUMPDEST PUSH0 SELFBALANCE SWAP1 POP SWAP1 JUMP JUMPDEST PUSH7 0x38D7EA4C68000 DUP2 JUMP JUMPDEST PUSH0 DUP2 SWAP1 POP SWAP2 SWAP1 POP JUMP JUMPDEST PUSH2 0x119D DUP2 PUSH2 0x118B JUMP JUMPDEST DUP3 MSTORE POP POP JUMP JUMPDEST PUSH0 PUSH1 0x20 DUP3 ADD SWAP1 POP PUSH2 0x11B6 PUSH0 DUP4 ADD DUP5 PUSH2 0x1194 JUMP JUMPDEST SWAP3 SWAP2 POP POP JUMP JUMPDEST PUSH0 PUSH1 0x40 MLOAD SWAP1 POP SWAP1 JUMP JUMPDEST PUSH0 DUP1 REVERT JUMPDEST PUSH0 DUP1 REVERT JUMPDEST PUSH0 PUSH20 0xFFFFFFFFFFFFFFFFFFFFFFFFFFFFFFFFFFFFFFFF DUP3 AND SWAP1 POP SWAP2 SWAP1 POP JUMP JUMPDEST PUSH0 PUSH2 0x11F6 DUP3 PUSH2 0x11CD JUMP JUMPDEST SWAP1 POP SWAP2 SWAP1 POP JUMP JUMPDEST PUSH2 0x1206 DUP2 PUSH2 0x11EC JUMP JUMPDEST DUP2 EQ PUSH2 0x1210 JUMPI PUSH0 DUP1 REVERT JUMPDEST POP JUMP JUMPDEST PUSH0 DUP2 CALLDATALOAD SWAP1 POP PUSH2 0x1221 DUP2 PUSH2 0x11FD JUMP JUMPDEST SWAP3 SWAP2 POP POP JUMP JUMPDEST PUSH0 PUSH1 0x20 DUP3 DUP5 SUB SLT ISZERO PUSH2 0x123C JUMPI PUSH2 0x123B PUSH2 0x11C5 JUMP JUMPDEST JUMPDEST PUSH0 PUSH2 0x1249 DUP5 DUP3 DUP6 ADD PUSH2 0x1213 JUMP JUMPDEST SWAP2 POP POP SWAP3 SWAP2 POP POP JUMP JUMPDEST PUSH0 DUP2 ISZERO ISZERO SWAP1 POP SWAP2 SWAP1 POP JUMP JUMPDEST PUSH2 0x1266 DUP2 PUSH2 0x1252 JUMP JUMPDEST DUP3 MSTORE POP POP JUMP JUMPDEST PUSH0 PUSH1 0x20 DUP3 ADD SWAP1 POP PUSH2 0x127F PUSH0 DUP4 ADD DUP5 PUSH2 0x125D JUMP JUMPDEST SWAP3 SWAP2 POP POP JUMP JUMPDEST PUSH2 0x128E DUP2 PUSH2 0x11EC JUMP JUMPDEST DUP3 MSTORE POP POP JUMP JUMPDEST PUSH0 PUSH1 0x20 DUP3 ADD SWAP1 POP PUSH2 0x12A7 PUSH0 DUP4 ADD DUP5 PUSH2 0x1285 JUMP JUMPDEST SWAP3 SWAP2 POP POP JUMP JUMPDEST PUSH0 DUP1 REVERT JUMPDEST PUSH0 DUP1 REVERT JUMPDEST PUSH0 DUP1 REVERT JUMPDEST PUSH0 DUP1 DUP4 PUSH1 0x1F DUP5 ADD SLT PUSH2 0x12CE JUMPI PUSH2 0x12CD PUSH2 0x12AD JUMP JUMPDEST JUMPDEST DUP3 CALLDATALOAD SWAP1 POP PUSH8 0xFFFFFFFFFFFFFFFF DUP2 GT ISZERO PUSH2 0x12EB JUMPI PUSH2 0x12EA PUSH2 0x12B1 JUMP JUMPDEST JUMPDEST PUSH1 0x20 DUP4 ADD SWAP2 POP DUP4 PUSH1 0x20 DUP3 MUL DUP4 ADD GT ISZERO PUSH2 0x1307 JUMPI PUSH2 0x1306 PUSH2 0x12B5 JUMP JUMPDEST JUMPDEST SWAP3 POP SWAP3 SWAP1 POP JUMP JUMPDEST PUSH0 DUP1 PUSH1 0x20 DUP4 DUP6 SUB SLT ISZERO PUSH2 0x1324 JUMPI PUSH2 0x1323 PUSH2 0x11C5 JUMP JUMPDEST JUMPDEST PUSH0 DUP4 ADD CALLDATALOAD PUSH8 0xFFFFFFFFFFFFFFFF DUP2 GT ISZERO PUSH2 0x1341 JUMPI PUSH2 0x1340 PUSH2 0x11C9 JUMP JUMPDEST JUMPDEST PUSH2 0x134D DUP6 DUP3 DUP7 ADD PUSH2 0x12B9 JUMP JUMPDEST SWAP3 POP SWAP3 POP POP SWAP3 POP SWAP3 SWAP1 POP JUMP JUMPDEST PUSH0 DUP2 SWAP1 POP SWAP2 SWAP1 POP JUMP JUMPDEST PUSH2 0x136B DUP2 PUSH2 0x1359 JUMP JUMPDEST DUP3 MSTORE POP POP JUMP JUMPDEST PUSH0 PUSH1 0x20 DUP3 ADD SWAP1 POP PUSH2 0x1384 PUSH0 DUP4 ADD DUP5 PUSH2 0x1362 JUMP JUMPDEST SWAP3 SWAP2 POP POP JUMP JUMPDEST PUSH0 DUP1 REVERT JUMPDEST PUSH0 PUSH1 0x1F NOT PUSH1 0x1F DUP4 ADD AND SWAP1 POP SWAP2 SWAP1 POP JUMP JUMPDEST PUSH32 0x4E487B7100000000000000000000000000000000000000000000000000000000 PUSH0 MSTORE PUSH1 0x41 PUSH1 0x4 MSTORE PUSH1 0x24 PUSH0 REVERT JUMPDEST PUSH2 0x13D4 DUP3 PUSH2 0x138E JUMP JUMPDEST DUP2 ADD DUP2 DUP2 LT PUSH8 0xFFFFFFFFFFFFFFFF DUP3 GT OR ISZERO PUSH2 0x13F3 JUMPI PUSH2 0x13F2 PUSH2 0x139E JUMP JUMPDEST JUMPDEST DUP1 PUSH1 0x40 MSTORE POP POP POP JUMP JUMPDEST PUSH0 PUSH2 0x1405 PUSH2 0x11BC JUMP JUMPDEST SWAP1 POP PUSH2 0x1411 DUP3 DUP3 PUSH2 0x13CB JUMP JUMPDEST SWAP2 SWAP1 POP JUMP JUMPDEST PUSH0 PUSH8 0xFFFFFFFFFFFFFFFF DUP3 GT ISZERO PUSH2 0x1430 JUMPI PUSH2 0x142F PUSH2 0x139E JUMP JUMPDEST JUMPDEST PUSH2 0x1439 DUP3 PUSH2 0x138E JUMP JUMPDEST SWAP1 POP PUSH1 0x20 DUP2 ADD SWAP1 POP SWAP2 SWAP1 POP JUMP JUMPDEST DUP3 DUP2 DUP4 CALLDATACOPY PUSH0 DUP4 DUP4 ADD MSTORE POP POP POP JUMP JUMPDEST PUSH0 PUSH2 0x1466 PUSH2 0x1461 DUP5 PUSH2 0x1416 JUMP JUMPDEST PUSH2 0x13FC JUMP JUMPDEST SWAP1 POP DUP3 DUP2 MSTORE PUSH1 0x20 DUP2 ADD DUP5 DUP5 DUP5 ADD GT ISZERO PUSH2 0x1482 JUMPI PUSH2 0x1481 PUSH2 0x138A JUMP JUMPDEST JUMPDEST PUSH2 0x148D DUP5 DUP3 DUP6 PUSH2 0x1446 JUMP JUMPDEST POP SWAP4 SWAP3 POP POP POP JUMP JUMPDEST PUSH0 DUP3 PUSH1 0x1F DUP4 ADD SLT PUSH2 0x14A9 JUMPI PUSH2 0x14A8 PUSH2 0x12AD JUMP JUMPDEST JUMPDEST DUP2 CALLDATALOAD PUSH2 0x14B9 DUP5 DUP3 PUSH1 0x20 DUP7 ADD PUSH2 0x1454 JUMP JUMPDEST SWAP2 POP POP SWAP3 SWAP2 POP POP JUMP JUMPDEST PUSH0 PUSH1 0x20 DUP3 DUP5 SUB SLT ISZERO PUSH2 0x14D7 JUMPI PUSH2 0x14D6 PUSH2 0x11C5 JUMP JUMPDEST JUMPDEST PUSH0 DUP3 ADD CALLDATALOAD PUSH8 0xFFFFFFFFFFFFFFFF DUP2 GT ISZERO PUSH2 0x14F4 JUMPI PUSH2 0x14F3 PUSH2 0x11C9 JUMP JUMPDEST JUMPDEST PUSH2 0x1500 DUP5 DUP3 DUP6 ADD PUSH2 0x1495 JUMP JUMPDEST SWAP2 POP POP SWAP3 SWAP2 POP POP JUMP JUMPDEST PUSH32 0x4E487B7100000000000000000000000000000000000000000000000000000000 PUSH0 MSTORE PUSH1 0x11 PUSH1 0x4 MSTORE PUSH1 0x24 PUSH0 REVERT JUMPDEST PUSH0 PUSH2 0x1540 DUP3 PUSH2 0x118B JUMP JUMPDEST SWAP2 POP PUSH2 0x154B DUP4 PUSH2 0x118B JUMP JUMPDEST SWAP3 POP DUP3 DUP3 ADD SWAP1 POP DUP1 DUP3 GT ISZERO PUSH2 0x1563 JUMPI PUSH2 0x1562 PUSH2 0x1509 JUMP JUMPDEST JUMPDEST SWAP3 SWAP2 POP POP JUMP JUMPDEST PUSH0 DUP3 DUP3 MSTORE PUSH1 0x20 DUP3 ADD SWAP1 POP SWAP3 SWAP2 POP POP JUMP JUMPDEST PUSH32 0x5769746864726177616C7320617265206C6F636B656400000000000000000000 PUSH0 DUP3 ADD MSTORE POP JUMP JUMPDEST PUSH0 PUSH2 0x15AD PUSH1 0x16 DUP4 PUSH2 0x1569 JUMP JUMPDEST SWAP2 POP PUSH2 0x15B8 DUP3 PUSH2 0x1579 JUMP JUMPDEST PUSH1 0x20 DUP3 ADD SWAP1 POP SWAP2 SWAP1 POP JUMP JUMPDEST PUSH0 PUSH1 0x20 DUP3 ADD SWAP1 POP DUP2 DUP2 SUB PUSH0 DUP4 ADD MSTORE PUSH2 0x15DA DUP2 PUSH2 0x15A1 JUMP JUMPDEST SWAP1 POP SWAP2 SWAP1 POP JUMP JUMPDEST PUSH32 0x4C6173742077697468647261776572206D7573742077616974203120686F7572 PUSH0 DUP3 ADD MSTORE POP JUMP JUMPDEST PUSH0 PUSH2 0x1615 PUSH1 0x20 DUP4 PUSH2 0x1569 JUMP JUMPDEST SWAP2 POP PUSH2 0x1620 DUP3 PUSH2 0x15E1 JUMP JUMPDEST PUSH1 0x20 DUP3 ADD SWAP1 POP SWAP2 SWAP1 POP JUMP JUMPDEST PUSH0 PUSH1 0x20 DUP3 ADD SWAP1 POP DUP2 DUP2 SUB PUSH0 DUP4 ADD MSTORE PUSH2 0x1642 DUP2 PUSH2 0x1609 JUMP JUMPDEST SWAP1 POP SWAP2 SWAP1 POP JUMP JUMPDEST PUSH32 0x496E73756666696369656E742062616C616E636520696E207661756C74000000 PUSH0 DUP3 ADD MSTORE POP JUMP JUMPDEST PUSH0 PUSH2 0x167D PUSH1 0x1D DUP4 PUSH2 0x1569 JUMP JUMPDEST SWAP2 POP PUSH2 0x1688 DUP3 PUSH2 0x1649 JUMP JUMPDEST PUSH1 0x20 DUP3 ADD SWAP1 POP SWAP2 SWAP1 POP JUMP JUMPDEST PUSH0 PUSH1 0x20 DUP3 ADD SWAP1 POP DUP2 DUP2 SUB PUSH0 DUP4 ADD MSTORE PUSH2 0x16AA DUP2 PUSH2 0x1671 JUMP JUMPDEST SWAP1 POP SWAP2 SWAP1 POP JUMP JUMPDEST PUSH0 DUP2 SWAP1 POP SWAP3 SWAP2 POP POP JUMP JUMPDEST POP JUMP JUMPDEST PUSH0 PUSH2 0x16C9 PUSH0 DUP4 PUSH2 0x16B1 JUMP JUMPDEST SWAP2 POP PUSH2 0x16D4 DUP3 PUSH2 0x16BB JUMP JUMPDEST PUSH0 DUP3 ADD SWAP1 POP SWAP2 SWAP1 POP JUMP JUMPDEST PUSH0 PUSH2 0x16E8 DUP3 PUSH2 0x16BE JUMP JUMPDEST SWAP2 POP DUP2 SWAP1 POP SWAP2 SWAP1 POP JUMP JUMPDEST PUSH32 0x4661696C656420746F2073656E64204574686572000000000000000000000000 PUSH0 DUP3 ADD MSTORE POP JUMP JUMPDEST PUSH0 PUSH2 0x1726 PUSH1 0x14 DUP4 PUSH2 0x1569 JUMP JUMPDEST SWAP2 POP PUSH2 0x1731 DUP3 PUSH2 0x16F2 JUMP JUMPDEST PUSH1 0x20 DUP3 ADD SWAP1 POP SWAP2 SWAP1 POP JUMP JUMPDEST PUSH0 PUSH1 0x20 DUP3 ADD SWAP1 POP DUP2 DUP2 SUB PUSH0 DUP4 ADD MSTORE PUSH2 0x1753 DUP2 PUSH2 0x171A JUMP JUMPDEST SWAP1 POP SWAP2 SWAP1 POP JUMP JUMPDEST PUSH32 0x4F6E6C79206F776E65722063616E2063616C6C20746869732066756E6374696F PUSH0 DUP3 ADD MSTORE PUSH32 0x6E00000000000000000000000000000000000000000000000000000000000000 PUSH1 0x20 DUP3 ADD MSTORE POP JUMP JUMPDEST PUSH0 PUSH2 0x17B4 PUSH1 0x21 DUP4 PUSH2 0x1569 JUMP JUMPDEST SWAP2 POP PUSH2 0x17BF DUP3 PUSH2 0x175A JUMP JUMPDEST PUSH1 0x40 DUP3 ADD SWAP1 POP SWAP2 SWAP1 POP JUMP JUMPDEST PUSH0 PUSH1 0x20 DUP3 ADD SWAP1 POP DUP2 DUP2 SUB PUSH0 DUP4 ADD MSTORE PUSH2 0x17E1 DUP2 PUSH2 0x17A8 JUMP JUMPDEST SWAP1 POP SWAP2 SWAP1 POP JUMP JUMPDEST PUSH32 0x4E487B7100000000000000000000000000000000000000000000000000000000 PUSH0 MSTORE PUSH1 0x32 PUSH1 0x4 MSTORE PUSH1 0x24 PUSH0 REVERT JUMPDEST PUSH0 DUP2 MLOAD SWAP1 POP SWAP2 SWAP1 POP JUMP JUMPDEST PUSH0 DUP2 SWAP1 POP SWAP3 SWAP2 POP POP JUMP JUMPDEST DUP3 DUP2 DUP4 MCOPY PUSH0 DUP4 DUP4 ADD MSTORE POP POP POP JUMP JUMPDEST PUSH0 PUSH2 0x1841 DUP3 PUSH2 0x1815 JUMP JUMPDEST PUSH2 0x184B DUP2 DUP6 PUSH2 0x181F JUMP JUMPDEST SWAP4 POP PUSH2 0x185B DUP2 DUP6 PUSH1 0x20 DUP7 ADD PUSH2 0x1829 JUMP JUMPDEST DUP1 DUP5 ADD SWAP2 POP POP SWAP3 SWAP2 POP POP JUMP JUMPDEST PUSH0 PUSH2 0x1872 DUP3 DUP5 PUSH2 0x1837 JUMP JUMPDEST SWAP2 POP DUP2 SWAP1 POP SWAP3 SWAP2 POP POP JUMP JUMPDEST PUSH32 0x57726F6E67206775657373000000000000000000000000000000000000000000 PUSH0 DUP3 ADD MSTORE POP JUMP JUMPDEST PUSH0 PUSH2 0x18B1 PUSH1 0xB DUP4 PUSH2 0x1569 JUMP JUMPDEST SWAP2 POP PUSH2 0x18BC DUP3 PUSH2 0x187D JUMP JUMPDEST PUSH1 0x20 DUP3 ADD SWAP1 POP SWAP2 SWAP1 POP JUMP JUMPDEST PUSH0 PUSH1 0x20 DUP3 ADD SWAP1 POP DUP2 DUP2 SUB PUSH0 DUP4 ADD MSTORE PUSH2 0x18DE DUP2 PUSH2 0x18A5 JUMP JUMPDEST SWAP1 POP SWAP2 SWAP1 POP JUMP JUMPDEST PUSH32 0x4E6F7420656C696769626C6520666F72207769746864726177616C0000000000 PUSH0 DUP3 ADD MSTORE POP JUMP JUMPDEST PUSH0 PUSH2 0x1919 PUSH1 0x1B DUP4 PUSH2 0x1569 JUMP JUMPDEST SWAP2 POP PUSH2 0x1924 DUP3 PUSH2 0x18E5 JUMP JUMPDEST PUSH1 0x20 DUP3 ADD SWAP1 POP SWAP2 SWAP1 POP JUMP JUMPDEST PUSH0 PUSH1 0x20 DUP3 ADD SWAP1 POP DUP2 DUP2 SUB PUSH0 DUP4 ADD MSTORE PUSH2 0x1946 DUP2 PUSH2 0x190D JUMP JUMPDEST SWAP1 POP SWAP2 SWAP1 POP JUMP JUMPDEST PUSH32 0x4465706F736974206D757374206265206174206C6561737420302E3033206574 PUSH0 DUP3 ADD MSTORE PUSH32 0x6865720000000000000000000000000000000000000000000000000000000000 PUSH1 0x20 DUP3 ADD MSTORE POP JUMP JUMPDEST PUSH0 PUSH2 0x19A7 PUSH1 0x23 DUP4 PUSH2 0x1569 JUMP JUMPDEST SWAP2 POP PUSH2 0x19B2 DUP3 PUSH2 0x194D JUMP JUMPDEST PUSH1 0x40 DUP3 ADD SWAP1 POP SWAP2 SWAP1 POP JUMP JUMPDEST PUSH0 PUSH1 0x20 DUP3 ADD SWAP1 POP DUP2 DUP2 SUB PUSH0 DUP4 ADD MSTORE PUSH2 0x19D4 DUP2 PUSH2 0x199B JUMP JUMPDEST SWAP1 POP SWAP2 SWAP1 POP JUMP INVALID LOG2 PUSH5 0x6970667358 0x22 SLT KECCAK256 ADDRESS 0xC8 SELFBALANCE CREATE 0x26 DUP1 PUSH19 0x8EF372E4AC800E5BCA895FEA061E3D29AE1FA1 COINBASE LOG0 0xCE 0x21 LOG1 0x1F PUSH5 0x736F6C6343 STOP ADDMOD BYTE STOP CALLER "
				},
				"gasEstimates": {
					"creation": {
						"codeDepositCost": "1334600",
						"executionCost": "47758",
						"totalCost": "1382358"
					},
					"external": {
						"BIG_SPENDER_THRESHOLD()": "370",
						"BIG_SPENDER_WITHDRAWAL()": "436",
						"LOCK_PERIOD()": "393",
						"MAGIC_WORD_HASH()": "397",
						"MAGIC_WORD_WITHDRAWAL()": "457",
						"WHITELISTED_WITHDRAWAL()": "347",
						"WITHDRAWAL_DELAY()": "349",
						"addToWhitelist(address[])": "infinite",
						"canWithdraw(address)": "infinite",
						"checkWhitelistStatus(address)": "2916",
						"deploymentTime()": "2513",
						"deposit()": "infinite",
						"etherSent(address)": "2914",
						"etherWithdrawn(address)": "2913",
						"getVaultBalance()": "444",
						"getWithdrawalLimit(address)": "7475",
						"guessMagicWord(string)": "infinite",
						"guessedMagicWord(address)": "2922",
						"isWhitelisted(address)": "2878",
						"lastWithdrawalTime()": "2559",
						"lastWithdrawer()": "2531",
						"owner()": "2528",
						"removeFromWhitelist(address[])": "infinite",
						"withdraw()": "infinite"
					}
				},
				"methodIdentifiers": {
					"BIG_SPENDER_THRESHOLD()": "91f2577b",
					"BIG_SPENDER_WITHDRAWAL()": "af594ba8",
					"LOCK_PERIOD()": "1820cabb",
					"MAGIC_WORD_HASH()": "9315de85",
					"MAGIC_WORD_WITHDRAWAL()": "fa179d1d",
					"WHITELISTED_WITHDRAWAL()": "c0f7a1bd",
					"WITHDRAWAL_DELAY()": "0ebb172a",
					"addToWhitelist(address[])": "7f649783",
					"canWithdraw(address)": "19262d30",
					"checkWhitelistStatus(address)": "178d4de5",
					"deploymentTime()": "ecda10f5",
					"deposit()": "d0e30db0",
					"etherSent(address)": "1e921730",
					"etherWithdrawn(address)": "54fe5dcb",
					"getVaultBalance()": "ed12e8ef",
					"getWithdrawalLimit(address)": "c74e6d80",
					"guessMagicWord(string)": "b1e66603",
					"guessedMagicWord(address)": "ad4f5ffc",
					"isWhitelisted(address)": "3af32abf",
					"lastWithdrawalTime()": "34a014dc",
					"lastWithdrawer()": "39761385",
					"owner()": "8da5cb5b",
					"removeFromWhitelist(address[])": "548db174",
					"withdraw()": "3ccfd60b"
				}
			},
			"storageLayout": {
				"storage": [
					{
						"astId": 55,
						"contract": "EtherVault.sol:EtherVault",
						"label": "owner",
						"offset": 0,
						"slot": "0",
						"type": "t_address"
					},
					{
						"astId": 60,
						"contract": "EtherVault.sol:EtherVault",
						"label": "deploymentTime",
						"offset": 0,
						"slot": "1",
						"type": "t_uint256"
					},
					{
						"astId": 86,
						"contract": "EtherVault.sol:EtherVault",
						"label": "etherSent",
						"offset": 0,
						"slot": "2",
						"type": "t_mapping(t_address,t_uint256)"
					},
					{
						"astId": 90,
						"contract": "EtherVault.sol:EtherVault",
						"label": "etherWithdrawn",
						"offset": 0,
						"slot": "3",
						"type": "t_mapping(t_address,t_uint256)"
					},
					{
						"astId": 95,
						"contract": "EtherVault.sol:EtherVault",
						"label": "isWhitelisted",
						"offset": 0,
						"slot": "4",
						"type": "t_mapping(t_address,t_bool)"
					},
					{
						"astId": 99,
						"contract": "EtherVault.sol:EtherVault",
						"label": "guessedMagicWord",
						"offset": 0,
						"slot": "5",
						"type": "t_mapping(t_address,t_bool)"
					},
					{
						"astId": 102,
						"contract": "EtherVault.sol:EtherVault",
						"label": "lastWithdrawer",
						"offset": 0,
						"slot": "6",
						"type": "t_address"
					},
					{
						"astId": 104,
						"contract": "EtherVault.sol:EtherVault",
						"label": "lastWithdrawalTime",
						"offset": 0,
						"slot": "7",
						"type": "t_uint256"
					}
				],
				"types": {
					"t_address": {
						"encoding": "inplace",
						"label": "address",
						"numberOfBytes": "20"
					},
					"t_bool": {
						"encoding": "inplace",
						"label": "bool",
						"numberOfBytes": "1"
					},
					"t_mapping(t_address,t_bool)": {
						"encoding": "mapping",
						"key": "t_address",
						"label": "mapping(address => bool)",
						"numberOfBytes": "32",
						"value": "t_bool"
					},
					"t_mapping(t_address,t_uint256)": {
						"encoding": "mapping",
						"key": "t_address",
						"label": "mapping(address => uint256)",
						"numberOfBytes": "32",
						"value": "t_uint256"
					},
					"t_uint256": {
						"encoding": "inplace",
						"label": "uint256",
						"numberOfBytes": "32"
					}
				}
			},
			"userdoc": {
				"kind": "user",
				"methods": {},
				"version": 1
			}
		}
	}
}