{
	"EtherVault.sol": {
		"SelfDestructContract": {
			"abi": [
				{
					"inputs": [],
					"stateMutability": "payable",
					"type": "constructor"
				},
				{
					"inputs": [],
					"name": "ETHER_VAULT",
					"outputs": [
						{
							"internalType": "address",
							"name": "",
							"type": "address"
						}
					],
					"stateMutability": "view",
					"type": "function"
				},
				{
					"inputs": [],
					"name": "destroyAndSend",
					"outputs": [],
					"stateMutability": "nonpayable",
					"type": "function"
				},
				{
					"inputs": [],
					"name": "getBalance",
					"outputs": [
						{
							"internalType": "uint256",
							"name": "",
							"type": "uint256"
						}
					],
					"stateMutability": "view",
					"type": "function"
				}
			],
			"devdoc": {
				"details": "A fun game contract for teaching Solidity concepts. Players must send Ether via selfdestruct or deposit, solve challenges to increase their withdrawal limits, and withdraw Ether after a lock period. The contract owner manages the whitelist. See instructions: `https://tinyurl.com/EtherVault`",
				"kind": "dev",
				"methods": {},
				"title": "EtherVault",
				"version": 1
			},
			"evm": {
				"assembly": "    /* \"EtherVault.sol\":497:1015  contract SelfDestructContract {... */\n  mstore(0x40, 0x80)\n    /* \"EtherVault.sol\":673:685  0.0005 ether */\n  0x01c6bf52634000\n    /* \"EtherVault.sol\":660:669  msg.value */\n  callvalue\n    /* \"EtherVault.sol\":660:685  msg.value == 0.0005 ether */\n  eq\n    /* \"EtherVault.sol\":652:721  require(msg.value == 0.0005 ether, \"Must send exactly 0.0005 ether.\") */\n  tag_3\n  jumpi\n  mload(0x40)\n  0x08c379a000000000000000000000000000000000000000000000000000000000\n  dup2\n  mstore\n  0x04\n  add\n  tag_4\n  swap1\n  tag_5\n  jump\t// in\ntag_4:\n  mload(0x40)\n  dup1\n  swap2\n  sub\n  swap1\n  revert\ntag_3:\n    /* \"EtherVault.sol\":497:1015  contract SelfDestructContract {... */\n  jump(tag_6)\n    /* \"#utility.yul\":7:176   */\ntag_7:\n    /* \"#utility.yul\":91:102   */\n  0x00\n    /* \"#utility.yul\":125:131   */\n  dup3\n    /* \"#utility.yul\":120:123   */\n  dup3\n    /* \"#utility.yul\":113:132   */\n  mstore\n    /* \"#utility.yul\":165:169   */\n  0x20\n    /* \"#utility.yul\":160:163   */\n  dup3\n    /* \"#utility.yul\":156:170   */\n  add\n    /* \"#utility.yul\":141:170   */\n  swap1\n  pop\n    /* \"#utility.yul\":7:176   */\n  swap3\n  swap2\n  pop\n  pop\n  jump\t// out\n    /* \"#utility.yul\":182:363   */\ntag_8:\n    /* \"#utility.yul\":322:355   */\n  0x4d7573742073656e642065786163746c7920302e303030352065746865722e00\n    /* \"#utility.yul\":318:319   */\n  0x00\n    /* \"#utility.yul\":310:316   */\n  dup3\n    /* \"#utility.yul\":306:320   */\n  add\n    /* \"#utility.yul\":299:356   */\n  mstore\n    /* \"#utility.yul\":182:363   */\n  pop\n  jump\t// out\n    /* \"#utility.yul\":369:735   */\ntag_9:\n    /* \"#utility.yul\":511:514   */\n  0x00\n    /* \"#utility.yul\":532:599   */\n  tag_14\n    /* \"#utility.yul\":596:598   */\n  0x1f\n    /* \"#utility.yul\":591:594   */\n  dup4\n    /* \"#utility.yul\":532:599   */\n  tag_7\n  jump\t// in\ntag_14:\n    /* \"#utility.yul\":525:599   */\n  swap2\n  pop\n    /* \"#utility.yul\":608:701   */\n  tag_15\n    /* \"#utility.yul\":697:700   */\n  dup3\n    /* \"#utility.yul\":608:701   */\n  tag_8\n  jump\t// in\ntag_15:\n    /* \"#utility.yul\":726:728   */\n  0x20\n    /* \"#utility.yul\":721:724   */\n  dup3\n    /* \"#utility.yul\":717:729   */\n  add\n    /* \"#utility.yul\":710:729   */\n  swap1\n  pop\n    /* \"#utility.yul\":369:735   */\n  swap2\n  swap1\n  pop\n  jump\t// out\n    /* \"#utility.yul\":741:1160   */\ntag_5:\n    /* \"#utility.yul\":907:911   */\n  0x00\n    /* \"#utility.yul\":945:947   */\n  0x20\n    /* \"#utility.yul\":934:943   */\n  dup3\n    /* \"#utility.yul\":930:948   */\n  add\n    /* \"#utility.yul\":922:948   */\n  swap1\n  pop\n    /* \"#utility.yul\":994:1003   */\n  dup2\n    /* \"#utility.yul\":988:992   */\n  dup2\n    /* \"#utility.yul\":984:1004   */\n  sub\n    /* \"#utility.yul\":980:981   */\n  0x00\n    /* \"#utility.yul\":969:978   */\n  dup4\n    /* \"#utility.yul\":965:982   */\n  add\n    /* \"#utility.yul\":958:1005   */\n  mstore\n    /* \"#utility.yul\":1022:1153   */\n  tag_17\n    /* \"#utility.yul\":1148:1152   */\n  dup2\n    /* \"#utility.yul\":1022:1153   */\n  tag_9\n  jump\t// in\ntag_17:\n    /* \"#utility.yul\":1014:1153   */\n  swap1\n  pop\n    /* \"#utility.yul\":741:1160   */\n  swap2\n  swap1\n  pop\n  jump\t// out\n    /* \"EtherVault.sol\":497:1015  contract SelfDestructContract {... */\ntag_6:\n  dataSize(sub_0)\n  dup1\n  dataOffset(sub_0)\n  0x00\n  codecopy\n  0x00\n  return\nstop\n\nsub_0: assembly {\n        /* \"EtherVault.sol\":497:1015  contract SelfDestructContract {... */\n      mstore(0x40, 0x80)\n      callvalue\n      dup1\n      iszero\n      tag_1\n      jumpi\n      0x00\n      dup1\n      revert\n    tag_1:\n      pop\n      jumpi(tag_2, lt(calldatasize, 0x04))\n      shr(0xe0, calldataload(0x00))\n      dup1\n      0x12065fe0\n      eq\n      tag_3\n      jumpi\n      dup1\n      0x45cefcec\n      eq\n      tag_4\n      jumpi\n      dup1\n      0xa0f7be5a\n      eq\n      tag_5\n      jumpi\n    tag_2:\n      0x00\n      dup1\n      revert\n        /* \"EtherVault.sol\":917:1013  function getBalance() external view returns (uint) {... */\n    tag_3:\n      tag_6\n      tag_7\n      jump\t// in\n    tag_6:\n      mload(0x40)\n      tag_8\n      swap2\n      swap1\n      tag_9\n      jump\t// in\n    tag_8:\n      mload(0x40)\n      dup1\n      swap2\n      sub\n      swap1\n      return\n        /* \"EtherVault.sol\":734:911  function destroyAndSend() external {... */\n    tag_4:\n      tag_10\n      tag_11\n      jump\t// in\n    tag_10:\n      stop\n        /* \"EtherVault.sol\":533:613  address public constant ETHER_VAULT = 0x6dA826f51c447354f65A7480e5364672785C0417 */\n    tag_5:\n      tag_12\n      tag_13\n      jump\t// in\n    tag_12:\n      mload(0x40)\n      tag_14\n      swap2\n      swap1\n      tag_15\n      jump\t// in\n    tag_14:\n      mload(0x40)\n      dup1\n      swap2\n      sub\n      swap1\n      return\n        /* \"EtherVault.sol\":917:1013  function getBalance() external view returns (uint) {... */\n    tag_7:\n        /* \"EtherVault.sol\":962:966  uint */\n      0x00\n        /* \"EtherVault.sol\":985:1006  address(this).balance */\n      selfbalance\n        /* \"EtherVault.sol\":978:1006  return address(this).balance */\n      swap1\n      pop\n        /* \"EtherVault.sol\":917:1013  function getBalance() external view returns (uint) {... */\n      swap1\n      jump\t// out\n        /* \"EtherVault.sol\":734:911  function destroyAndSend() external {... */\n    tag_11:\n        /* \"EtherVault.sol\":812:824  0.0005 ether */\n      0x01c6bf52634000\n        /* \"EtherVault.sol\":787:808  address(this).balance */\n      selfbalance\n        /* \"EtherVault.sol\":787:824  address(this).balance == 0.0005 ether */\n      eq\n        /* \"EtherVault.sol\":779:860  require(address(this).balance == 0.0005 ether, \"Must send exactly 0.0005 ether.\") */\n      tag_18\n      jumpi\n      mload(0x40)\n      0x08c379a000000000000000000000000000000000000000000000000000000000\n      dup2\n      mstore\n      0x04\n      add\n      tag_19\n      swap1\n      tag_20\n      jump\t// in\n    tag_19:\n      mload(0x40)\n      dup1\n      swap2\n      sub\n      swap1\n      revert\n    tag_18:\n        /* \"EtherVault.sol\":571:613  0x6dA826f51c447354f65A7480e5364672785C0417 */\n      0x6da826f51c447354f65a7480e5364672785c0417\n        /* \"EtherVault.sol\":870:904  selfdestruct(payable(ETHER_VAULT)) */\n      0xffffffffffffffffffffffffffffffffffffffff\n      and\n      selfdestruct\n        /* \"EtherVault.sol\":533:613  address public constant ETHER_VAULT = 0x6dA826f51c447354f65A7480e5364672785C0417 */\n    tag_13:\n        /* \"EtherVault.sol\":571:613  0x6dA826f51c447354f65A7480e5364672785C0417 */\n      0x6da826f51c447354f65a7480e5364672785c0417\n        /* \"EtherVault.sol\":533:613  address public constant ETHER_VAULT = 0x6dA826f51c447354f65A7480e5364672785C0417 */\n      dup2\n      jump\t// out\n        /* \"#utility.yul\":7:84   */\n    tag_21:\n        /* \"#utility.yul\":44:51   */\n      0x00\n        /* \"#utility.yul\":73:78   */\n      dup2\n        /* \"#utility.yul\":62:78   */\n      swap1\n      pop\n        /* \"#utility.yul\":7:84   */\n      swap2\n      swap1\n      pop\n      jump\t// out\n        /* \"#utility.yul\":90:208   */\n    tag_22:\n        /* \"#utility.yul\":177:201   */\n      tag_32\n        /* \"#utility.yul\":195:200   */\n      dup2\n        /* \"#utility.yul\":177:201   */\n      tag_21\n      jump\t// in\n    tag_32:\n        /* \"#utility.yul\":172:175   */\n      dup3\n        /* \"#utility.yul\":165:202   */\n      mstore\n        /* \"#utility.yul\":90:208   */\n      pop\n      pop\n      jump\t// out\n        /* \"#utility.yul\":214:436   */\n    tag_9:\n        /* \"#utility.yul\":307:311   */\n      0x00\n        /* \"#utility.yul\":345:347   */\n      0x20\n        /* \"#utility.yul\":334:343   */\n      dup3\n        /* \"#utility.yul\":330:348   */\n      add\n        /* \"#utility.yul\":322:348   */\n      swap1\n      pop\n        /* \"#utility.yul\":358:429   */\n      tag_34\n        /* \"#utility.yul\":426:427   */\n      0x00\n        /* \"#utility.yul\":415:424   */\n      dup4\n        /* \"#utility.yul\":411:428   */\n      add\n        /* \"#utility.yul\":402:408   */\n      dup5\n        /* \"#utility.yul\":358:429   */\n      tag_22\n      jump\t// in\n    tag_34:\n        /* \"#utility.yul\":214:436   */\n      swap3\n      swap2\n      pop\n      pop\n      jump\t// out\n        /* \"#utility.yul\":442:568   */\n    tag_23:\n        /* \"#utility.yul\":479:486   */\n      0x00\n        /* \"#utility.yul\":519:561   */\n      0xffffffffffffffffffffffffffffffffffffffff\n        /* \"#utility.yul\":512:517   */\n      dup3\n        /* \"#utility.yul\":508:562   */\n      and\n        /* \"#utility.yul\":497:562   */\n      swap1\n      pop\n        /* \"#utility.yul\":442:568   */\n      swap2\n      swap1\n      pop\n      jump\t// out\n        /* \"#utility.yul\":574:670   */\n    tag_24:\n        /* \"#utility.yul\":611:618   */\n      0x00\n        /* \"#utility.yul\":640:664   */\n      tag_37\n        /* \"#utility.yul\":658:663   */\n      dup3\n        /* \"#utility.yul\":640:664   */\n      tag_23\n      jump\t// in\n    tag_37:\n        /* \"#utility.yul\":629:664   */\n      swap1\n      pop\n        /* \"#utility.yul\":574:670   */\n      swap2\n      swap1\n      pop\n      jump\t// out\n        /* \"#utility.yul\":676:794   */\n    tag_25:\n        /* \"#utility.yul\":763:787   */\n      tag_39\n        /* \"#utility.yul\":781:786   */\n      dup2\n        /* \"#utility.yul\":763:787   */\n      tag_24\n      jump\t// in\n    tag_39:\n        /* \"#utility.yul\":758:761   */\n      dup3\n        /* \"#utility.yul\":751:788   */\n      mstore\n        /* \"#utility.yul\":676:794   */\n      pop\n      pop\n      jump\t// out\n        /* \"#utility.yul\":800:1022   */\n    tag_15:\n        /* \"#utility.yul\":893:897   */\n      0x00\n        /* \"#utility.yul\":931:933   */\n      0x20\n        /* \"#utility.yul\":920:929   */\n      dup3\n        /* \"#utility.yul\":916:934   */\n      add\n        /* \"#utility.yul\":908:934   */\n      swap1\n      pop\n        /* \"#utility.yul\":944:1015   */\n      tag_41\n        /* \"#utility.yul\":1012:1013   */\n      0x00\n        /* \"#utility.yul\":1001:1010   */\n      dup4\n        /* \"#utility.yul\":997:1014   */\n      add\n        /* \"#utility.yul\":988:994   */\n      dup5\n        /* \"#utility.yul\":944:1015   */\n      tag_25\n      jump\t// in\n    tag_41:\n        /* \"#utility.yul\":800:1022   */\n      swap3\n      swap2\n      pop\n      pop\n      jump\t// out\n        /* \"#utility.yul\":1028:1197   */\n    tag_26:\n        /* \"#utility.yul\":1112:1123   */\n      0x00\n        /* \"#utility.yul\":1146:1152   */\n      dup3\n        /* \"#utility.yul\":1141:1144   */\n      dup3\n        /* \"#utility.yul\":1134:1153   */\n      mstore\n        /* \"#utility.yul\":1186:1190   */\n      0x20\n        /* \"#utility.yul\":1181:1184   */\n      dup3\n        /* \"#utility.yul\":1177:1191   */\n      add\n        /* \"#utility.yul\":1162:1191   */\n      swap1\n      pop\n        /* \"#utility.yul\":1028:1197   */\n      swap3\n      swap2\n      pop\n      pop\n      jump\t// out\n        /* \"#utility.yul\":1203:1384   */\n    tag_27:\n        /* \"#utility.yul\":1343:1376   */\n      0x4d7573742073656e642065786163746c7920302e303030352065746865722e00\n        /* \"#utility.yul\":1339:1340   */\n      0x00\n        /* \"#utility.yul\":1331:1337   */\n      dup3\n        /* \"#utility.yul\":1327:1341   */\n      add\n        /* \"#utility.yul\":1320:1377   */\n      mstore\n        /* \"#utility.yul\":1203:1384   */\n      pop\n      jump\t// out\n        /* \"#utility.yul\":1390:1756   */\n    tag_28:\n        /* \"#utility.yul\":1532:1535   */\n      0x00\n        /* \"#utility.yul\":1553:1620   */\n      tag_45\n        /* \"#utility.yul\":1617:1619   */\n      0x1f\n        /* \"#utility.yul\":1612:1615   */\n      dup4\n        /* \"#utility.yul\":1553:1620   */\n      tag_26\n      jump\t// in\n    tag_45:\n        /* \"#utility.yul\":1546:1620   */\n      swap2\n      pop\n        /* \"#utility.yul\":1629:1722   */\n      tag_46\n        /* \"#utility.yul\":1718:1721   */\n      dup3\n        /* \"#utility.yul\":1629:1722   */\n      tag_27\n      jump\t// in\n    tag_46:\n        /* \"#utility.yul\":1747:1749   */\n      0x20\n        /* \"#utility.yul\":1742:1745   */\n      dup3\n        /* \"#utility.yul\":1738:1750   */\n      add\n        /* \"#utility.yul\":1731:1750   */\n      swap1\n      pop\n        /* \"#utility.yul\":1390:1756   */\n      swap2\n      swap1\n      pop\n      jump\t// out\n        /* \"#utility.yul\":1762:2181   */\n    tag_20:\n        /* \"#utility.yul\":1928:1932   */\n      0x00\n        /* \"#utility.yul\":1966:1968   */\n      0x20\n        /* \"#utility.yul\":1955:1964   */\n      dup3\n        /* \"#utility.yul\":1951:1969   */\n      add\n        /* \"#utility.yul\":1943:1969   */\n      swap1\n      pop\n        /* \"#utility.yul\":2015:2024   */\n      dup2\n        /* \"#utility.yul\":2009:2013   */\n      dup2\n        /* \"#utility.yul\":2005:2025   */\n      sub\n        /* \"#utility.yul\":2001:2002   */\n      0x00\n        /* \"#utility.yul\":1990:1999   */\n      dup4\n        /* \"#utility.yul\":1986:2003   */\n      add\n        /* \"#utility.yul\":1979:2026   */\n      mstore\n        /* \"#utility.yul\":2043:2174   */\n      tag_48\n        /* \"#utility.yul\":2169:2173   */\n      dup2\n        /* \"#utility.yul\":2043:2174   */\n      tag_28\n      jump\t// in\n    tag_48:\n        /* \"#utility.yul\":2035:2174   */\n      swap1\n      pop\n        /* \"#utility.yul\":1762:2181   */\n      swap2\n      swap1\n      pop\n      jump\t// out\n\n    auxdata: 0xa2646970667358221220d47d1887728b50041f98e286b725a8b0853cfda8d234e38e39ed6f9d2affbc2e64736f6c634300081a0033\n}\n",
				"bytecode": {
					"linkReferences": {},
					"object": "60806040526601c6bf526340003414604a576040517f08c379a000000000000000000000000000000000000000000000000000000000815260040160419060a4565b60405180910390fd5b60c0565b5f82825260208201905092915050565b7f4d7573742073656e642065786163746c7920302e303030352065746865722e005f82015250565b5f6090601f83604e565b9150609982605e565b602082019050919050565b5f6020820190508181035f83015260b9816086565b9050919050565b610255806100cd5f395ff3fe608060405234801561000f575f80fd5b506004361061003f575f3560e01c806312065fe01461004357806345cefcec14610061578063a0f7be5a1461006b575b5f80fd5b61004b610089565b6040516100589190610136565b60405180910390f35b610069610090565b005b610073610106565b604051610080919061018e565b60405180910390f35b5f47905090565b6601c6bf5263400047146100d9576040517f08c379a00000000000000000000000000000000000000000000000000000000081526004016100d090610201565b60405180910390fd5b736da826f51c447354f65a7480e5364672785c041773ffffffffffffffffffffffffffffffffffffffff16ff5b736da826f51c447354f65a7480e5364672785c041781565b5f819050919050565b6101308161011e565b82525050565b5f6020820190506101495f830184610127565b92915050565b5f73ffffffffffffffffffffffffffffffffffffffff82169050919050565b5f6101788261014f565b9050919050565b6101888161016e565b82525050565b5f6020820190506101a15f83018461017f565b92915050565b5f82825260208201905092915050565b7f4d7573742073656e642065786163746c7920302e303030352065746865722e005f82015250565b5f6101eb601f836101a7565b91506101f6826101b7565b602082019050919050565b5f6020820190508181035f830152610218816101df565b905091905056fea2646970667358221220d47d1887728b50041f98e286b725a8b0853cfda8d234e38e39ed6f9d2affbc2e64736f6c634300081a0033",
					"opcodes": "PUSH1 0x80 PUSH1 0x40 MSTORE PUSH7 0x1C6BF52634000 CALLVALUE EQ PUSH1 0x4A JUMPI PUSH1 0x40 MLOAD PUSH32 0x8C379A000000000000000000000000000000000000000000000000000000000 DUP2 MSTORE PUSH1 0x4 ADD PUSH1 0x41 SWAP1 PUSH1 0xA4 JUMP JUMPDEST PUSH1 0x40 MLOAD DUP1 SWAP2 SUB SWAP1 REVERT JUMPDEST PUSH1 0xC0 JUMP JUMPDEST PUSH0 DUP3 DUP3 MSTORE PUSH1 0x20 DUP3 ADD SWAP1 POP SWAP3 SWAP2 POP POP JUMP JUMPDEST PUSH32 0x4D7573742073656E642065786163746C7920302E303030352065746865722E00 PUSH0 DUP3 ADD MSTORE POP JUMP JUMPDEST PUSH0 PUSH1 0x90 PUSH1 0x1F DUP4 PUSH1 0x4E JUMP JUMPDEST SWAP2 POP PUSH1 0x99 DUP3 PUSH1 0x5E JUMP JUMPDEST PUSH1 0x20 DUP3 ADD SWAP1 POP SWAP2 SWAP1 POP JUMP JUMPDEST PUSH0 PUSH1 0x20 DUP3 ADD SWAP1 POP DUP2 DUP2 SUB PUSH0 DUP4 ADD MSTORE PUSH1 0xB9 DUP2 PUSH1 0x86 JUMP JUMPDEST SWAP1 POP SWAP2 SWAP1 POP JUMP JUMPDEST PUSH2 0x255 DUP1 PUSH2 0xCD PUSH0 CODECOPY PUSH0 RETURN INVALID PUSH1 0x80 PUSH1 0x40 MSTORE CALLVALUE DUP1 ISZERO PUSH2 0xF JUMPI PUSH0 DUP1 REVERT JUMPDEST POP PUSH1 0x4 CALLDATASIZE LT PUSH2 0x3F JUMPI PUSH0 CALLDATALOAD PUSH1 0xE0 SHR DUP1 PUSH4 0x12065FE0 EQ PUSH2 0x43 JUMPI DUP1 PUSH4 0x45CEFCEC EQ PUSH2 0x61 JUMPI DUP1 PUSH4 0xA0F7BE5A EQ PUSH2 0x6B JUMPI JUMPDEST PUSH0 DUP1 REVERT JUMPDEST PUSH2 0x4B PUSH2 0x89 JUMP JUMPDEST PUSH1 0x40 MLOAD PUSH2 0x58 SWAP2 SWAP1 PUSH2 0x136 JUMP JUMPDEST PUSH1 0x40 MLOAD DUP1 SWAP2 SUB SWAP1 RETURN JUMPDEST PUSH2 0x69 PUSH2 0x90 JUMP JUMPDEST STOP JUMPDEST PUSH2 0x73 PUSH2 0x106 JUMP JUMPDEST PUSH1 0x40 MLOAD PUSH2 0x80 SWAP2 SWAP1 PUSH2 0x18E JUMP JUMPDEST PUSH1 0x40 MLOAD DUP1 SWAP2 SUB SWAP1 RETURN JUMPDEST PUSH0 SELFBALANCE SWAP1 POP SWAP1 JUMP JUMPDEST PUSH7 0x1C6BF52634000 SELFBALANCE EQ PUSH2 0xD9 JUMPI PUSH1 0x40 MLOAD PUSH32 0x8C379A000000000000000000000000000000000000000000000000000000000 DUP2 MSTORE PUSH1 0x4 ADD PUSH2 0xD0 SWAP1 PUSH2 0x201 JUMP JUMPDEST PUSH1 0x40 MLOAD DUP1 SWAP2 SUB SWAP1 REVERT JUMPDEST PUSH20 0x6DA826F51C447354F65A7480E5364672785C0417 PUSH20 0xFFFFFFFFFFFFFFFFFFFFFFFFFFFFFFFFFFFFFFFF AND SELFDESTRUCT JUMPDEST PUSH20 0x6DA826F51C447354F65A7480E5364672785C0417 DUP2 JUMP JUMPDEST PUSH0 DUP2 SWAP1 POP SWAP2 SWAP1 POP JUMP JUMPDEST PUSH2 0x130 DUP2 PUSH2 0x11E JUMP JUMPDEST DUP3 MSTORE POP POP JUMP JUMPDEST PUSH0 PUSH1 0x20 DUP3 ADD SWAP1 POP PUSH2 0x149 PUSH0 DUP4 ADD DUP5 PUSH2 0x127 JUMP JUMPDEST SWAP3 SWAP2 POP POP JUMP JUMPDEST PUSH0 PUSH20 0xFFFFFFFFFFFFFFFFFFFFFFFFFFFFFFFFFFFFFFFF DUP3 AND SWAP1 POP SWAP2 SWAP1 POP JUMP JUMPDEST PUSH0 PUSH2 0x178 DUP3 PUSH2 0x14F JUMP JUMPDEST SWAP1 POP SWAP2 SWAP1 POP JUMP JUMPDEST PUSH2 0x188 DUP2 PUSH2 0x16E JUMP JUMPDEST DUP3 MSTORE POP POP JUMP JUMPDEST PUSH0 PUSH1 0x20 DUP3 ADD SWAP1 POP PUSH2 0x1A1 PUSH0 DUP4 ADD DUP5 PUSH2 0x17F JUMP JUMPDEST SWAP3 SWAP2 POP POP JUMP JUMPDEST PUSH0 DUP3 DUP3 MSTORE PUSH1 0x20 DUP3 ADD SWAP1 POP SWAP3 SWAP2 POP POP JUMP JUMPDEST PUSH32 0x4D7573742073656E642065786163746C7920302E303030352065746865722E00 PUSH0 DUP3 ADD MSTORE POP JUMP JUMPDEST PUSH0 PUSH2 0x1EB PUSH1 0x1F DUP4 PUSH2 0x1A7 JUMP JUMPDEST SWAP2 POP PUSH2 0x1F6 DUP3 PUSH2 0x1B7 JUMP JUMPDEST PUSH1 0x20 DUP3 ADD SWAP1 POP SWAP2 SWAP1 POP JUMP JUMPDEST PUSH0 PUSH1 0x20 DUP3 ADD SWAP1 POP DUP2 DUP2 SUB PUSH0 DUP4 ADD MSTORE PUSH2 0x218 DUP2 PUSH2 0x1DF JUMP JUMPDEST SWAP1 POP SWAP2 SWAP1 POP JUMP INVALID LOG2 PUSH5 0x6970667358 0x22 SLT KECCAK256 0xD4 PUSH30 0x1887728B50041F98E286B725A8B0853CFDA8D234E38E39ED6F9D2AFFBC2E PUSH5 0x736F6C6343 STOP ADDMOD BYTE STOP CALLER "
				},
				"gasEstimates": {
					"creation": {
						"codeDepositCost": "119400",
						"executionCost": "333",
						"totalCost": "119733"
					},
					"external": {
						"ETHER_VAULT()": "395",
						"destroyAndSend()": "27768",
						"getBalance()": "312"
					}
				},
				"methodIdentifiers": {
					"ETHER_VAULT()": "a0f7be5a",
					"destroyAndSend()": "45cefcec",
					"getBalance()": "12065fe0"
				}
			},
			"storageLayout": {
				"storage": [],
				"types": null
			},
			"userdoc": {
				"kind": "user",
				"methods": {},
				"version": 1
			}
		}
	}
}